{
	"test/HelloWorldFactory.sol": {
		"HelloWorldFactory": {
			"abi": [
				{
					"inputs": [
						{
							"internalType": "uint256",
							"name": "index",
							"type": "uint256"
						},
						{
							"internalType": "uint256",
							"name": "_id",
							"type": "uint256"
						}
					],
					"name": "callSayHelloWorldFromFactory",
					"outputs": [
						{
							"internalType": "string",
							"name": "",
							"type": "string"
						}
					],
					"stateMutability": "view",
					"type": "function"
				},
				{
					"inputs": [],
					"name": "createHelloWorld",
					"outputs": [],
					"stateMutability": "nonpayable",
					"type": "function"
				},
				{
					"inputs": [
						{
							"internalType": "uint256",
							"name": "index",
							"type": "uint256"
						}
					],
					"name": "getHelloWorldByIngex",
					"outputs": [
						{
							"internalType": "contract HelloWorld",
							"name": "",
							"type": "address"
						}
					],
					"stateMutability": "view",
					"type": "function"
				},
				{
					"inputs": [
						{
							"internalType": "uint256",
							"name": "index",
							"type": "uint256"
						},
						{
							"internalType": "string",
							"name": "_str",
							"type": "string"
						},
						{
							"internalType": "uint256",
							"name": "_id",
							"type": "uint256"
						}
					],
					"name": "setSayHelloWorldFromFactory",
					"outputs": [],
					"stateMutability": "nonpayable",
					"type": "function"
				}
			],
			"devdoc": {
				"kind": "dev",
				"methods": {},
				"version": 1
			},
			"evm": {
				"assembly": "    /* \"test/HelloWorldFactory.sol\":104:744  contract HelloWorldFactory{... */\n  mstore(0x40, 0x80)\n  callvalue\n  dup1\n  iszero\n  tag_1\n  jumpi\n  revert(0x00, 0x00)\ntag_1:\n  pop\n  dataSize(sub_0)\n  dup1\n  dataOffset(sub_0)\n  0x00\n  codecopy\n  0x00\n  return\nstop\n\nsub_0: assembly {\n        /* \"test/HelloWorldFactory.sol\":104:744  contract HelloWorldFactory{... */\n      mstore(0x40, 0x80)\n      callvalue\n      dup1\n      iszero\n      tag_1\n      jumpi\n      revert(0x00, 0x00)\n    tag_1:\n      pop\n      jumpi(tag_2, lt(calldatasize, 0x04))\n      shr(0xe0, calldataload(0x00))\n      dup1\n      0x5e0a94cb\n      eq\n      tag_3\n      jumpi\n      dup1\n      0x728d5c05\n      eq\n      tag_4\n      jumpi\n      dup1\n      0xb4cbaee6\n      eq\n      tag_5\n      jumpi\n      dup1\n      0xd6612711\n      eq\n      tag_6\n      jumpi\n    tag_2:\n      revert(0x00, 0x00)\n        /* \"test/HelloWorldFactory.sol\":182:280  function createHelloWorld() public {... */\n    tag_3:\n      tag_7\n      tag_8\n      jump\t// in\n    tag_7:\n      stop\n        /* \"test/HelloWorldFactory.sol\":288:411  function getHelloWorldByIngex(uint256 index) ... */\n    tag_4:\n      tag_9\n      0x04\n      dup1\n      calldatasize\n      sub\n      dup2\n      add\n      swap1\n      tag_10\n      swap2\n      swap1\n      tag_11\n      jump\t// in\n    tag_10:\n      tag_12\n      jump\t// in\n    tag_9:\n      mload(0x40)\n      tag_13\n      swap2\n      swap1\n      tag_14\n      jump\t// in\n    tag_13:\n      mload(0x40)\n      dup1\n      swap2\n      sub\n      swap1\n      return\n        /* \"test/HelloWorldFactory.sol\":419:581  function callSayHelloWorldFromFactory(uint256 index, uint256 _id) ... */\n    tag_5:\n      tag_15\n      0x04\n      dup1\n      calldatasize\n      sub\n      dup2\n      add\n      swap1\n      tag_16\n      swap2\n      swap1\n      tag_17\n      jump\t// in\n    tag_16:\n      tag_18\n      jump\t// in\n    tag_15:\n      mload(0x40)\n      tag_19\n      swap2\n      swap1\n      tag_20\n      jump\t// in\n    tag_19:\n      mload(0x40)\n      dup1\n      swap2\n      sub\n      swap1\n      return\n        /* \"test/HelloWorldFactory.sol\":589:735  function setSayHelloWorldFromFactory(uint256 index, string memory _str, uint256 _id) public {... */\n    tag_6:\n      tag_21\n      0x04\n      dup1\n      calldatasize\n      sub\n      dup2\n      add\n      swap1\n      tag_22\n      swap2\n      swap1\n      tag_23\n      jump\t// in\n    tag_22:\n      tag_24\n      jump\t// in\n    tag_21:\n      stop\n        /* \"test/HelloWorldFactory.sol\":182:280  function createHelloWorld() public {... */\n    tag_8:\n        /* \"test/HelloWorldFactory.sol\":233:249  new HelloWorld() */\n      mload(0x40)\n      tag_26\n      swap1\n      tag_27\n      jump\t// in\n    tag_26:\n      mload(0x40)\n      dup1\n      swap2\n      sub\n      swap1\n      0x00\n      create\n      dup1\n      iszero\n      dup1\n      iszero\n      tag_28\n      jumpi\n      returndatacopy(0x00, 0x00, returndatasize)\n      revert(0x00, returndatasize)\n    tag_28:\n      pop\n        /* \"test/HelloWorldFactory.sol\":228:230  hw */\n      0x00\n      0x00\n        /* \"test/HelloWorldFactory.sol\":228:249  hw = new HelloWorld() */\n      0x0100\n      exp\n      dup2\n      sload\n      dup2\n      0xffffffffffffffffffffffffffffffffffffffff\n      mul\n      not\n      and\n      swap1\n      dup4\n      0xffffffffffffffffffffffffffffffffffffffff\n      and\n      mul\n      or\n      swap1\n      sstore\n      pop\n        /* \"test/HelloWorldFactory.sol\":260:263  hws */\n      0x01\n        /* \"test/HelloWorldFactory.sol\":269:271  hw */\n      0x00\n      0x00\n      swap1\n      sload\n      swap1\n      0x0100\n      exp\n      swap1\n      div\n      0xffffffffffffffffffffffffffffffffffffffff\n      and\n        /* \"test/HelloWorldFactory.sol\":260:272  hws.push(hw) */\n      swap1\n      dup1\n      0x01\n      dup2\n      sload\n      add\n      dup1\n      dup3\n      sstore\n      dup1\n      swap2\n      pop\n      pop\n      0x01\n      swap1\n      sub\n      swap1\n      0x00\n      mstore\n      keccak256(0x00, 0x20)\n      add\n      0x00\n      swap1\n      swap2\n      swap1\n      swap2\n      swap1\n      swap2\n      0x0100\n      exp\n      dup2\n      sload\n      dup2\n      0xffffffffffffffffffffffffffffffffffffffff\n      mul\n      not\n      and\n      swap1\n      dup4\n      0xffffffffffffffffffffffffffffffffffffffff\n      and\n      mul\n      or\n      swap1\n      sstore\n      pop\n        /* \"test/HelloWorldFactory.sol\":182:280  function createHelloWorld() public {... */\n      jump\t// out\n        /* \"test/HelloWorldFactory.sol\":288:411  function getHelloWorldByIngex(uint256 index) ... */\n    tag_12:\n        /* \"test/HelloWorldFactory.sol\":364:374  HelloWorld */\n      0x00\n        /* \"test/HelloWorldFactory.sol\":393:396  hws */\n      0x01\n        /* \"test/HelloWorldFactory.sol\":397:402  index */\n      dup3\n        /* \"test/HelloWorldFactory.sol\":393:403  hws[index] */\n      dup2\n      sload\n      dup2\n      lt\n      tag_31\n      jumpi\n      tag_32\n      tag_33\n      jump\t// in\n    tag_32:\n    tag_31:\n      swap1\n      0x00\n      mstore\n      keccak256(0x00, 0x20)\n      add\n      0x00\n      swap1\n      sload\n      swap1\n      0x0100\n      exp\n      swap1\n      div\n      0xffffffffffffffffffffffffffffffffffffffff\n      and\n        /* \"test/HelloWorldFactory.sol\":386:403  return hws[index] */\n      swap1\n      pop\n        /* \"test/HelloWorldFactory.sol\":288:411  function getHelloWorldByIngex(uint256 index) ... */\n      swap2\n      swap1\n      pop\n      jump\t// out\n        /* \"test/HelloWorldFactory.sol\":419:581  function callSayHelloWorldFromFactory(uint256 index, uint256 _id) ... */\n    tag_18:\n        /* \"test/HelloWorldFactory.sol\":516:529  string memory */\n      0x60\n        /* \"test/HelloWorldFactory.sol\":549:552  hws */\n      0x01\n        /* \"test/HelloWorldFactory.sol\":553:558  index */\n      dup4\n        /* \"test/HelloWorldFactory.sol\":549:559  hws[index] */\n      dup2\n      sload\n      dup2\n      lt\n      tag_36\n      jumpi\n      tag_37\n      tag_33\n      jump\t// in\n    tag_37:\n    tag_36:\n      swap1\n      0x00\n      mstore\n      keccak256(0x00, 0x20)\n      add\n      0x00\n      swap1\n      sload\n      swap1\n      0x0100\n      exp\n      swap1\n      div\n      0xffffffffffffffffffffffffffffffffffffffff\n      and\n        /* \"test/HelloWorldFactory.sol\":549:568  hws[index].sayHello */\n      0xffffffffffffffffffffffffffffffffffffffff\n      and\n      0x42257b31\n        /* \"test/HelloWorldFactory.sol\":569:572  _id */\n      dup4\n        /* \"test/HelloWorldFactory.sol\":549:573  hws[index].sayHello(_id) */\n      mload(0x40)\n      dup3\n      0xffffffff\n      and\n      0xe0\n      shl\n      dup2\n      mstore\n      0x04\n      add\n      tag_39\n      swap2\n      swap1\n      tag_40\n      jump\t// in\n    tag_39:\n      0x00\n      mload(0x40)\n      dup1\n      dup4\n      sub\n      dup2\n      dup7\n      gas\n      staticcall\n      iszero\n      dup1\n      iszero\n      tag_42\n      jumpi\n      returndatacopy(0x00, 0x00, returndatasize)\n      revert(0x00, returndatasize)\n    tag_42:\n      pop\n      pop\n      pop\n      pop\n      mload(0x40)\n      returndatasize\n      0x00\n      dup3\n      returndatacopy\n      returndatasize\n      not(0x1f)\n      0x1f\n      dup3\n      add\n      and\n      dup3\n      add\n      dup1\n      0x40\n      mstore\n      pop\n      dup2\n      add\n      swap1\n      tag_43\n      swap2\n      swap1\n      tag_44\n      jump\t// in\n    tag_43:\n        /* \"test/HelloWorldFactory.sol\":542:573  return hws[index].sayHello(_id) */\n      swap1\n      pop\n        /* \"test/HelloWorldFactory.sol\":419:581  function callSayHelloWorldFromFactory(uint256 index, uint256 _id) ... */\n      swap3\n      swap2\n      pop\n      pop\n      jump\t// out\n        /* \"test/HelloWorldFactory.sol\":589:735  function setSayHelloWorldFromFactory(uint256 index, string memory _str, uint256 _id) public {... */\n    tag_24:\n        /* \"test/HelloWorldFactory.sol\":692:695  hws */\n      0x01\n        /* \"test/HelloWorldFactory.sol\":696:701  index */\n      dup4\n        /* \"test/HelloWorldFactory.sol\":692:702  hws[index] */\n      dup2\n      sload\n      dup2\n      lt\n      tag_46\n      jumpi\n      tag_47\n      tag_33\n      jump\t// in\n    tag_47:\n    tag_46:\n      swap1\n      0x00\n      mstore\n      keccak256(0x00, 0x20)\n      add\n      0x00\n      swap1\n      sload\n      swap1\n      0x0100\n      exp\n      swap1\n      div\n      0xffffffffffffffffffffffffffffffffffffffff\n      and\n        /* \"test/HelloWorldFactory.sol\":692:716  hws[index].setHelloWorld */\n      0xffffffffffffffffffffffffffffffffffffffff\n      and\n      0x5d641b89\n        /* \"test/HelloWorldFactory.sol\":717:721  _str */\n      dup4\n        /* \"test/HelloWorldFactory.sol\":723:726  _id */\n      dup4\n        /* \"test/HelloWorldFactory.sol\":692:727  hws[index].setHelloWorld(_str, _id) */\n      mload(0x40)\n      dup4\n      0xffffffff\n      and\n      0xe0\n      shl\n      dup2\n      mstore\n      0x04\n      add\n      tag_49\n      swap3\n      swap2\n      swap1\n      tag_50\n      jump\t// in\n    tag_49:\n      0x00\n      mload(0x40)\n      dup1\n      dup4\n      sub\n      dup2\n      0x00\n      dup8\n      dup1\n      extcodesize\n      iszero\n      dup1\n      iszero\n      tag_51\n      jumpi\n      revert(0x00, 0x00)\n    tag_51:\n      pop\n      gas\n      call\n      iszero\n      dup1\n      iszero\n      tag_53\n      jumpi\n      returndatacopy(0x00, 0x00, returndatasize)\n      revert(0x00, returndatasize)\n    tag_53:\n      pop\n      pop\n      pop\n      pop\n        /* \"test/HelloWorldFactory.sol\":589:735  function setSayHelloWorldFromFactory(uint256 index, string memory _str, uint256 _id) public {... */\n      pop\n      pop\n      pop\n      jump\t// out\n    tag_27:\n      dataSize(sub_0)\n      dup1\n      dataOffset(sub_0)\n      dup4\n      codecopy\n      add\n      swap1\n      jump\t// out\n        /* \"#utility.yul\":7:82   */\n    tag_54:\n        /* \"#utility.yul\":40:46   */\n      0x00\n        /* \"#utility.yul\":73:75   */\n      0x40\n        /* \"#utility.yul\":67:76   */\n      mload\n        /* \"#utility.yul\":57:76   */\n      swap1\n      pop\n        /* \"#utility.yul\":7:82   */\n      swap1\n      jump\t// out\n        /* \"#utility.yul\":88:205   */\n    tag_55:\n        /* \"#utility.yul\":197:198   */\n      0x00\n        /* \"#utility.yul\":194:195   */\n      0x00\n        /* \"#utility.yul\":187:199   */\n      revert\n        /* \"#utility.yul\":211:328   */\n    tag_56:\n        /* \"#utility.yul\":320:321   */\n      0x00\n        /* \"#utility.yul\":317:318   */\n      0x00\n        /* \"#utility.yul\":310:322   */\n      revert\n        /* \"#utility.yul\":334:411   */\n    tag_57:\n        /* \"#utility.yul\":371:378   */\n      0x00\n        /* \"#utility.yul\":400:405   */\n      dup2\n        /* \"#utility.yul\":389:405   */\n      swap1\n      pop\n        /* \"#utility.yul\":334:411   */\n      swap2\n      swap1\n      pop\n      jump\t// out\n        /* \"#utility.yul\":417:539   */\n    tag_58:\n        /* \"#utility.yul\":490:514   */\n      tag_89\n        /* \"#utility.yul\":508:513   */\n      dup2\n        /* \"#utility.yul\":490:514   */\n      tag_57\n      jump\t// in\n    tag_89:\n        /* \"#utility.yul\":483:488   */\n      dup2\n        /* \"#utility.yul\":480:515   */\n      eq\n        /* \"#utility.yul\":470:533   */\n      tag_90\n      jumpi\n        /* \"#utility.yul\":529:530   */\n      0x00\n        /* \"#utility.yul\":526:527   */\n      0x00\n        /* \"#utility.yul\":519:531   */\n      revert\n        /* \"#utility.yul\":470:533   */\n    tag_90:\n        /* \"#utility.yul\":417:539   */\n      pop\n      jump\t// out\n        /* \"#utility.yul\":545:684   */\n    tag_59:\n        /* \"#utility.yul\":591:596   */\n      0x00\n        /* \"#utility.yul\":629:635   */\n      dup2\n        /* \"#utility.yul\":616:636   */\n      calldataload\n        /* \"#utility.yul\":607:636   */\n      swap1\n      pop\n        /* \"#utility.yul\":645:678   */\n      tag_92\n        /* \"#utility.yul\":672:677   */\n      dup2\n        /* \"#utility.yul\":645:678   */\n      tag_58\n      jump\t// in\n    tag_92:\n        /* \"#utility.yul\":545:684   */\n      swap3\n      swap2\n      pop\n      pop\n      jump\t// out\n        /* \"#utility.yul\":690:1019   */\n    tag_11:\n        /* \"#utility.yul\":749:755   */\n      0x00\n        /* \"#utility.yul\":798:800   */\n      0x20\n        /* \"#utility.yul\":786:795   */\n      dup3\n        /* \"#utility.yul\":777:784   */\n      dup5\n        /* \"#utility.yul\":773:796   */\n      sub\n        /* \"#utility.yul\":769:801   */\n      slt\n        /* \"#utility.yul\":766:885   */\n      iszero\n      tag_94\n      jumpi\n        /* \"#utility.yul\":804:883   */\n      tag_95\n      tag_55\n      jump\t// in\n    tag_95:\n        /* \"#utility.yul\":766:885   */\n    tag_94:\n        /* \"#utility.yul\":924:925   */\n      0x00\n        /* \"#utility.yul\":949:1002   */\n      tag_96\n        /* \"#utility.yul\":994:1001   */\n      dup5\n        /* \"#utility.yul\":985:991   */\n      dup3\n        /* \"#utility.yul\":974:983   */\n      dup6\n        /* \"#utility.yul\":970:992   */\n      add\n        /* \"#utility.yul\":949:1002   */\n      tag_59\n      jump\t// in\n    tag_96:\n        /* \"#utility.yul\":939:1002   */\n      swap2\n      pop\n        /* \"#utility.yul\":895:1012   */\n      pop\n        /* \"#utility.yul\":690:1019   */\n      swap3\n      swap2\n      pop\n      pop\n      jump\t// out\n        /* \"#utility.yul\":1025:1151   */\n    tag_60:\n        /* \"#utility.yul\":1062:1069   */\n      0x00\n        /* \"#utility.yul\":1102:1144   */\n      0xffffffffffffffffffffffffffffffffffffffff\n        /* \"#utility.yul\":1095:1100   */\n      dup3\n        /* \"#utility.yul\":1091:1145   */\n      and\n        /* \"#utility.yul\":1080:1145   */\n      swap1\n      pop\n        /* \"#utility.yul\":1025:1151   */\n      swap2\n      swap1\n      pop\n      jump\t// out\n        /* \"#utility.yul\":1157:1217   */\n    tag_61:\n        /* \"#utility.yul\":1185:1188   */\n      0x00\n        /* \"#utility.yul\":1206:1211   */\n      dup2\n        /* \"#utility.yul\":1199:1211   */\n      swap1\n      pop\n        /* \"#utility.yul\":1157:1217   */\n      swap2\n      swap1\n      pop\n      jump\t// out\n        /* \"#utility.yul\":1223:1365   */\n    tag_62:\n        /* \"#utility.yul\":1273:1282   */\n      0x00\n        /* \"#utility.yul\":1306:1359   */\n      tag_100\n        /* \"#utility.yul\":1324:1358   */\n      tag_101\n        /* \"#utility.yul\":1333:1357   */\n      tag_102\n        /* \"#utility.yul\":1351:1356   */\n      dup5\n        /* \"#utility.yul\":1333:1357   */\n      tag_60\n      jump\t// in\n    tag_102:\n        /* \"#utility.yul\":1324:1358   */\n      tag_61\n      jump\t// in\n    tag_101:\n        /* \"#utility.yul\":1306:1359   */\n      tag_60\n      jump\t// in\n    tag_100:\n        /* \"#utility.yul\":1293:1359   */\n      swap1\n      pop\n        /* \"#utility.yul\":1223:1365   */\n      swap2\n      swap1\n      pop\n      jump\t// out\n        /* \"#utility.yul\":1371:1497   */\n    tag_63:\n        /* \"#utility.yul\":1421:1430   */\n      0x00\n        /* \"#utility.yul\":1454:1491   */\n      tag_104\n        /* \"#utility.yul\":1485:1490   */\n      dup3\n        /* \"#utility.yul\":1454:1491   */\n      tag_62\n      jump\t// in\n    tag_104:\n        /* \"#utility.yul\":1441:1491   */\n      swap1\n      pop\n        /* \"#utility.yul\":1371:1497   */\n      swap2\n      swap1\n      pop\n      jump\t// out\n        /* \"#utility.yul\":1503:1647   */\n    tag_64:\n        /* \"#utility.yul\":1571:1580   */\n      0x00\n        /* \"#utility.yul\":1604:1641   */\n      tag_106\n        /* \"#utility.yul\":1635:1640   */\n      dup3\n        /* \"#utility.yul\":1604:1641   */\n      tag_63\n      jump\t// in\n    tag_106:\n        /* \"#utility.yul\":1591:1641   */\n      swap1\n      pop\n        /* \"#utility.yul\":1503:1647   */\n      swap2\n      swap1\n      pop\n      jump\t// out\n        /* \"#utility.yul\":1653:1820   */\n    tag_65:\n        /* \"#utility.yul\":1758:1813   */\n      tag_108\n        /* \"#utility.yul\":1807:1812   */\n      dup2\n        /* \"#utility.yul\":1758:1813   */\n      tag_64\n      jump\t// in\n    tag_108:\n        /* \"#utility.yul\":1753:1756   */\n      dup3\n        /* \"#utility.yul\":1746:1814   */\n      mstore\n        /* \"#utility.yul\":1653:1820   */\n      pop\n      pop\n      jump\t// out\n        /* \"#utility.yul\":1826:2084   */\n    tag_14:\n        /* \"#utility.yul\":1937:1941   */\n      0x00\n        /* \"#utility.yul\":1975:1977   */\n      0x20\n        /* \"#utility.yul\":1964:1973   */\n      dup3\n        /* \"#utility.yul\":1960:1978   */\n      add\n        /* \"#utility.yul\":1952:1978   */\n      swap1\n      pop\n        /* \"#utility.yul\":1988:2077   */\n      tag_110\n        /* \"#utility.yul\":2074:2075   */\n      0x00\n        /* \"#utility.yul\":2063:2072   */\n      dup4\n        /* \"#utility.yul\":2059:2076   */\n      add\n        /* \"#utility.yul\":2050:2056   */\n      dup5\n        /* \"#utility.yul\":1988:2077   */\n      tag_65\n      jump\t// in\n    tag_110:\n        /* \"#utility.yul\":1826:2084   */\n      swap3\n      swap2\n      pop\n      pop\n      jump\t// out\n        /* \"#utility.yul\":2090:2564   */\n    tag_17:\n        /* \"#utility.yul\":2158:2164   */\n      0x00\n        /* \"#utility.yul\":2166:2172   */\n      0x00\n        /* \"#utility.yul\":2215:2217   */\n      0x40\n        /* \"#utility.yul\":2203:2212   */\n      dup4\n        /* \"#utility.yul\":2194:2201   */\n      dup6\n        /* \"#utility.yul\":2190:2213   */\n      sub\n        /* \"#utility.yul\":2186:2218   */\n      slt\n        /* \"#utility.yul\":2183:2302   */\n      iszero\n      tag_112\n      jumpi\n        /* \"#utility.yul\":2221:2300   */\n      tag_113\n      tag_55\n      jump\t// in\n    tag_113:\n        /* \"#utility.yul\":2183:2302   */\n    tag_112:\n        /* \"#utility.yul\":2341:2342   */\n      0x00\n        /* \"#utility.yul\":2366:2419   */\n      tag_114\n        /* \"#utility.yul\":2411:2418   */\n      dup6\n        /* \"#utility.yul\":2402:2408   */\n      dup3\n        /* \"#utility.yul\":2391:2400   */\n      dup7\n        /* \"#utility.yul\":2387:2409   */\n      add\n        /* \"#utility.yul\":2366:2419   */\n      tag_59\n      jump\t// in\n    tag_114:\n        /* \"#utility.yul\":2356:2419   */\n      swap3\n      pop\n        /* \"#utility.yul\":2312:2429   */\n      pop\n        /* \"#utility.yul\":2468:2470   */\n      0x20\n        /* \"#utility.yul\":2494:2547   */\n      tag_115\n        /* \"#utility.yul\":2539:2546   */\n      dup6\n        /* \"#utility.yul\":2530:2536   */\n      dup3\n        /* \"#utility.yul\":2519:2528   */\n      dup7\n        /* \"#utility.yul\":2515:2537   */\n      add\n        /* \"#utility.yul\":2494:2547   */\n      tag_59\n      jump\t// in\n    tag_115:\n        /* \"#utility.yul\":2484:2547   */\n      swap2\n      pop\n        /* \"#utility.yul\":2439:2557   */\n      pop\n        /* \"#utility.yul\":2090:2564   */\n      swap3\n      pop\n      swap3\n      swap1\n      pop\n      jump\t// out\n        /* \"#utility.yul\":2570:2669   */\n    tag_66:\n        /* \"#utility.yul\":2622:2628   */\n      0x00\n        /* \"#utility.yul\":2656:2661   */\n      dup2\n        /* \"#utility.yul\":2650:2662   */\n      mload\n        /* \"#utility.yul\":2640:2662   */\n      swap1\n      pop\n        /* \"#utility.yul\":2570:2669   */\n      swap2\n      swap1\n      pop\n      jump\t// out\n        /* \"#utility.yul\":2675:2844   */\n    tag_67:\n        /* \"#utility.yul\":2759:2770   */\n      0x00\n        /* \"#utility.yul\":2793:2799   */\n      dup3\n        /* \"#utility.yul\":2788:2791   */\n      dup3\n        /* \"#utility.yul\":2781:2800   */\n      mstore\n        /* \"#utility.yul\":2833:2837   */\n      0x20\n        /* \"#utility.yul\":2828:2831   */\n      dup3\n        /* \"#utility.yul\":2824:2838   */\n      add\n        /* \"#utility.yul\":2809:2838   */\n      swap1\n      pop\n        /* \"#utility.yul\":2675:2844   */\n      swap3\n      swap2\n      pop\n      pop\n      jump\t// out\n        /* \"#utility.yul\":2850:2989   */\n    tag_68:\n        /* \"#utility.yul\":2939:2945   */\n      dup3\n        /* \"#utility.yul\":2934:2937   */\n      dup2\n        /* \"#utility.yul\":2929:2932   */\n      dup4\n        /* \"#utility.yul\":2923:2946   */\n      mcopy\n        /* \"#utility.yul\":2980:2981   */\n      0x00\n        /* \"#utility.yul\":2971:2977   */\n      dup4\n        /* \"#utility.yul\":2966:2969   */\n      dup4\n        /* \"#utility.yul\":2962:2978   */\n      add\n        /* \"#utility.yul\":2955:2982   */\n      mstore\n        /* \"#utility.yul\":2850:2989   */\n      pop\n      pop\n      pop\n      jump\t// out\n        /* \"#utility.yul\":2995:3097   */\n    tag_69:\n        /* \"#utility.yul\":3036:3042   */\n      0x00\n        /* \"#utility.yul\":3087:3089   */\n      0x1f\n        /* \"#utility.yul\":3083:3090   */\n      not\n        /* \"#utility.yul\":3078:3080   */\n      0x1f\n        /* \"#utility.yul\":3071:3076   */\n      dup4\n        /* \"#utility.yul\":3067:3081   */\n      add\n        /* \"#utility.yul\":3063:3091   */\n      and\n        /* \"#utility.yul\":3053:3091   */\n      swap1\n      pop\n        /* \"#utility.yul\":2995:3097   */\n      swap2\n      swap1\n      pop\n      jump\t// out\n        /* \"#utility.yul\":3103:3480   */\n    tag_70:\n        /* \"#utility.yul\":3191:3194   */\n      0x00\n        /* \"#utility.yul\":3219:3258   */\n      tag_121\n        /* \"#utility.yul\":3252:3257   */\n      dup3\n        /* \"#utility.yul\":3219:3258   */\n      tag_66\n      jump\t// in\n    tag_121:\n        /* \"#utility.yul\":3274:3345   */\n      tag_122\n        /* \"#utility.yul\":3338:3344   */\n      dup2\n        /* \"#utility.yul\":3333:3336   */\n      dup6\n        /* \"#utility.yul\":3274:3345   */\n      tag_67\n      jump\t// in\n    tag_122:\n        /* \"#utility.yul\":3267:3345   */\n      swap4\n      pop\n        /* \"#utility.yul\":3354:3419   */\n      tag_123\n        /* \"#utility.yul\":3412:3418   */\n      dup2\n        /* \"#utility.yul\":3407:3410   */\n      dup6\n        /* \"#utility.yul\":3400:3404   */\n      0x20\n        /* \"#utility.yul\":3393:3398   */\n      dup7\n        /* \"#utility.yul\":3389:3405   */\n      add\n        /* \"#utility.yul\":3354:3419   */\n      tag_68\n      jump\t// in\n    tag_123:\n        /* \"#utility.yul\":3444:3473   */\n      tag_124\n        /* \"#utility.yul\":3466:3472   */\n      dup2\n        /* \"#utility.yul\":3444:3473   */\n      tag_69\n      jump\t// in\n    tag_124:\n        /* \"#utility.yul\":3439:3442   */\n      dup5\n        /* \"#utility.yul\":3435:3474   */\n      add\n        /* \"#utility.yul\":3428:3474   */\n      swap2\n      pop\n        /* \"#utility.yul\":3195:3480   */\n      pop\n        /* \"#utility.yul\":3103:3480   */\n      swap3\n      swap2\n      pop\n      pop\n      jump\t// out\n        /* \"#utility.yul\":3486:3799   */\n    tag_20:\n        /* \"#utility.yul\":3599:3603   */\n      0x00\n        /* \"#utility.yul\":3637:3639   */\n      0x20\n        /* \"#utility.yul\":3626:3635   */\n      dup3\n        /* \"#utility.yul\":3622:3640   */\n      add\n        /* \"#utility.yul\":3614:3640   */\n      swap1\n      pop\n        /* \"#utility.yul\":3686:3695   */\n      dup2\n        /* \"#utility.yul\":3680:3684   */\n      dup2\n        /* \"#utility.yul\":3676:3696   */\n      sub\n        /* \"#utility.yul\":3672:3673   */\n      0x00\n        /* \"#utility.yul\":3661:3670   */\n      dup4\n        /* \"#utility.yul\":3657:3674   */\n      add\n        /* \"#utility.yul\":3650:3697   */\n      mstore\n        /* \"#utility.yul\":3714:3792   */\n      tag_126\n        /* \"#utility.yul\":3787:3791   */\n      dup2\n        /* \"#utility.yul\":3778:3784   */\n      dup5\n        /* \"#utility.yul\":3714:3792   */\n      tag_70\n      jump\t// in\n    tag_126:\n        /* \"#utility.yul\":3706:3792   */\n      swap1\n      pop\n        /* \"#utility.yul\":3486:3799   */\n      swap3\n      swap2\n      pop\n      pop\n      jump\t// out\n        /* \"#utility.yul\":3805:3922   */\n    tag_71:\n        /* \"#utility.yul\":3914:3915   */\n      0x00\n        /* \"#utility.yul\":3911:3912   */\n      0x00\n        /* \"#utility.yul\":3904:3916   */\n      revert\n        /* \"#utility.yul\":3928:4045   */\n    tag_72:\n        /* \"#utility.yul\":4037:4038   */\n      0x00\n        /* \"#utility.yul\":4034:4035   */\n      0x00\n        /* \"#utility.yul\":4027:4039   */\n      revert\n        /* \"#utility.yul\":4051:4231   */\n    tag_73:\n        /* \"#utility.yul\":4099:4176   */\n      0x4e487b7100000000000000000000000000000000000000000000000000000000\n        /* \"#utility.yul\":4096:4097   */\n      0x00\n        /* \"#utility.yul\":4089:4177   */\n      mstore\n        /* \"#utility.yul\":4196:4200   */\n      0x41\n        /* \"#utility.yul\":4193:4194   */\n      0x04\n        /* \"#utility.yul\":4186:4201   */\n      mstore\n        /* \"#utility.yul\":4220:4224   */\n      0x24\n        /* \"#utility.yul\":4217:4218   */\n      0x00\n        /* \"#utility.yul\":4210:4225   */\n      revert\n        /* \"#utility.yul\":4237:4518   */\n    tag_74:\n        /* \"#utility.yul\":4320:4347   */\n      tag_131\n        /* \"#utility.yul\":4342:4346   */\n      dup3\n        /* \"#utility.yul\":4320:4347   */\n      tag_69\n      jump\t// in\n    tag_131:\n        /* \"#utility.yul\":4312:4318   */\n      dup2\n        /* \"#utility.yul\":4308:4348   */\n      add\n        /* \"#utility.yul\":4450:4456   */\n      dup2\n        /* \"#utility.yul\":4438:4448   */\n      dup2\n        /* \"#utility.yul\":4435:4457   */\n      lt\n        /* \"#utility.yul\":4414:4432   */\n      0xffffffffffffffff\n        /* \"#utility.yul\":4402:4412   */\n      dup3\n        /* \"#utility.yul\":4399:4433   */\n      gt\n        /* \"#utility.yul\":4396:4458   */\n      or\n        /* \"#utility.yul\":4393:4481   */\n      iszero\n      tag_132\n      jumpi\n        /* \"#utility.yul\":4461:4479   */\n      tag_133\n      tag_73\n      jump\t// in\n    tag_133:\n        /* \"#utility.yul\":4393:4481   */\n    tag_132:\n        /* \"#utility.yul\":4501:4511   */\n      dup1\n        /* \"#utility.yul\":4497:4499   */\n      0x40\n        /* \"#utility.yul\":4490:4512   */\n      mstore\n        /* \"#utility.yul\":4280:4518   */\n      pop\n        /* \"#utility.yul\":4237:4518   */\n      pop\n      pop\n      jump\t// out\n        /* \"#utility.yul\":4524:4653   */\n    tag_75:\n        /* \"#utility.yul\":4558:4564   */\n      0x00\n        /* \"#utility.yul\":4585:4605   */\n      tag_135\n      tag_54\n      jump\t// in\n    tag_135:\n        /* \"#utility.yul\":4575:4605   */\n      swap1\n      pop\n        /* \"#utility.yul\":4614:4647   */\n      tag_136\n        /* \"#utility.yul\":4642:4646   */\n      dup3\n        /* \"#utility.yul\":4634:4640   */\n      dup3\n        /* \"#utility.yul\":4614:4647   */\n      tag_74\n      jump\t// in\n    tag_136:\n        /* \"#utility.yul\":4524:4653   */\n      swap2\n      swap1\n      pop\n      jump\t// out\n        /* \"#utility.yul\":4659:4967   */\n    tag_76:\n        /* \"#utility.yul\":4721:4725   */\n      0x00\n        /* \"#utility.yul\":4811:4829   */\n      0xffffffffffffffff\n        /* \"#utility.yul\":4803:4809   */\n      dup3\n        /* \"#utility.yul\":4800:4830   */\n      gt\n        /* \"#utility.yul\":4797:4853   */\n      iszero\n      tag_138\n      jumpi\n        /* \"#utility.yul\":4833:4851   */\n      tag_139\n      tag_73\n      jump\t// in\n    tag_139:\n        /* \"#utility.yul\":4797:4853   */\n    tag_138:\n        /* \"#utility.yul\":4871:4900   */\n      tag_140\n        /* \"#utility.yul\":4893:4899   */\n      dup3\n        /* \"#utility.yul\":4871:4900   */\n      tag_69\n      jump\t// in\n    tag_140:\n        /* \"#utility.yul\":4863:4900   */\n      swap1\n      pop\n        /* \"#utility.yul\":4955:4959   */\n      0x20\n        /* \"#utility.yul\":4949:4953   */\n      dup2\n        /* \"#utility.yul\":4945:4960   */\n      add\n        /* \"#utility.yul\":4937:4960   */\n      swap1\n      pop\n        /* \"#utility.yul\":4659:4967   */\n      swap2\n      swap1\n      pop\n      jump\t// out\n        /* \"#utility.yul\":4973:5121   */\n    tag_77:\n        /* \"#utility.yul\":5071:5077   */\n      dup3\n        /* \"#utility.yul\":5066:5069   */\n      dup2\n        /* \"#utility.yul\":5061:5064   */\n      dup4\n        /* \"#utility.yul\":5048:5078   */\n      calldatacopy\n        /* \"#utility.yul\":5112:5113   */\n      0x00\n        /* \"#utility.yul\":5103:5109   */\n      dup4\n        /* \"#utility.yul\":5098:5101   */\n      dup4\n        /* \"#utility.yul\":5094:5110   */\n      add\n        /* \"#utility.yul\":5087:5114   */\n      mstore\n        /* \"#utility.yul\":4973:5121   */\n      pop\n      pop\n      pop\n      jump\t// out\n        /* \"#utility.yul\":5127:5552   */\n    tag_78:\n        /* \"#utility.yul\":5205:5210   */\n      0x00\n        /* \"#utility.yul\":5230:5296   */\n      tag_143\n        /* \"#utility.yul\":5246:5295   */\n      tag_144\n        /* \"#utility.yul\":5288:5294   */\n      dup5\n        /* \"#utility.yul\":5246:5295   */\n      tag_76\n      jump\t// in\n    tag_144:\n        /* \"#utility.yul\":5230:5296   */\n      tag_75\n      jump\t// in\n    tag_143:\n        /* \"#utility.yul\":5221:5296   */\n      swap1\n      pop\n        /* \"#utility.yul\":5319:5325   */\n      dup3\n        /* \"#utility.yul\":5312:5317   */\n      dup2\n        /* \"#utility.yul\":5305:5326   */\n      mstore\n        /* \"#utility.yul\":5357:5361   */\n      0x20\n        /* \"#utility.yul\":5350:5355   */\n      dup2\n        /* \"#utility.yul\":5346:5362   */\n      add\n        /* \"#utility.yul\":5395:5398   */\n      dup5\n        /* \"#utility.yul\":5386:5392   */\n      dup5\n        /* \"#utility.yul\":5381:5384   */\n      dup5\n        /* \"#utility.yul\":5377:5393   */\n      add\n        /* \"#utility.yul\":5374:5399   */\n      gt\n        /* \"#utility.yul\":5371:5483   */\n      iszero\n      tag_145\n      jumpi\n        /* \"#utility.yul\":5402:5481   */\n      tag_146\n      tag_72\n      jump\t// in\n    tag_146:\n        /* \"#utility.yul\":5371:5483   */\n    tag_145:\n        /* \"#utility.yul\":5492:5546   */\n      tag_147\n        /* \"#utility.yul\":5539:5545   */\n      dup5\n        /* \"#utility.yul\":5534:5537   */\n      dup3\n        /* \"#utility.yul\":5529:5532   */\n      dup6\n        /* \"#utility.yul\":5492:5546   */\n      tag_77\n      jump\t// in\n    tag_147:\n        /* \"#utility.yul\":5211:5552   */\n      pop\n        /* \"#utility.yul\":5127:5552   */\n      swap4\n      swap3\n      pop\n      pop\n      pop\n      jump\t// out\n        /* \"#utility.yul\":5572:5912   */\n    tag_79:\n        /* \"#utility.yul\":5628:5633   */\n      0x00\n        /* \"#utility.yul\":5677:5680   */\n      dup3\n        /* \"#utility.yul\":5670:5674   */\n      0x1f\n        /* \"#utility.yul\":5662:5668   */\n      dup4\n        /* \"#utility.yul\":5658:5675   */\n      add\n        /* \"#utility.yul\":5654:5681   */\n      slt\n        /* \"#utility.yul\":5644:5766   */\n      tag_149\n      jumpi\n        /* \"#utility.yul\":5685:5764   */\n      tag_150\n      tag_71\n      jump\t// in\n    tag_150:\n        /* \"#utility.yul\":5644:5766   */\n    tag_149:\n        /* \"#utility.yul\":5802:5808   */\n      dup2\n        /* \"#utility.yul\":5789:5809   */\n      calldataload\n        /* \"#utility.yul\":5827:5906   */\n      tag_151\n        /* \"#utility.yul\":5902:5905   */\n      dup5\n        /* \"#utility.yul\":5894:5900   */\n      dup3\n        /* \"#utility.yul\":5887:5891   */\n      0x20\n        /* \"#utility.yul\":5879:5885   */\n      dup7\n        /* \"#utility.yul\":5875:5892   */\n      add\n        /* \"#utility.yul\":5827:5906   */\n      tag_78\n      jump\t// in\n    tag_151:\n        /* \"#utility.yul\":5818:5906   */\n      swap2\n      pop\n        /* \"#utility.yul\":5634:5912   */\n      pop\n        /* \"#utility.yul\":5572:5912   */\n      swap3\n      swap2\n      pop\n      pop\n      jump\t// out\n        /* \"#utility.yul\":5918:6717   */\n    tag_23:\n        /* \"#utility.yul\":6005:6011   */\n      0x00\n        /* \"#utility.yul\":6013:6019   */\n      0x00\n        /* \"#utility.yul\":6021:6027   */\n      0x00\n        /* \"#utility.yul\":6070:6072   */\n      0x60\n        /* \"#utility.yul\":6058:6067   */\n      dup5\n        /* \"#utility.yul\":6049:6056   */\n      dup7\n        /* \"#utility.yul\":6045:6068   */\n      sub\n        /* \"#utility.yul\":6041:6073   */\n      slt\n        /* \"#utility.yul\":6038:6157   */\n      iszero\n      tag_153\n      jumpi\n        /* \"#utility.yul\":6076:6155   */\n      tag_154\n      tag_55\n      jump\t// in\n    tag_154:\n        /* \"#utility.yul\":6038:6157   */\n    tag_153:\n        /* \"#utility.yul\":6196:6197   */\n      0x00\n        /* \"#utility.yul\":6221:6274   */\n      tag_155\n        /* \"#utility.yul\":6266:6273   */\n      dup7\n        /* \"#utility.yul\":6257:6263   */\n      dup3\n        /* \"#utility.yul\":6246:6255   */\n      dup8\n        /* \"#utility.yul\":6242:6264   */\n      add\n        /* \"#utility.yul\":6221:6274   */\n      tag_59\n      jump\t// in\n    tag_155:\n        /* \"#utility.yul\":6211:6274   */\n      swap4\n      pop\n        /* \"#utility.yul\":6167:6284   */\n      pop\n        /* \"#utility.yul\":6351:6353   */\n      0x20\n        /* \"#utility.yul\":6340:6349   */\n      dup5\n        /* \"#utility.yul\":6336:6354   */\n      add\n        /* \"#utility.yul\":6323:6355   */\n      calldataload\n        /* \"#utility.yul\":6382:6400   */\n      0xffffffffffffffff\n        /* \"#utility.yul\":6374:6380   */\n      dup2\n        /* \"#utility.yul\":6371:6401   */\n      gt\n        /* \"#utility.yul\":6368:6485   */\n      iszero\n      tag_156\n      jumpi\n        /* \"#utility.yul\":6404:6483   */\n      tag_157\n      tag_56\n      jump\t// in\n    tag_157:\n        /* \"#utility.yul\":6368:6485   */\n    tag_156:\n        /* \"#utility.yul\":6509:6572   */\n      tag_158\n        /* \"#utility.yul\":6564:6571   */\n      dup7\n        /* \"#utility.yul\":6555:6561   */\n      dup3\n        /* \"#utility.yul\":6544:6553   */\n      dup8\n        /* \"#utility.yul\":6540:6562   */\n      add\n        /* \"#utility.yul\":6509:6572   */\n      tag_79\n      jump\t// in\n    tag_158:\n        /* \"#utility.yul\":6499:6572   */\n      swap3\n      pop\n        /* \"#utility.yul\":6294:6582   */\n      pop\n        /* \"#utility.yul\":6621:6623   */\n      0x40\n        /* \"#utility.yul\":6647:6700   */\n      tag_159\n        /* \"#utility.yul\":6692:6699   */\n      dup7\n        /* \"#utility.yul\":6683:6689   */\n      dup3\n        /* \"#utility.yul\":6672:6681   */\n      dup8\n        /* \"#utility.yul\":6668:6690   */\n      add\n        /* \"#utility.yul\":6647:6700   */\n      tag_59\n      jump\t// in\n    tag_159:\n        /* \"#utility.yul\":6637:6700   */\n      swap2\n      pop\n        /* \"#utility.yul\":6592:6710   */\n      pop\n        /* \"#utility.yul\":5918:6717   */\n      swap3\n      pop\n      swap3\n      pop\n      swap3\n      jump\t// out\n        /* \"#utility.yul\":6723:6903   */\n    tag_33:\n        /* \"#utility.yul\":6771:6848   */\n      0x4e487b7100000000000000000000000000000000000000000000000000000000\n        /* \"#utility.yul\":6768:6769   */\n      0x00\n        /* \"#utility.yul\":6761:6849   */\n      mstore\n        /* \"#utility.yul\":6868:6872   */\n      0x32\n        /* \"#utility.yul\":6865:6866   */\n      0x04\n        /* \"#utility.yul\":6858:6873   */\n      mstore\n        /* \"#utility.yul\":6892:6896   */\n      0x24\n        /* \"#utility.yul\":6889:6890   */\n      0x00\n        /* \"#utility.yul\":6882:6897   */\n      revert\n        /* \"#utility.yul\":6909:7027   */\n    tag_80:\n        /* \"#utility.yul\":6996:7020   */\n      tag_162\n        /* \"#utility.yul\":7014:7019   */\n      dup2\n        /* \"#utility.yul\":6996:7020   */\n      tag_57\n      jump\t// in\n    tag_162:\n        /* \"#utility.yul\":6991:6994   */\n      dup3\n        /* \"#utility.yul\":6984:7021   */\n      mstore\n        /* \"#utility.yul\":6909:7027   */\n      pop\n      pop\n      jump\t// out\n        /* \"#utility.yul\":7033:7255   */\n    tag_40:\n        /* \"#utility.yul\":7126:7130   */\n      0x00\n        /* \"#utility.yul\":7164:7166   */\n      0x20\n        /* \"#utility.yul\":7153:7162   */\n      dup3\n        /* \"#utility.yul\":7149:7167   */\n      add\n        /* \"#utility.yul\":7141:7167   */\n      swap1\n      pop\n        /* \"#utility.yul\":7177:7248   */\n      tag_164\n        /* \"#utility.yul\":7245:7246   */\n      0x00\n        /* \"#utility.yul\":7234:7243   */\n      dup4\n        /* \"#utility.yul\":7230:7247   */\n      add\n        /* \"#utility.yul\":7221:7227   */\n      dup5\n        /* \"#utility.yul\":7177:7248   */\n      tag_80\n      jump\t// in\n    tag_164:\n        /* \"#utility.yul\":7033:7255   */\n      swap3\n      swap2\n      pop\n      pop\n      jump\t// out\n        /* \"#utility.yul\":7261:7695   */\n    tag_81:\n        /* \"#utility.yul\":7350:7355   */\n      0x00\n        /* \"#utility.yul\":7375:7441   */\n      tag_166\n        /* \"#utility.yul\":7391:7440   */\n      tag_167\n        /* \"#utility.yul\":7433:7439   */\n      dup5\n        /* \"#utility.yul\":7391:7440   */\n      tag_76\n      jump\t// in\n    tag_167:\n        /* \"#utility.yul\":7375:7441   */\n      tag_75\n      jump\t// in\n    tag_166:\n        /* \"#utility.yul\":7366:7441   */\n      swap1\n      pop\n        /* \"#utility.yul\":7464:7470   */\n      dup3\n        /* \"#utility.yul\":7457:7462   */\n      dup2\n        /* \"#utility.yul\":7450:7471   */\n      mstore\n        /* \"#utility.yul\":7502:7506   */\n      0x20\n        /* \"#utility.yul\":7495:7500   */\n      dup2\n        /* \"#utility.yul\":7491:7507   */\n      add\n        /* \"#utility.yul\":7540:7543   */\n      dup5\n        /* \"#utility.yul\":7531:7537   */\n      dup5\n        /* \"#utility.yul\":7526:7529   */\n      dup5\n        /* \"#utility.yul\":7522:7538   */\n      add\n        /* \"#utility.yul\":7519:7544   */\n      gt\n        /* \"#utility.yul\":7516:7628   */\n      iszero\n      tag_168\n      jumpi\n        /* \"#utility.yul\":7547:7626   */\n      tag_169\n      tag_72\n      jump\t// in\n    tag_169:\n        /* \"#utility.yul\":7516:7628   */\n    tag_168:\n        /* \"#utility.yul\":7637:7689   */\n      tag_170\n        /* \"#utility.yul\":7682:7688   */\n      dup5\n        /* \"#utility.yul\":7677:7680   */\n      dup3\n        /* \"#utility.yul\":7672:7675   */\n      dup6\n        /* \"#utility.yul\":7637:7689   */\n      tag_68\n      jump\t// in\n    tag_170:\n        /* \"#utility.yul\":7356:7695   */\n      pop\n        /* \"#utility.yul\":7261:7695   */\n      swap4\n      swap3\n      pop\n      pop\n      pop\n      jump\t// out\n        /* \"#utility.yul\":7715:8070   */\n    tag_82:\n        /* \"#utility.yul\":7782:7787   */\n      0x00\n        /* \"#utility.yul\":7831:7834   */\n      dup3\n        /* \"#utility.yul\":7824:7828   */\n      0x1f\n        /* \"#utility.yul\":7816:7822   */\n      dup4\n        /* \"#utility.yul\":7812:7829   */\n      add\n        /* \"#utility.yul\":7808:7835   */\n      slt\n        /* \"#utility.yul\":7798:7920   */\n      tag_172\n      jumpi\n        /* \"#utility.yul\":7839:7918   */\n      tag_173\n      tag_71\n      jump\t// in\n    tag_173:\n        /* \"#utility.yul\":7798:7920   */\n    tag_172:\n        /* \"#utility.yul\":7949:7955   */\n      dup2\n        /* \"#utility.yul\":7943:7956   */\n      mload\n        /* \"#utility.yul\":7974:8064   */\n      tag_174\n        /* \"#utility.yul\":8060:8063   */\n      dup5\n        /* \"#utility.yul\":8052:8058   */\n      dup3\n        /* \"#utility.yul\":8045:8049   */\n      0x20\n        /* \"#utility.yul\":8037:8043   */\n      dup7\n        /* \"#utility.yul\":8033:8050   */\n      add\n        /* \"#utility.yul\":7974:8064   */\n      tag_81\n      jump\t// in\n    tag_174:\n        /* \"#utility.yul\":7965:8064   */\n      swap2\n      pop\n        /* \"#utility.yul\":7788:8070   */\n      pop\n        /* \"#utility.yul\":7715:8070   */\n      swap3\n      swap2\n      pop\n      pop\n      jump\t// out\n        /* \"#utility.yul\":8076:8600   */\n    tag_44:\n        /* \"#utility.yul\":8156:8162   */\n      0x00\n        /* \"#utility.yul\":8205:8207   */\n      0x20\n        /* \"#utility.yul\":8193:8202   */\n      dup3\n        /* \"#utility.yul\":8184:8191   */\n      dup5\n        /* \"#utility.yul\":8180:8203   */\n      sub\n        /* \"#utility.yul\":8176:8208   */\n      slt\n        /* \"#utility.yul\":8173:8292   */\n      iszero\n      tag_176\n      jumpi\n        /* \"#utility.yul\":8211:8290   */\n      tag_177\n      tag_55\n      jump\t// in\n    tag_177:\n        /* \"#utility.yul\":8173:8292   */\n    tag_176:\n        /* \"#utility.yul\":8352:8353   */\n      0x00\n        /* \"#utility.yul\":8341:8350   */\n      dup3\n        /* \"#utility.yul\":8337:8354   */\n      add\n        /* \"#utility.yul\":8331:8355   */\n      mload\n        /* \"#utility.yul\":8382:8400   */\n      0xffffffffffffffff\n        /* \"#utility.yul\":8374:8380   */\n      dup2\n        /* \"#utility.yul\":8371:8401   */\n      gt\n        /* \"#utility.yul\":8368:8485   */\n      iszero\n      tag_178\n      jumpi\n        /* \"#utility.yul\":8404:8483   */\n      tag_179\n      tag_56\n      jump\t// in\n    tag_179:\n        /* \"#utility.yul\":8368:8485   */\n    tag_178:\n        /* \"#utility.yul\":8509:8583   */\n      tag_180\n        /* \"#utility.yul\":8575:8582   */\n      dup5\n        /* \"#utility.yul\":8566:8572   */\n      dup3\n        /* \"#utility.yul\":8555:8564   */\n      dup6\n        /* \"#utility.yul\":8551:8573   */\n      add\n        /* \"#utility.yul\":8509:8583   */\n      tag_82\n      jump\t// in\n    tag_180:\n        /* \"#utility.yul\":8499:8583   */\n      swap2\n      pop\n        /* \"#utility.yul\":8302:8593   */\n      pop\n        /* \"#utility.yul\":8076:8600   */\n      swap3\n      swap2\n      pop\n      pop\n      jump\t// out\n        /* \"#utility.yul\":8606:9029   */\n    tag_50:\n        /* \"#utility.yul\":8747:8751   */\n      0x00\n        /* \"#utility.yul\":8785:8787   */\n      0x40\n        /* \"#utility.yul\":8774:8783   */\n      dup3\n        /* \"#utility.yul\":8770:8788   */\n      add\n        /* \"#utility.yul\":8762:8788   */\n      swap1\n      pop\n        /* \"#utility.yul\":8834:8843   */\n      dup2\n        /* \"#utility.yul\":8828:8832   */\n      dup2\n        /* \"#utility.yul\":8824:8844   */\n      sub\n        /* \"#utility.yul\":8820:8821   */\n      0x00\n        /* \"#utility.yul\":8809:8818   */\n      dup4\n        /* \"#utility.yul\":8805:8822   */\n      add\n        /* \"#utility.yul\":8798:8845   */\n      mstore\n        /* \"#utility.yul\":8862:8940   */\n      tag_182\n        /* \"#utility.yul\":8935:8939   */\n      dup2\n        /* \"#utility.yul\":8926:8932   */\n      dup6\n        /* \"#utility.yul\":8862:8940   */\n      tag_70\n      jump\t// in\n    tag_182:\n        /* \"#utility.yul\":8854:8940   */\n      swap1\n      pop\n        /* \"#utility.yul\":8950:9022   */\n      tag_183\n        /* \"#utility.yul\":9018:9020   */\n      0x20\n        /* \"#utility.yul\":9007:9016   */\n      dup4\n        /* \"#utility.yul\":9003:9021   */\n      add\n        /* \"#utility.yul\":8994:9000   */\n      dup5\n        /* \"#utility.yul\":8950:9022   */\n      tag_80\n      jump\t// in\n    tag_183:\n        /* \"#utility.yul\":8606:9029   */\n      swap4\n      swap3\n      pop\n      pop\n      pop\n      jump\t// out\n    stop\n\n    sub_0: assembly {\n            /* \"test/test.sol\":102:901  contract HelloWorld{... */\n          mstore(0x40, 0x80)\n            /* \"test/test.sol\":128:158  string  strVar = \"hello world\" */\n          mload(0x40)\n          dup1\n          0x40\n          add\n          0x40\n          mstore\n          dup1\n          0x0b\n          dup2\n          mstore\n          0x20\n          add\n          0x68656c6c6f20776f726c64000000000000000000000000000000000000000000\n          dup2\n          mstore\n          pop\n          0x00\n          swap1\n          dup2\n          tag_1\n          swap2\n          swap1\n          tag_2\n          jump\t// in\n        tag_1:\n          pop\n            /* \"test/test.sol\":102:901  contract HelloWorld{... */\n          callvalue\n          dup1\n          iszero\n          tag_3\n          jumpi\n          revert(0x00, 0x00)\n        tag_3:\n          pop\n          jump(tag_4)\n            /* \"#utility.yul\":7:106   */\n        tag_5:\n            /* \"#utility.yul\":59:65   */\n          0x00\n            /* \"#utility.yul\":93:98   */\n          dup2\n            /* \"#utility.yul\":87:99   */\n          mload\n            /* \"#utility.yul\":77:99   */\n          swap1\n          pop\n            /* \"#utility.yul\":7:106   */\n          swap2\n          swap1\n          pop\n          jump\t// out\n            /* \"#utility.yul\":112:292   */\n        tag_6:\n            /* \"#utility.yul\":160:237   */\n          0x4e487b7100000000000000000000000000000000000000000000000000000000\n            /* \"#utility.yul\":157:158   */\n          0x00\n            /* \"#utility.yul\":150:238   */\n          mstore\n            /* \"#utility.yul\":257:261   */\n          0x41\n            /* \"#utility.yul\":254:255   */\n          0x04\n            /* \"#utility.yul\":247:262   */\n          mstore\n            /* \"#utility.yul\":281:285   */\n          0x24\n            /* \"#utility.yul\":278:279   */\n          0x00\n            /* \"#utility.yul\":271:286   */\n          revert\n            /* \"#utility.yul\":298:478   */\n        tag_7:\n            /* \"#utility.yul\":346:423   */\n          0x4e487b7100000000000000000000000000000000000000000000000000000000\n            /* \"#utility.yul\":343:344   */\n          0x00\n            /* \"#utility.yul\":336:424   */\n          mstore\n            /* \"#utility.yul\":443:447   */\n          0x22\n            /* \"#utility.yul\":440:441   */\n          0x04\n            /* \"#utility.yul\":433:448   */\n          mstore\n            /* \"#utility.yul\":467:471   */\n          0x24\n            /* \"#utility.yul\":464:465   */\n          0x00\n            /* \"#utility.yul\":457:472   */\n          revert\n            /* \"#utility.yul\":484:804   */\n        tag_8:\n            /* \"#utility.yul\":528:534   */\n          0x00\n            /* \"#utility.yul\":565:566   */\n          0x02\n            /* \"#utility.yul\":559:563   */\n          dup3\n            /* \"#utility.yul\":555:567   */\n          div\n            /* \"#utility.yul\":545:567   */\n          swap1\n          pop\n            /* \"#utility.yul\":612:613   */\n          0x01\n            /* \"#utility.yul\":606:610   */\n          dup3\n            /* \"#utility.yul\":602:614   */\n          and\n            /* \"#utility.yul\":633:651   */\n          dup1\n            /* \"#utility.yul\":623:704   */\n          tag_30\n          jumpi\n            /* \"#utility.yul\":689:693   */\n          0x7f\n            /* \"#utility.yul\":681:687   */\n          dup3\n            /* \"#utility.yul\":677:694   */\n          and\n            /* \"#utility.yul\":667:694   */\n          swap2\n          pop\n            /* \"#utility.yul\":623:704   */\n        tag_30:\n            /* \"#utility.yul\":751:753   */\n          0x20\n            /* \"#utility.yul\":743:749   */\n          dup3\n            /* \"#utility.yul\":740:754   */\n          lt\n            /* \"#utility.yul\":720:738   */\n          dup2\n            /* \"#utility.yul\":717:755   */\n          sub\n            /* \"#utility.yul\":714:798   */\n          tag_31\n          jumpi\n            /* \"#utility.yul\":770:788   */\n          tag_32\n          tag_7\n          jump\t// in\n        tag_32:\n            /* \"#utility.yul\":714:798   */\n        tag_31:\n            /* \"#utility.yul\":535:804   */\n          pop\n            /* \"#utility.yul\":484:804   */\n          swap2\n          swap1\n          pop\n          jump\t// out\n            /* \"#utility.yul\":810:951   */\n        tag_9:\n            /* \"#utility.yul\":859:863   */\n          0x00\n            /* \"#utility.yul\":882:885   */\n          dup2\n            /* \"#utility.yul\":874:885   */\n          swap1\n          pop\n            /* \"#utility.yul\":905:908   */\n          dup2\n            /* \"#utility.yul\":902:903   */\n          0x00\n            /* \"#utility.yul\":895:909   */\n          mstore\n            /* \"#utility.yul\":939:943   */\n          0x20\n            /* \"#utility.yul\":936:937   */\n          0x00\n            /* \"#utility.yul\":926:944   */\n          keccak256\n            /* \"#utility.yul\":918:944   */\n          swap1\n          pop\n            /* \"#utility.yul\":810:951   */\n          swap2\n          swap1\n          pop\n          jump\t// out\n            /* \"#utility.yul\":957:1050   */\n        tag_10:\n            /* \"#utility.yul\":994:1000   */\n          0x00\n            /* \"#utility.yul\":1041:1043   */\n          0x20\n            /* \"#utility.yul\":1036:1038   */\n          0x1f\n            /* \"#utility.yul\":1029:1034   */\n          dup4\n            /* \"#utility.yul\":1025:1039   */\n          add\n            /* \"#utility.yul\":1021:1044   */\n          div\n            /* \"#utility.yul\":1011:1044   */\n          swap1\n          pop\n            /* \"#utility.yul\":957:1050   */\n          swap2\n          swap1\n          pop\n          jump\t// out\n            /* \"#utility.yul\":1056:1163   */\n        tag_11:\n            /* \"#utility.yul\":1100:1108   */\n          0x00\n            /* \"#utility.yul\":1150:1155   */\n          dup3\n            /* \"#utility.yul\":1144:1148   */\n          dup3\n            /* \"#utility.yul\":1140:1156   */\n          shl\n            /* \"#utility.yul\":1119:1156   */\n          swap1\n          pop\n            /* \"#utility.yul\":1056:1163   */\n          swap3\n          swap2\n          pop\n          pop\n          jump\t// out\n            /* \"#utility.yul\":1169:1562   */\n        tag_12:\n            /* \"#utility.yul\":1238:1244   */\n          0x00\n            /* \"#utility.yul\":1288:1289   */\n          0x08\n            /* \"#utility.yul\":1276:1286   */\n          dup4\n            /* \"#utility.yul\":1272:1290   */\n          mul\n            /* \"#utility.yul\":1311:1408   */\n          tag_37\n            /* \"#utility.yul\":1341:1407   */\n          0xffffffffffffffffffffffffffffffffffffffffffffffffffffffffffffffff\n            /* \"#utility.yul\":1330:1339   */\n          dup3\n            /* \"#utility.yul\":1311:1408   */\n          tag_11\n          jump\t// in\n        tag_37:\n            /* \"#utility.yul\":1429:1468   */\n          tag_38\n            /* \"#utility.yul\":1459:1467   */\n          dup7\n            /* \"#utility.yul\":1448:1457   */\n          dup4\n            /* \"#utility.yul\":1429:1468   */\n          tag_11\n          jump\t// in\n        tag_38:\n            /* \"#utility.yul\":1417:1468   */\n          swap6\n          pop\n            /* \"#utility.yul\":1501:1505   */\n          dup1\n            /* \"#utility.yul\":1497:1506   */\n          not\n            /* \"#utility.yul\":1490:1495   */\n          dup5\n            /* \"#utility.yul\":1486:1507   */\n          and\n            /* \"#utility.yul\":1477:1507   */\n          swap4\n          pop\n            /* \"#utility.yul\":1550:1554   */\n          dup1\n            /* \"#utility.yul\":1540:1548   */\n          dup7\n            /* \"#utility.yul\":1536:1555   */\n          and\n            /* \"#utility.yul\":1529:1534   */\n          dup5\n            /* \"#utility.yul\":1526:1556   */\n          or\n            /* \"#utility.yul\":1516:1556   */\n          swap3\n          pop\n            /* \"#utility.yul\":1245:1562   */\n          pop\n          pop\n            /* \"#utility.yul\":1169:1562   */\n          swap4\n          swap3\n          pop\n          pop\n          pop\n          jump\t// out\n            /* \"#utility.yul\":1568:1645   */\n        tag_13:\n            /* \"#utility.yul\":1605:1612   */\n          0x00\n            /* \"#utility.yul\":1634:1639   */\n          dup2\n            /* \"#utility.yul\":1623:1639   */\n          swap1\n          pop\n            /* \"#utility.yul\":1568:1645   */\n          swap2\n          swap1\n          pop\n          jump\t// out\n            /* \"#utility.yul\":1651:1711   */\n        tag_14:\n            /* \"#utility.yul\":1679:1682   */\n          0x00\n            /* \"#utility.yul\":1700:1705   */\n          dup2\n            /* \"#utility.yul\":1693:1705   */\n          swap1\n          pop\n            /* \"#utility.yul\":1651:1711   */\n          swap2\n          swap1\n          pop\n          jump\t// out\n            /* \"#utility.yul\":1717:1859   */\n        tag_15:\n            /* \"#utility.yul\":1767:1776   */\n          0x00\n            /* \"#utility.yul\":1800:1853   */\n          tag_42\n            /* \"#utility.yul\":1818:1852   */\n          tag_43\n            /* \"#utility.yul\":1827:1851   */\n          tag_44\n            /* \"#utility.yul\":1845:1850   */\n          dup5\n            /* \"#utility.yul\":1827:1851   */\n          tag_13\n          jump\t// in\n        tag_44:\n            /* \"#utility.yul\":1818:1852   */\n          tag_14\n          jump\t// in\n        tag_43:\n            /* \"#utility.yul\":1800:1853   */\n          tag_13\n          jump\t// in\n        tag_42:\n            /* \"#utility.yul\":1787:1853   */\n          swap1\n          pop\n            /* \"#utility.yul\":1717:1859   */\n          swap2\n          swap1\n          pop\n          jump\t// out\n            /* \"#utility.yul\":1865:1940   */\n        tag_16:\n            /* \"#utility.yul\":1908:1911   */\n          0x00\n            /* \"#utility.yul\":1929:1934   */\n          dup2\n            /* \"#utility.yul\":1922:1934   */\n          swap1\n          pop\n            /* \"#utility.yul\":1865:1940   */\n          swap2\n          swap1\n          pop\n          jump\t// out\n            /* \"#utility.yul\":1946:2215   */\n        tag_17:\n            /* \"#utility.yul\":2056:2095   */\n          tag_47\n            /* \"#utility.yul\":2087:2094   */\n          dup4\n            /* \"#utility.yul\":2056:2095   */\n          tag_15\n          jump\t// in\n        tag_47:\n            /* \"#utility.yul\":2117:2208   */\n          tag_48\n            /* \"#utility.yul\":2166:2207   */\n          tag_49\n            /* \"#utility.yul\":2190:2206   */\n          dup3\n            /* \"#utility.yul\":2166:2207   */\n          tag_16\n          jump\t// in\n        tag_49:\n            /* \"#utility.yul\":2158:2164   */\n          dup5\n            /* \"#utility.yul\":2151:2155   */\n          dup5\n            /* \"#utility.yul\":2145:2156   */\n          sload\n            /* \"#utility.yul\":2117:2208   */\n          tag_12\n          jump\t// in\n        tag_48:\n            /* \"#utility.yul\":2111:2115   */\n          dup3\n            /* \"#utility.yul\":2104:2209   */\n          sstore\n            /* \"#utility.yul\":2022:2215   */\n          pop\n            /* \"#utility.yul\":1946:2215   */\n          pop\n          pop\n          pop\n          jump\t// out\n            /* \"#utility.yul\":2221:2294   */\n        tag_18:\n            /* \"#utility.yul\":2266:2269   */\n          0x00\n            /* \"#utility.yul\":2287:2288   */\n          0x00\n            /* \"#utility.yul\":2280:2288   */\n          swap1\n          pop\n            /* \"#utility.yul\":2221:2294   */\n          swap1\n          jump\t// out\n            /* \"#utility.yul\":2300:2489   */\n        tag_19:\n            /* \"#utility.yul\":2377:2409   */\n          tag_52\n          tag_18\n          jump\t// in\n        tag_52:\n            /* \"#utility.yul\":2418:2483   */\n          tag_53\n            /* \"#utility.yul\":2476:2482   */\n          dup2\n            /* \"#utility.yul\":2468:2474   */\n          dup5\n            /* \"#utility.yul\":2462:2466   */\n          dup5\n            /* \"#utility.yul\":2418:2483   */\n          tag_17\n          jump\t// in\n        tag_53:\n            /* \"#utility.yul\":2353:2489   */\n          pop\n            /* \"#utility.yul\":2300:2489   */\n          pop\n          pop\n          jump\t// out\n            /* \"#utility.yul\":2495:2681   */\n        tag_20:\n            /* \"#utility.yul\":2555:2675   */\n        tag_55:\n            /* \"#utility.yul\":2572:2575   */\n          dup2\n            /* \"#utility.yul\":2565:2570   */\n          dup2\n            /* \"#utility.yul\":2562:2576   */\n          lt\n            /* \"#utility.yul\":2555:2675   */\n          iszero\n          tag_57\n          jumpi\n            /* \"#utility.yul\":2626:2665   */\n          tag_58\n            /* \"#utility.yul\":2663:2664   */\n          0x00\n            /* \"#utility.yul\":2656:2661   */\n          dup3\n            /* \"#utility.yul\":2626:2665   */\n          tag_19\n          jump\t// in\n        tag_58:\n            /* \"#utility.yul\":2599:2600   */\n          0x01\n            /* \"#utility.yul\":2592:2597   */\n          dup2\n            /* \"#utility.yul\":2588:2601   */\n          add\n            /* \"#utility.yul\":2579:2601   */\n          swap1\n          pop\n            /* \"#utility.yul\":2555:2675   */\n          jump(tag_55)\n        tag_57:\n            /* \"#utility.yul\":2495:2681   */\n          pop\n          pop\n          jump\t// out\n            /* \"#utility.yul\":2687:3230   */\n        tag_21:\n            /* \"#utility.yul\":2788:2790   */\n          0x1f\n            /* \"#utility.yul\":2783:2786   */\n          dup3\n            /* \"#utility.yul\":2780:2791   */\n          gt\n            /* \"#utility.yul\":2777:3223   */\n          iszero\n          tag_60\n          jumpi\n            /* \"#utility.yul\":2822:2860   */\n          tag_61\n            /* \"#utility.yul\":2854:2859   */\n          dup2\n            /* \"#utility.yul\":2822:2860   */\n          tag_9\n          jump\t// in\n        tag_61:\n            /* \"#utility.yul\":2906:2935   */\n          tag_62\n            /* \"#utility.yul\":2924:2934   */\n          dup5\n            /* \"#utility.yul\":2906:2935   */\n          tag_10\n          jump\t// in\n        tag_62:\n            /* \"#utility.yul\":2896:2904   */\n          dup2\n            /* \"#utility.yul\":2892:2936   */\n          add\n            /* \"#utility.yul\":3089:3091   */\n          0x20\n            /* \"#utility.yul\":3077:3087   */\n          dup6\n            /* \"#utility.yul\":3074:3092   */\n          lt\n            /* \"#utility.yul\":3071:3120   */\n          iszero\n          tag_63\n          jumpi\n            /* \"#utility.yul\":3110:3118   */\n          dup2\n            /* \"#utility.yul\":3095:3118   */\n          swap1\n          pop\n            /* \"#utility.yul\":3071:3120   */\n        tag_63:\n            /* \"#utility.yul\":3133:3213   */\n          tag_64\n            /* \"#utility.yul\":3189:3211   */\n          tag_65\n            /* \"#utility.yul\":3207:3210   */\n          dup6\n            /* \"#utility.yul\":3189:3211   */\n          tag_10\n          jump\t// in\n        tag_65:\n            /* \"#utility.yul\":3179:3187   */\n          dup4\n            /* \"#utility.yul\":3175:3212   */\n          add\n            /* \"#utility.yul\":3162:3173   */\n          dup3\n            /* \"#utility.yul\":3133:3213   */\n          tag_20\n          jump\t// in\n        tag_64:\n            /* \"#utility.yul\":2792:3223   */\n          pop\n          pop\n            /* \"#utility.yul\":2777:3223   */\n        tag_60:\n            /* \"#utility.yul\":2687:3230   */\n          pop\n          pop\n          pop\n          jump\t// out\n            /* \"#utility.yul\":3236:3353   */\n        tag_22:\n            /* \"#utility.yul\":3290:3298   */\n          0x00\n            /* \"#utility.yul\":3340:3345   */\n          dup3\n            /* \"#utility.yul\":3334:3338   */\n          dup3\n            /* \"#utility.yul\":3330:3346   */\n          shr\n            /* \"#utility.yul\":3309:3346   */\n          swap1\n          pop\n            /* \"#utility.yul\":3236:3353   */\n          swap3\n          swap2\n          pop\n          pop\n          jump\t// out\n            /* \"#utility.yul\":3359:3528   */\n        tag_23:\n            /* \"#utility.yul\":3403:3409   */\n          0x00\n            /* \"#utility.yul\":3436:3487   */\n          tag_68\n            /* \"#utility.yul\":3484:3485   */\n          0x00\n            /* \"#utility.yul\":3480:3486   */\n          not\n            /* \"#utility.yul\":3472:3477   */\n          dup5\n            /* \"#utility.yul\":3469:3470   */\n          0x08\n            /* \"#utility.yul\":3465:3478   */\n          mul\n            /* \"#utility.yul\":3436:3487   */\n          tag_22\n          jump\t// in\n        tag_68:\n            /* \"#utility.yul\":3432:3488   */\n          not\n            /* \"#utility.yul\":3517:3521   */\n          dup1\n            /* \"#utility.yul\":3511:3515   */\n          dup4\n            /* \"#utility.yul\":3507:3522   */\n          and\n            /* \"#utility.yul\":3497:3522   */\n          swap2\n          pop\n            /* \"#utility.yul\":3410:3528   */\n          pop\n            /* \"#utility.yul\":3359:3528   */\n          swap3\n          swap2\n          pop\n          pop\n          jump\t// out\n            /* \"#utility.yul\":3533:3828   */\n        tag_24:\n            /* \"#utility.yul\":3609:3613   */\n          0x00\n            /* \"#utility.yul\":3755:3784   */\n          tag_70\n            /* \"#utility.yul\":3780:3783   */\n          dup4\n            /* \"#utility.yul\":3774:3778   */\n          dup4\n            /* \"#utility.yul\":3755:3784   */\n          tag_23\n          jump\t// in\n        tag_70:\n            /* \"#utility.yul\":3747:3784   */\n          swap2\n          pop\n            /* \"#utility.yul\":3817:3820   */\n          dup3\n            /* \"#utility.yul\":3814:3815   */\n          0x02\n            /* \"#utility.yul\":3810:3821   */\n          mul\n            /* \"#utility.yul\":3804:3808   */\n          dup3\n            /* \"#utility.yul\":3801:3822   */\n          or\n            /* \"#utility.yul\":3793:3822   */\n          swap1\n          pop\n            /* \"#utility.yul\":3533:3828   */\n          swap3\n          swap2\n          pop\n          pop\n          jump\t// out\n            /* \"#utility.yul\":3833:5228   */\n        tag_2:\n            /* \"#utility.yul\":3950:3987   */\n          tag_72\n            /* \"#utility.yul\":3983:3986   */\n          dup3\n            /* \"#utility.yul\":3950:3987   */\n          tag_5\n          jump\t// in\n        tag_72:\n            /* \"#utility.yul\":4052:4070   */\n          0xffffffffffffffff\n            /* \"#utility.yul\":4044:4050   */\n          dup2\n            /* \"#utility.yul\":4041:4071   */\n          gt\n            /* \"#utility.yul\":4038:4094   */\n          iszero\n          tag_73\n          jumpi\n            /* \"#utility.yul\":4074:4092   */\n          tag_74\n          tag_6\n          jump\t// in\n        tag_74:\n            /* \"#utility.yul\":4038:4094   */\n        tag_73:\n            /* \"#utility.yul\":4118:4156   */\n          tag_75\n            /* \"#utility.yul\":4150:4154   */\n          dup3\n            /* \"#utility.yul\":4144:4155   */\n          sload\n            /* \"#utility.yul\":4118:4156   */\n          tag_8\n          jump\t// in\n        tag_75:\n            /* \"#utility.yul\":4203:4270   */\n          tag_76\n            /* \"#utility.yul\":4263:4269   */\n          dup3\n            /* \"#utility.yul\":4255:4261   */\n          dup3\n            /* \"#utility.yul\":4249:4253   */\n          dup6\n            /* \"#utility.yul\":4203:4270   */\n          tag_21\n          jump\t// in\n        tag_76:\n            /* \"#utility.yul\":4297:4298   */\n          0x00\n            /* \"#utility.yul\":4321:4325   */\n          0x20\n            /* \"#utility.yul\":4308:4325   */\n          swap1\n          pop\n            /* \"#utility.yul\":4353:4355   */\n          0x1f\n            /* \"#utility.yul\":4345:4351   */\n          dup4\n            /* \"#utility.yul\":4342:4356   */\n          gt\n            /* \"#utility.yul\":4370:4371   */\n          0x01\n            /* \"#utility.yul\":4365:4983   */\n          dup2\n          eq\n          tag_78\n          jumpi\n            /* \"#utility.yul\":5027:5028   */\n          0x00\n            /* \"#utility.yul\":5044:5050   */\n          dup5\n            /* \"#utility.yul\":5041:5118   */\n          iszero\n          tag_79\n          jumpi\n            /* \"#utility.yul\":5093:5102   */\n          dup3\n            /* \"#utility.yul\":5088:5091   */\n          dup8\n            /* \"#utility.yul\":5084:5103   */\n          add\n            /* \"#utility.yul\":5078:5104   */\n          mload\n            /* \"#utility.yul\":5069:5104   */\n          swap1\n          pop\n            /* \"#utility.yul\":5041:5118   */\n        tag_79:\n            /* \"#utility.yul\":5144:5211   */\n          tag_80\n            /* \"#utility.yul\":5204:5210   */\n          dup6\n            /* \"#utility.yul\":5197:5202   */\n          dup3\n            /* \"#utility.yul\":5144:5211   */\n          tag_24\n          jump\t// in\n        tag_80:\n            /* \"#utility.yul\":5138:5142   */\n          dup7\n            /* \"#utility.yul\":5131:5212   */\n          sstore\n            /* \"#utility.yul\":5000:5222   */\n          pop\n            /* \"#utility.yul\":4335:5222   */\n          jump(tag_77)\n            /* \"#utility.yul\":4365:4983   */\n        tag_78:\n            /* \"#utility.yul\":4417:4421   */\n          0x1f\n            /* \"#utility.yul\":4413:4422   */\n          not\n            /* \"#utility.yul\":4405:4411   */\n          dup5\n            /* \"#utility.yul\":4401:4423   */\n          and\n            /* \"#utility.yul\":4451:4488   */\n          tag_81\n            /* \"#utility.yul\":4483:4487   */\n          dup7\n            /* \"#utility.yul\":4451:4488   */\n          tag_9\n          jump\t// in\n        tag_81:\n            /* \"#utility.yul\":4510:4511   */\n          0x00\n            /* \"#utility.yul\":4524:4732   */\n        tag_82:\n            /* \"#utility.yul\":4538:4545   */\n          dup3\n            /* \"#utility.yul\":4535:4536   */\n          dup2\n            /* \"#utility.yul\":4532:4546   */\n          lt\n            /* \"#utility.yul\":4524:4732   */\n          iszero\n          tag_84\n          jumpi\n            /* \"#utility.yul\":4617:4626   */\n          dup5\n            /* \"#utility.yul\":4612:4615   */\n          dup10\n            /* \"#utility.yul\":4608:4627   */\n          add\n            /* \"#utility.yul\":4602:4628   */\n          mload\n            /* \"#utility.yul\":4594:4600   */\n          dup3\n            /* \"#utility.yul\":4587:4629   */\n          sstore\n            /* \"#utility.yul\":4668:4669   */\n          0x01\n            /* \"#utility.yul\":4660:4666   */\n          dup3\n            /* \"#utility.yul\":4656:4670   */\n          add\n            /* \"#utility.yul\":4646:4670   */\n          swap2\n          pop\n            /* \"#utility.yul\":4715:4717   */\n          0x20\n            /* \"#utility.yul\":4704:4713   */\n          dup6\n            /* \"#utility.yul\":4700:4718   */\n          add\n            /* \"#utility.yul\":4687:4718   */\n          swap5\n          pop\n            /* \"#utility.yul\":4561:4565   */\n          0x20\n            /* \"#utility.yul\":4558:4559   */\n          dup2\n            /* \"#utility.yul\":4554:4566   */\n          add\n            /* \"#utility.yul\":4549:4566   */\n          swap1\n          pop\n            /* \"#utility.yul\":4524:4732   */\n          jump(tag_82)\n        tag_84:\n            /* \"#utility.yul\":4760:4766   */\n          dup7\n            /* \"#utility.yul\":4751:4758   */\n          dup4\n            /* \"#utility.yul\":4748:4767   */\n          lt\n            /* \"#utility.yul\":4745:4924   */\n          iszero\n          tag_85\n          jumpi\n            /* \"#utility.yul\":4818:4827   */\n          dup5\n            /* \"#utility.yul\":4813:4816   */\n          dup10\n            /* \"#utility.yul\":4809:4828   */\n          add\n            /* \"#utility.yul\":4803:4829   */\n          mload\n            /* \"#utility.yul\":4861:4909   */\n          tag_86\n            /* \"#utility.yul\":4903:4907   */\n          0x1f\n            /* \"#utility.yul\":4895:4901   */\n          dup10\n            /* \"#utility.yul\":4891:4908   */\n          and\n            /* \"#utility.yul\":4880:4889   */\n          dup3\n            /* \"#utility.yul\":4861:4909   */\n          tag_23\n          jump\t// in\n        tag_86:\n            /* \"#utility.yul\":4853:4859   */\n          dup4\n            /* \"#utility.yul\":4846:4910   */\n          sstore\n            /* \"#utility.yul\":4768:4924   */\n          pop\n            /* \"#utility.yul\":4745:4924   */\n        tag_85:\n            /* \"#utility.yul\":4970:4971   */\n          0x01\n            /* \"#utility.yul\":4966:4967   */\n          0x02\n            /* \"#utility.yul\":4958:4964   */\n          dup9\n            /* \"#utility.yul\":4954:4968   */\n          mul\n            /* \"#utility.yul\":4950:4972   */\n          add\n            /* \"#utility.yul\":4944:4948   */\n          dup9\n            /* \"#utility.yul\":4937:4973   */\n          sstore\n            /* \"#utility.yul\":4372:4983   */\n          pop\n          pop\n          pop\n            /* \"#utility.yul\":4335:5222   */\n        tag_77:\n          pop\n            /* \"#utility.yul\":3925:5228   */\n          pop\n          pop\n          pop\n            /* \"#utility.yul\":3833:5228   */\n          pop\n          pop\n          jump\t// out\n            /* \"test/test.sol\":102:901  contract HelloWorld{... */\n        tag_4:\n          dataSize(sub_0)\n          dup1\n          dataOffset(sub_0)\n          0x00\n          codecopy\n          0x00\n          return\n        stop\n\n        sub_0: assembly {\n                /* \"test/test.sol\":102:901  contract HelloWorld{... */\n              mstore(0x40, 0x80)\n              callvalue\n              dup1\n              iszero\n              tag_1\n              jumpi\n              revert(0x00, 0x00)\n            tag_1:\n              pop\n              jumpi(tag_2, lt(calldatasize, 0x04))\n              shr(0xe0, calldataload(0x00))\n              dup1\n              0x42257b31\n              eq\n              tag_3\n              jumpi\n              dup1\n              0x5d641b89\n              eq\n              tag_4\n              jumpi\n            tag_2:\n              revert(0x00, 0x00)\n                /* \"test/test.sol\":337:571  function sayHello(uint256 _id) public view  returns(string memory){... */\n            tag_3:\n              tag_5\n              0x04\n              dup1\n              calldatasize\n              sub\n              dup2\n              add\n              swap1\n              tag_6\n              swap2\n              swap1\n              tag_7\n              jump\t// in\n            tag_6:\n              tag_8\n              jump\t// in\n            tag_5:\n              mload(0x40)\n              tag_9\n              swap2\n              swap1\n              tag_10\n              jump\t// in\n            tag_9:\n              mload(0x40)\n              dup1\n              swap2\n              sub\n              swap1\n              return\n                /* \"test/test.sol\":579:739  function setHelloWorld(string memory _str, uint256 _id) public {... */\n            tag_4:\n              tag_11\n              0x04\n              dup1\n              calldatasize\n              sub\n              dup2\n              add\n              swap1\n              tag_12\n              swap2\n              swap1\n              tag_13\n              jump\t// in\n            tag_12:\n              tag_14\n              jump\t// in\n            tag_11:\n              stop\n                /* \"test/test.sol\":337:571  function sayHello(uint256 _id) public view  returns(string memory){... */\n            tag_8:\n                /* \"test/test.sol\":389:402  string memory */\n              0x60\n                /* \"test/test.sol\":450:453  0x0 */\n              0x00\n                /* \"test/test.sol\":417:454  infoMapping[_id].addr == address(0x0) */\n              0xffffffffffffffffffffffffffffffffffffffff\n              and\n                /* \"test/test.sol\":417:428  infoMapping */\n              0x01\n                /* \"test/test.sol\":417:433  infoMapping[_id] */\n              0x00\n                /* \"test/test.sol\":429:432  _id */\n              dup5\n                /* \"test/test.sol\":417:433  infoMapping[_id] */\n              dup2\n              mstore\n              0x20\n              add\n              swap1\n              dup2\n              mstore\n              0x20\n              add\n              0x00\n              keccak256\n                /* \"test/test.sol\":417:438  infoMapping[_id].addr */\n              0x02\n              add\n              0x00\n              swap1\n              sload\n              swap1\n              0x0100\n              exp\n              swap1\n              div\n              0xffffffffffffffffffffffffffffffffffffffff\n              and\n                /* \"test/test.sol\":417:454  infoMapping[_id].addr == address(0x0) */\n              0xffffffffffffffffffffffffffffffffffffffff\n              and\n              sub\n                /* \"test/test.sol\":414:504  if(infoMapping[_id].addr == address(0x0)){... */\n              tag_16\n              jumpi\n                /* \"test/test.sol\":477:492  addInfo(strVar) */\n              tag_17\n                /* \"test/test.sol\":485:491  strVar */\n              0x00\n                /* \"test/test.sol\":477:492  addInfo(strVar) */\n              dup1\n              sload\n              tag_18\n              swap1\n              tag_19\n              jump\t// in\n            tag_18:\n              dup1\n              0x1f\n              add\n              0x20\n              dup1\n              swap2\n              div\n              mul\n              0x20\n              add\n              mload(0x40)\n              swap1\n              dup2\n              add\n              0x40\n              mstore\n              dup1\n              swap3\n              swap2\n              swap1\n              dup2\n              dup2\n              mstore\n              0x20\n              add\n              dup3\n              dup1\n              sload\n              tag_20\n              swap1\n              tag_19\n              jump\t// in\n            tag_20:\n              dup1\n              iszero\n              tag_21\n              jumpi\n              dup1\n              0x1f\n              lt\n              tag_22\n              jumpi\n              0x0100\n              dup1\n              dup4\n              sload\n              div\n              mul\n              dup4\n              mstore\n              swap2\n              0x20\n              add\n              swap2\n              jump(tag_21)\n            tag_22:\n              dup3\n              add\n              swap2\n              swap1\n              0x00\n              mstore\n              keccak256(0x00, 0x20)\n              swap1\n            tag_23:\n              dup2\n              sload\n              dup2\n              mstore\n              swap1\n              0x01\n              add\n              swap1\n              0x20\n              add\n              dup1\n              dup4\n              gt\n              tag_23\n              jumpi\n              dup3\n              swap1\n              sub\n              0x1f\n              and\n              dup3\n              add\n              swap2\n            tag_21:\n              pop\n              pop\n              pop\n              pop\n              pop\n                /* \"test/test.sol\":477:484  addInfo */\n              tag_24\n                /* \"test/test.sol\":477:492  addInfo(strVar) */\n              jump\t// in\n            tag_17:\n                /* \"test/test.sol\":470:492  return addInfo(strVar) */\n              swap1\n              pop\n              jump(tag_15)\n                /* \"test/test.sol\":414:504  if(infoMapping[_id].addr == address(0x0)){... */\n            tag_16:\n                /* \"test/test.sol\":531:563  addInfo(infoMapping[_id].pharse) */\n              tag_25\n                /* \"test/test.sol\":539:550  infoMapping */\n              0x01\n                /* \"test/test.sol\":539:555  infoMapping[_id] */\n              0x00\n                /* \"test/test.sol\":551:554  _id */\n              dup5\n                /* \"test/test.sol\":539:555  infoMapping[_id] */\n              dup2\n              mstore\n              0x20\n              add\n              swap1\n              dup2\n              mstore\n              0x20\n              add\n              0x00\n              keccak256\n                /* \"test/test.sol\":539:562  infoMapping[_id].pharse */\n              0x00\n              add\n                /* \"test/test.sol\":531:563  addInfo(infoMapping[_id].pharse) */\n              dup1\n              sload\n              tag_26\n              swap1\n              tag_19\n              jump\t// in\n            tag_26:\n              dup1\n              0x1f\n              add\n              0x20\n              dup1\n              swap2\n              div\n              mul\n              0x20\n              add\n              mload(0x40)\n              swap1\n              dup2\n              add\n              0x40\n              mstore\n              dup1\n              swap3\n              swap2\n              swap1\n              dup2\n              dup2\n              mstore\n              0x20\n              add\n              dup3\n              dup1\n              sload\n              tag_27\n              swap1\n              tag_19\n              jump\t// in\n            tag_27:\n              dup1\n              iszero\n              tag_28\n              jumpi\n              dup1\n              0x1f\n              lt\n              tag_29\n              jumpi\n              0x0100\n              dup1\n              dup4\n              sload\n              div\n              mul\n              dup4\n              mstore\n              swap2\n              0x20\n              add\n              swap2\n              jump(tag_28)\n            tag_29:\n              dup3\n              add\n              swap2\n              swap1\n              0x00\n              mstore\n              keccak256(0x00, 0x20)\n              swap1\n            tag_30:\n              dup2\n              sload\n              dup2\n              mstore\n              swap1\n              0x01\n              add\n              swap1\n              0x20\n              add\n              dup1\n              dup4\n              gt\n              tag_30\n              jumpi\n              dup3\n              swap1\n              sub\n              0x1f\n              and\n              dup3\n              add\n              swap2\n            tag_28:\n              pop\n              pop\n              pop\n              pop\n              pop\n                /* \"test/test.sol\":531:538  addInfo */\n              tag_24\n                /* \"test/test.sol\":531:563  addInfo(infoMapping[_id].pharse) */\n              jump\t// in\n            tag_25:\n                /* \"test/test.sol\":524:563  return addInfo(infoMapping[_id].pharse) */\n              swap1\n              pop\n                /* \"test/test.sol\":337:571  function sayHello(uint256 _id) public view  returns(string memory){... */\n            tag_15:\n              swap2\n              swap1\n              pop\n              jump\t// out\n                /* \"test/test.sol\":579:739  function setHelloWorld(string memory _str, uint256 _id) public {... */\n            tag_14:\n                /* \"test/test.sol\":653:669  Info memory info */\n              0x00\n                /* \"test/test.sol\":672:697  Info(_str,_id,msg.sender) */\n              mload(0x40)\n              dup1\n              0x60\n              add\n              0x40\n              mstore\n              dup1\n                /* \"test/test.sol\":677:681  _str */\n              dup5\n                /* \"test/test.sol\":672:697  Info(_str,_id,msg.sender) */\n              dup2\n              mstore\n              0x20\n              add\n                /* \"test/test.sol\":682:685  _id */\n              dup4\n                /* \"test/test.sol\":672:697  Info(_str,_id,msg.sender) */\n              dup2\n              mstore\n              0x20\n              add\n                /* \"test/test.sol\":686:696  msg.sender */\n              caller\n                /* \"test/test.sol\":672:697  Info(_str,_id,msg.sender) */\n              0xffffffffffffffffffffffffffffffffffffffff\n              and\n              dup2\n              mstore\n              pop\n                /* \"test/test.sol\":653:697  Info memory info = Info(_str,_id,msg.sender) */\n              swap1\n              pop\n                /* \"test/test.sol\":727:731  info */\n              dup1\n                /* \"test/test.sol\":708:719  infoMapping */\n              0x01\n                /* \"test/test.sol\":708:724  infoMapping[_id] */\n              0x00\n                /* \"test/test.sol\":720:723  _id */\n              dup5\n                /* \"test/test.sol\":708:724  infoMapping[_id] */\n              dup2\n              mstore\n              0x20\n              add\n              swap1\n              dup2\n              mstore\n              0x20\n              add\n              0x00\n              keccak256\n                /* \"test/test.sol\":708:731  infoMapping[_id] = info */\n              0x00\n              dup3\n              add\n              mload\n              dup2\n              0x00\n              add\n              swap1\n              dup2\n              tag_32\n              swap2\n              swap1\n              tag_33\n              jump\t// in\n            tag_32:\n              pop\n              0x20\n              dup3\n              add\n              mload\n              dup2\n              0x01\n              add\n              sstore\n              0x40\n              dup3\n              add\n              mload\n              dup2\n              0x02\n              add\n              exp(0x0100, 0x00)\n              dup2\n              sload\n              dup2\n              0xffffffffffffffffffffffffffffffffffffffff\n              mul\n              not\n              and\n              swap1\n              dup4\n              0xffffffffffffffffffffffffffffffffffffffff\n              and\n              mul\n              or\n              swap1\n              sstore\n              pop\n              swap1\n              pop\n              pop\n                /* \"test/test.sol\":642:739  {... */\n              pop\n                /* \"test/test.sol\":579:739  function setHelloWorld(string memory _str, uint256 _id) public {... */\n              pop\n              pop\n              jump\t// out\n                /* \"test/test.sol\":747:898  function addInfo(string memory str) internal pure returns (string memory) {... */\n            tag_24:\n                /* \"test/test.sol\":806:819  string memory */\n              0x60\n                /* \"test/test.sol\":853:856  str */\n              dup2\n                /* \"test/test.sol\":839:890  string.concat(str, \" from jacky's smart contract!\") */\n              add(0x20, mload(0x40))\n              tag_35\n              swap2\n              swap1\n              tag_36\n              jump\t// in\n            tag_35:\n              mload(0x40)\n              0x20\n              dup2\n              dup4\n              sub\n              sub\n              dup2\n              mstore\n              swap1\n              0x40\n              mstore\n                /* \"test/test.sol\":832:890  return string.concat(str, \" from jacky's smart contract!\") */\n              swap1\n              pop\n                /* \"test/test.sol\":747:898  function addInfo(string memory str) internal pure returns (string memory) {... */\n              swap2\n              swap1\n              pop\n              jump\t// out\n                /* \"#utility.yul\":7:82   */\n            tag_37:\n                /* \"#utility.yul\":40:46   */\n              0x00\n                /* \"#utility.yul\":73:75   */\n              0x40\n                /* \"#utility.yul\":67:76   */\n              mload\n                /* \"#utility.yul\":57:76   */\n              swap1\n              pop\n                /* \"#utility.yul\":7:82   */\n              swap1\n              jump\t// out\n                /* \"#utility.yul\":88:205   */\n            tag_38:\n                /* \"#utility.yul\":197:198   */\n              0x00\n                /* \"#utility.yul\":194:195   */\n              0x00\n                /* \"#utility.yul\":187:199   */\n              revert\n                /* \"#utility.yul\":211:328   */\n            tag_39:\n                /* \"#utility.yul\":320:321   */\n              0x00\n                /* \"#utility.yul\":317:318   */\n              0x00\n                /* \"#utility.yul\":310:322   */\n              revert\n                /* \"#utility.yul\":334:411   */\n            tag_40:\n                /* \"#utility.yul\":371:378   */\n              0x00\n                /* \"#utility.yul\":400:405   */\n              dup2\n                /* \"#utility.yul\":389:405   */\n              swap1\n              pop\n                /* \"#utility.yul\":334:411   */\n              swap2\n              swap1\n              pop\n              jump\t// out\n                /* \"#utility.yul\":417:539   */\n            tag_41:\n                /* \"#utility.yul\":490:514   */\n              tag_82\n                /* \"#utility.yul\":508:513   */\n              dup2\n                /* \"#utility.yul\":490:514   */\n              tag_40\n              jump\t// in\n            tag_82:\n                /* \"#utility.yul\":483:488   */\n              dup2\n                /* \"#utility.yul\":480:515   */\n              eq\n                /* \"#utility.yul\":470:533   */\n              tag_83\n              jumpi\n                /* \"#utility.yul\":529:530   */\n              0x00\n                /* \"#utility.yul\":526:527   */\n              0x00\n                /* \"#utility.yul\":519:531   */\n              revert\n                /* \"#utility.yul\":470:533   */\n            tag_83:\n                /* \"#utility.yul\":417:539   */\n              pop\n              jump\t// out\n                /* \"#utility.yul\":545:684   */\n            tag_42:\n                /* \"#utility.yul\":591:596   */\n              0x00\n                /* \"#utility.yul\":629:635   */\n              dup2\n                /* \"#utility.yul\":616:636   */\n              calldataload\n                /* \"#utility.yul\":607:636   */\n              swap1\n              pop\n                /* \"#utility.yul\":645:678   */\n              tag_85\n                /* \"#utility.yul\":672:677   */\n              dup2\n                /* \"#utility.yul\":645:678   */\n              tag_41\n              jump\t// in\n            tag_85:\n                /* \"#utility.yul\":545:684   */\n              swap3\n              swap2\n              pop\n              pop\n              jump\t// out\n                /* \"#utility.yul\":690:1019   */\n            tag_7:\n                /* \"#utility.yul\":749:755   */\n              0x00\n                /* \"#utility.yul\":798:800   */\n              0x20\n                /* \"#utility.yul\":786:795   */\n              dup3\n                /* \"#utility.yul\":777:784   */\n              dup5\n                /* \"#utility.yul\":773:796   */\n              sub\n                /* \"#utility.yul\":769:801   */\n              slt\n                /* \"#utility.yul\":766:885   */\n              iszero\n              tag_87\n              jumpi\n                /* \"#utility.yul\":804:883   */\n              tag_88\n              tag_38\n              jump\t// in\n            tag_88:\n                /* \"#utility.yul\":766:885   */\n            tag_87:\n                /* \"#utility.yul\":924:925   */\n              0x00\n                /* \"#utility.yul\":949:1002   */\n              tag_89\n                /* \"#utility.yul\":994:1001   */\n              dup5\n                /* \"#utility.yul\":985:991   */\n              dup3\n                /* \"#utility.yul\":974:983   */\n              dup6\n                /* \"#utility.yul\":970:992   */\n              add\n                /* \"#utility.yul\":949:1002   */\n              tag_42\n              jump\t// in\n            tag_89:\n                /* \"#utility.yul\":939:1002   */\n              swap2\n              pop\n                /* \"#utility.yul\":895:1012   */\n              pop\n                /* \"#utility.yul\":690:1019   */\n              swap3\n              swap2\n              pop\n              pop\n              jump\t// out\n                /* \"#utility.yul\":1025:1124   */\n            tag_43:\n                /* \"#utility.yul\":1077:1083   */\n              0x00\n                /* \"#utility.yul\":1111:1116   */\n              dup2\n                /* \"#utility.yul\":1105:1117   */\n              mload\n                /* \"#utility.yul\":1095:1117   */\n              swap1\n              pop\n                /* \"#utility.yul\":1025:1124   */\n              swap2\n              swap1\n              pop\n              jump\t// out\n                /* \"#utility.yul\":1130:1299   */\n            tag_44:\n                /* \"#utility.yul\":1214:1225   */\n              0x00\n                /* \"#utility.yul\":1248:1254   */\n              dup3\n                /* \"#utility.yul\":1243:1246   */\n              dup3\n                /* \"#utility.yul\":1236:1255   */\n              mstore\n                /* \"#utility.yul\":1288:1292   */\n              0x20\n                /* \"#utility.yul\":1283:1286   */\n              dup3\n                /* \"#utility.yul\":1279:1293   */\n              add\n                /* \"#utility.yul\":1264:1293   */\n              swap1\n              pop\n                /* \"#utility.yul\":1130:1299   */\n              swap3\n              swap2\n              pop\n              pop\n              jump\t// out\n                /* \"#utility.yul\":1305:1444   */\n            tag_45:\n                /* \"#utility.yul\":1394:1400   */\n              dup3\n                /* \"#utility.yul\":1389:1392   */\n              dup2\n                /* \"#utility.yul\":1384:1387   */\n              dup4\n                /* \"#utility.yul\":1378:1401   */\n              mcopy\n                /* \"#utility.yul\":1435:1436   */\n              0x00\n                /* \"#utility.yul\":1426:1432   */\n              dup4\n                /* \"#utility.yul\":1421:1424   */\n              dup4\n                /* \"#utility.yul\":1417:1433   */\n              add\n                /* \"#utility.yul\":1410:1437   */\n              mstore\n                /* \"#utility.yul\":1305:1444   */\n              pop\n              pop\n              pop\n              jump\t// out\n                /* \"#utility.yul\":1450:1552   */\n            tag_46:\n                /* \"#utility.yul\":1491:1497   */\n              0x00\n                /* \"#utility.yul\":1542:1544   */\n              0x1f\n                /* \"#utility.yul\":1538:1545   */\n              not\n                /* \"#utility.yul\":1533:1535   */\n              0x1f\n                /* \"#utility.yul\":1526:1531   */\n              dup4\n                /* \"#utility.yul\":1522:1536   */\n              add\n                /* \"#utility.yul\":1518:1546   */\n              and\n                /* \"#utility.yul\":1508:1546   */\n              swap1\n              pop\n                /* \"#utility.yul\":1450:1552   */\n              swap2\n              swap1\n              pop\n              jump\t// out\n                /* \"#utility.yul\":1558:1935   */\n            tag_47:\n                /* \"#utility.yul\":1646:1649   */\n              0x00\n                /* \"#utility.yul\":1674:1713   */\n              tag_95\n                /* \"#utility.yul\":1707:1712   */\n              dup3\n                /* \"#utility.yul\":1674:1713   */\n              tag_43\n              jump\t// in\n            tag_95:\n                /* \"#utility.yul\":1729:1800   */\n              tag_96\n                /* \"#utility.yul\":1793:1799   */\n              dup2\n                /* \"#utility.yul\":1788:1791   */\n              dup6\n                /* \"#utility.yul\":1729:1800   */\n              tag_44\n              jump\t// in\n            tag_96:\n                /* \"#utility.yul\":1722:1800   */\n              swap4\n              pop\n                /* \"#utility.yul\":1809:1874   */\n              tag_97\n                /* \"#utility.yul\":1867:1873   */\n              dup2\n                /* \"#utility.yul\":1862:1865   */\n              dup6\n                /* \"#utility.yul\":1855:1859   */\n              0x20\n                /* \"#utility.yul\":1848:1853   */\n              dup7\n                /* \"#utility.yul\":1844:1860   */\n              add\n                /* \"#utility.yul\":1809:1874   */\n              tag_45\n              jump\t// in\n            tag_97:\n                /* \"#utility.yul\":1899:1928   */\n              tag_98\n                /* \"#utility.yul\":1921:1927   */\n              dup2\n                /* \"#utility.yul\":1899:1928   */\n              tag_46\n              jump\t// in\n            tag_98:\n                /* \"#utility.yul\":1894:1897   */\n              dup5\n                /* \"#utility.yul\":1890:1929   */\n              add\n                /* \"#utility.yul\":1883:1929   */\n              swap2\n              pop\n                /* \"#utility.yul\":1650:1935   */\n              pop\n                /* \"#utility.yul\":1558:1935   */\n              swap3\n              swap2\n              pop\n              pop\n              jump\t// out\n                /* \"#utility.yul\":1941:2254   */\n            tag_10:\n                /* \"#utility.yul\":2054:2058   */\n              0x00\n                /* \"#utility.yul\":2092:2094   */\n              0x20\n                /* \"#utility.yul\":2081:2090   */\n              dup3\n                /* \"#utility.yul\":2077:2095   */\n              add\n                /* \"#utility.yul\":2069:2095   */\n              swap1\n              pop\n                /* \"#utility.yul\":2141:2150   */\n              dup2\n                /* \"#utility.yul\":2135:2139   */\n              dup2\n                /* \"#utility.yul\":2131:2151   */\n              sub\n                /* \"#utility.yul\":2127:2128   */\n              0x00\n                /* \"#utility.yul\":2116:2125   */\n              dup4\n                /* \"#utility.yul\":2112:2129   */\n              add\n                /* \"#utility.yul\":2105:2152   */\n              mstore\n                /* \"#utility.yul\":2169:2247   */\n              tag_100\n                /* \"#utility.yul\":2242:2246   */\n              dup2\n                /* \"#utility.yul\":2233:2239   */\n              dup5\n                /* \"#utility.yul\":2169:2247   */\n              tag_47\n              jump\t// in\n            tag_100:\n                /* \"#utility.yul\":2161:2247   */\n              swap1\n              pop\n                /* \"#utility.yul\":1941:2254   */\n              swap3\n              swap2\n              pop\n              pop\n              jump\t// out\n                /* \"#utility.yul\":2260:2377   */\n            tag_48:\n                /* \"#utility.yul\":2369:2370   */\n              0x00\n                /* \"#utility.yul\":2366:2367   */\n              0x00\n                /* \"#utility.yul\":2359:2371   */\n              revert\n                /* \"#utility.yul\":2383:2500   */\n            tag_49:\n                /* \"#utility.yul\":2492:2493   */\n              0x00\n                /* \"#utility.yul\":2489:2490   */\n              0x00\n                /* \"#utility.yul\":2482:2494   */\n              revert\n                /* \"#utility.yul\":2506:2686   */\n            tag_50:\n                /* \"#utility.yul\":2554:2631   */\n              0x4e487b7100000000000000000000000000000000000000000000000000000000\n                /* \"#utility.yul\":2551:2552   */\n              0x00\n                /* \"#utility.yul\":2544:2632   */\n              mstore\n                /* \"#utility.yul\":2651:2655   */\n              0x41\n                /* \"#utility.yul\":2648:2649   */\n              0x04\n                /* \"#utility.yul\":2641:2656   */\n              mstore\n                /* \"#utility.yul\":2675:2679   */\n              0x24\n                /* \"#utility.yul\":2672:2673   */\n              0x00\n                /* \"#utility.yul\":2665:2680   */\n              revert\n                /* \"#utility.yul\":2692:2973   */\n            tag_51:\n                /* \"#utility.yul\":2775:2802   */\n              tag_105\n                /* \"#utility.yul\":2797:2801   */\n              dup3\n                /* \"#utility.yul\":2775:2802   */\n              tag_46\n              jump\t// in\n            tag_105:\n                /* \"#utility.yul\":2767:2773   */\n              dup2\n                /* \"#utility.yul\":2763:2803   */\n              add\n                /* \"#utility.yul\":2905:2911   */\n              dup2\n                /* \"#utility.yul\":2893:2903   */\n              dup2\n                /* \"#utility.yul\":2890:2912   */\n              lt\n                /* \"#utility.yul\":2869:2887   */\n              0xffffffffffffffff\n                /* \"#utility.yul\":2857:2867   */\n              dup3\n                /* \"#utility.yul\":2854:2888   */\n              gt\n                /* \"#utility.yul\":2851:2913   */\n              or\n                /* \"#utility.yul\":2848:2936   */\n              iszero\n              tag_106\n              jumpi\n                /* \"#utility.yul\":2916:2934   */\n              tag_107\n              tag_50\n              jump\t// in\n            tag_107:\n                /* \"#utility.yul\":2848:2936   */\n            tag_106:\n                /* \"#utility.yul\":2956:2966   */\n              dup1\n                /* \"#utility.yul\":2952:2954   */\n              0x40\n                /* \"#utility.yul\":2945:2967   */\n              mstore\n                /* \"#utility.yul\":2735:2973   */\n              pop\n                /* \"#utility.yul\":2692:2973   */\n              pop\n              pop\n              jump\t// out\n                /* \"#utility.yul\":2979:3108   */\n            tag_52:\n                /* \"#utility.yul\":3013:3019   */\n              0x00\n                /* \"#utility.yul\":3040:3060   */\n              tag_109\n              tag_37\n              jump\t// in\n            tag_109:\n                /* \"#utility.yul\":3030:3060   */\n              swap1\n              pop\n                /* \"#utility.yul\":3069:3102   */\n              tag_110\n                /* \"#utility.yul\":3097:3101   */\n              dup3\n                /* \"#utility.yul\":3089:3095   */\n              dup3\n                /* \"#utility.yul\":3069:3102   */\n              tag_51\n              jump\t// in\n            tag_110:\n                /* \"#utility.yul\":2979:3108   */\n              swap2\n              swap1\n              pop\n              jump\t// out\n                /* \"#utility.yul\":3114:3422   */\n            tag_53:\n                /* \"#utility.yul\":3176:3180   */\n              0x00\n                /* \"#utility.yul\":3266:3284   */\n              0xffffffffffffffff\n                /* \"#utility.yul\":3258:3264   */\n              dup3\n                /* \"#utility.yul\":3255:3285   */\n              gt\n                /* \"#utility.yul\":3252:3308   */\n              iszero\n              tag_112\n              jumpi\n                /* \"#utility.yul\":3288:3306   */\n              tag_113\n              tag_50\n              jump\t// in\n            tag_113:\n                /* \"#utility.yul\":3252:3308   */\n            tag_112:\n                /* \"#utility.yul\":3326:3355   */\n              tag_114\n                /* \"#utility.yul\":3348:3354   */\n              dup3\n                /* \"#utility.yul\":3326:3355   */\n              tag_46\n              jump\t// in\n            tag_114:\n                /* \"#utility.yul\":3318:3355   */\n              swap1\n              pop\n                /* \"#utility.yul\":3410:3414   */\n              0x20\n                /* \"#utility.yul\":3404:3408   */\n              dup2\n                /* \"#utility.yul\":3400:3415   */\n              add\n                /* \"#utility.yul\":3392:3415   */\n              swap1\n              pop\n                /* \"#utility.yul\":3114:3422   */\n              swap2\n              swap1\n              pop\n              jump\t// out\n                /* \"#utility.yul\":3428:3576   */\n            tag_54:\n                /* \"#utility.yul\":3526:3532   */\n              dup3\n                /* \"#utility.yul\":3521:3524   */\n              dup2\n                /* \"#utility.yul\":3516:3519   */\n              dup4\n                /* \"#utility.yul\":3503:3533   */\n              calldatacopy\n                /* \"#utility.yul\":3567:3568   */\n              0x00\n                /* \"#utility.yul\":3558:3564   */\n              dup4\n                /* \"#utility.yul\":3553:3556   */\n              dup4\n                /* \"#utility.yul\":3549:3565   */\n              add\n                /* \"#utility.yul\":3542:3569   */\n              mstore\n                /* \"#utility.yul\":3428:3576   */\n              pop\n              pop\n              pop\n              jump\t// out\n                /* \"#utility.yul\":3582:4007   */\n            tag_55:\n                /* \"#utility.yul\":3660:3665   */\n              0x00\n                /* \"#utility.yul\":3685:3751   */\n              tag_117\n                /* \"#utility.yul\":3701:3750   */\n              tag_118\n                /* \"#utility.yul\":3743:3749   */\n              dup5\n                /* \"#utility.yul\":3701:3750   */\n              tag_53\n              jump\t// in\n            tag_118:\n                /* \"#utility.yul\":3685:3751   */\n              tag_52\n              jump\t// in\n            tag_117:\n                /* \"#utility.yul\":3676:3751   */\n              swap1\n              pop\n                /* \"#utility.yul\":3774:3780   */\n              dup3\n                /* \"#utility.yul\":3767:3772   */\n              dup2\n                /* \"#utility.yul\":3760:3781   */\n              mstore\n                /* \"#utility.yul\":3812:3816   */\n              0x20\n                /* \"#utility.yul\":3805:3810   */\n              dup2\n                /* \"#utility.yul\":3801:3817   */\n              add\n                /* \"#utility.yul\":3850:3853   */\n              dup5\n                /* \"#utility.yul\":3841:3847   */\n              dup5\n                /* \"#utility.yul\":3836:3839   */\n              dup5\n                /* \"#utility.yul\":3832:3848   */\n              add\n                /* \"#utility.yul\":3829:3854   */\n              gt\n                /* \"#utility.yul\":3826:3938   */\n              iszero\n              tag_119\n              jumpi\n                /* \"#utility.yul\":3857:3936   */\n              tag_120\n              tag_49\n              jump\t// in\n            tag_120:\n                /* \"#utility.yul\":3826:3938   */\n            tag_119:\n                /* \"#utility.yul\":3947:4001   */\n              tag_121\n                /* \"#utility.yul\":3994:4000   */\n              dup5\n                /* \"#utility.yul\":3989:3992   */\n              dup3\n                /* \"#utility.yul\":3984:3987   */\n              dup6\n                /* \"#utility.yul\":3947:4001   */\n              tag_54\n              jump\t// in\n            tag_121:\n                /* \"#utility.yul\":3666:4007   */\n              pop\n                /* \"#utility.yul\":3582:4007   */\n              swap4\n              swap3\n              pop\n              pop\n              pop\n              jump\t// out\n                /* \"#utility.yul\":4027:4367   */\n            tag_56:\n                /* \"#utility.yul\":4083:4088   */\n              0x00\n                /* \"#utility.yul\":4132:4135   */\n              dup3\n                /* \"#utility.yul\":4125:4129   */\n              0x1f\n                /* \"#utility.yul\":4117:4123   */\n              dup4\n                /* \"#utility.yul\":4113:4130   */\n              add\n                /* \"#utility.yul\":4109:4136   */\n              slt\n                /* \"#utility.yul\":4099:4221   */\n              tag_123\n              jumpi\n                /* \"#utility.yul\":4140:4219   */\n              tag_124\n              tag_48\n              jump\t// in\n            tag_124:\n                /* \"#utility.yul\":4099:4221   */\n            tag_123:\n                /* \"#utility.yul\":4257:4263   */\n              dup2\n                /* \"#utility.yul\":4244:4264   */\n              calldataload\n                /* \"#utility.yul\":4282:4361   */\n              tag_125\n                /* \"#utility.yul\":4357:4360   */\n              dup5\n                /* \"#utility.yul\":4349:4355   */\n              dup3\n                /* \"#utility.yul\":4342:4346   */\n              0x20\n                /* \"#utility.yul\":4334:4340   */\n              dup7\n                /* \"#utility.yul\":4330:4347   */\n              add\n                /* \"#utility.yul\":4282:4361   */\n              tag_55\n              jump\t// in\n            tag_125:\n                /* \"#utility.yul\":4273:4361   */\n              swap2\n              pop\n                /* \"#utility.yul\":4089:4367   */\n              pop\n                /* \"#utility.yul\":4027:4367   */\n              swap3\n              swap2\n              pop\n              pop\n              jump\t// out\n                /* \"#utility.yul\":4373:5027   */\n            tag_13:\n                /* \"#utility.yul\":4451:4457   */\n              0x00\n                /* \"#utility.yul\":4459:4465   */\n              0x00\n                /* \"#utility.yul\":4508:4510   */\n              0x40\n                /* \"#utility.yul\":4496:4505   */\n              dup4\n                /* \"#utility.yul\":4487:4494   */\n              dup6\n                /* \"#utility.yul\":4483:4506   */\n              sub\n                /* \"#utility.yul\":4479:4511   */\n              slt\n                /* \"#utility.yul\":4476:4595   */\n              iszero\n              tag_127\n              jumpi\n                /* \"#utility.yul\":4514:4593   */\n              tag_128\n              tag_38\n              jump\t// in\n            tag_128:\n                /* \"#utility.yul\":4476:4595   */\n            tag_127:\n                /* \"#utility.yul\":4662:4663   */\n              0x00\n                /* \"#utility.yul\":4651:4660   */\n              dup4\n                /* \"#utility.yul\":4647:4664   */\n              add\n                /* \"#utility.yul\":4634:4665   */\n              calldataload\n                /* \"#utility.yul\":4692:4710   */\n              0xffffffffffffffff\n                /* \"#utility.yul\":4684:4690   */\n              dup2\n                /* \"#utility.yul\":4681:4711   */\n              gt\n                /* \"#utility.yul\":4678:4795   */\n              iszero\n              tag_129\n              jumpi\n                /* \"#utility.yul\":4714:4793   */\n              tag_130\n              tag_39\n              jump\t// in\n            tag_130:\n                /* \"#utility.yul\":4678:4795   */\n            tag_129:\n                /* \"#utility.yul\":4819:4882   */\n              tag_131\n                /* \"#utility.yul\":4874:4881   */\n              dup6\n                /* \"#utility.yul\":4865:4871   */\n              dup3\n                /* \"#utility.yul\":4854:4863   */\n              dup7\n                /* \"#utility.yul\":4850:4872   */\n              add\n                /* \"#utility.yul\":4819:4882   */\n              tag_56\n              jump\t// in\n            tag_131:\n                /* \"#utility.yul\":4809:4882   */\n              swap3\n              pop\n                /* \"#utility.yul\":4605:4892   */\n              pop\n                /* \"#utility.yul\":4931:4933   */\n              0x20\n                /* \"#utility.yul\":4957:5010   */\n              tag_132\n                /* \"#utility.yul\":5002:5009   */\n              dup6\n                /* \"#utility.yul\":4993:4999   */\n              dup3\n                /* \"#utility.yul\":4982:4991   */\n              dup7\n                /* \"#utility.yul\":4978:5000   */\n              add\n                /* \"#utility.yul\":4957:5010   */\n              tag_42\n              jump\t// in\n            tag_132:\n                /* \"#utility.yul\":4947:5010   */\n              swap2\n              pop\n                /* \"#utility.yul\":4902:5020   */\n              pop\n                /* \"#utility.yul\":4373:5027   */\n              swap3\n              pop\n              swap3\n              swap1\n              pop\n              jump\t// out\n                /* \"#utility.yul\":5033:5213   */\n            tag_57:\n                /* \"#utility.yul\":5081:5158   */\n              0x4e487b7100000000000000000000000000000000000000000000000000000000\n                /* \"#utility.yul\":5078:5079   */\n              0x00\n                /* \"#utility.yul\":5071:5159   */\n              mstore\n                /* \"#utility.yul\":5178:5182   */\n              0x22\n                /* \"#utility.yul\":5175:5176   */\n              0x04\n                /* \"#utility.yul\":5168:5183   */\n              mstore\n                /* \"#utility.yul\":5202:5206   */\n              0x24\n                /* \"#utility.yul\":5199:5200   */\n              0x00\n                /* \"#utility.yul\":5192:5207   */\n              revert\n                /* \"#utility.yul\":5219:5539   */\n            tag_19:\n                /* \"#utility.yul\":5263:5269   */\n              0x00\n                /* \"#utility.yul\":5300:5301   */\n              0x02\n                /* \"#utility.yul\":5294:5298   */\n              dup3\n                /* \"#utility.yul\":5290:5302   */\n              div\n                /* \"#utility.yul\":5280:5302   */\n              swap1\n              pop\n                /* \"#utility.yul\":5347:5348   */\n              0x01\n                /* \"#utility.yul\":5341:5345   */\n              dup3\n                /* \"#utility.yul\":5337:5349   */\n              and\n                /* \"#utility.yul\":5368:5386   */\n              dup1\n                /* \"#utility.yul\":5358:5439   */\n              tag_135\n              jumpi\n                /* \"#utility.yul\":5424:5428   */\n              0x7f\n                /* \"#utility.yul\":5416:5422   */\n              dup3\n                /* \"#utility.yul\":5412:5429   */\n              and\n                /* \"#utility.yul\":5402:5429   */\n              swap2\n              pop\n                /* \"#utility.yul\":5358:5439   */\n            tag_135:\n                /* \"#utility.yul\":5486:5488   */\n              0x20\n                /* \"#utility.yul\":5478:5484   */\n              dup3\n                /* \"#utility.yul\":5475:5489   */\n              lt\n                /* \"#utility.yul\":5455:5473   */\n              dup2\n                /* \"#utility.yul\":5452:5490   */\n              sub\n                /* \"#utility.yul\":5449:5533   */\n              tag_136\n              jumpi\n                /* \"#utility.yul\":5505:5523   */\n              tag_137\n              tag_57\n              jump\t// in\n            tag_137:\n                /* \"#utility.yul\":5449:5533   */\n            tag_136:\n                /* \"#utility.yul\":5270:5539   */\n              pop\n                /* \"#utility.yul\":5219:5539   */\n              swap2\n              swap1\n              pop\n              jump\t// out\n                /* \"#utility.yul\":5545:5686   */\n            tag_58:\n                /* \"#utility.yul\":5594:5598   */\n              0x00\n                /* \"#utility.yul\":5617:5620   */\n              dup2\n                /* \"#utility.yul\":5609:5620   */\n              swap1\n              pop\n                /* \"#utility.yul\":5640:5643   */\n              dup2\n                /* \"#utility.yul\":5637:5638   */\n              0x00\n                /* \"#utility.yul\":5630:5644   */\n              mstore\n                /* \"#utility.yul\":5674:5678   */\n              0x20\n                /* \"#utility.yul\":5671:5672   */\n              0x00\n                /* \"#utility.yul\":5661:5679   */\n              keccak256\n                /* \"#utility.yul\":5653:5679   */\n              swap1\n              pop\n                /* \"#utility.yul\":5545:5686   */\n              swap2\n              swap1\n              pop\n              jump\t// out\n                /* \"#utility.yul\":5692:5785   */\n            tag_59:\n                /* \"#utility.yul\":5729:5735   */\n              0x00\n                /* \"#utility.yul\":5776:5778   */\n              0x20\n                /* \"#utility.yul\":5771:5773   */\n              0x1f\n                /* \"#utility.yul\":5764:5769   */\n              dup4\n                /* \"#utility.yul\":5760:5774   */\n              add\n                /* \"#utility.yul\":5756:5779   */\n              div\n                /* \"#utility.yul\":5746:5779   */\n              swap1\n              pop\n                /* \"#utility.yul\":5692:5785   */\n              swap2\n              swap1\n              pop\n              jump\t// out\n                /* \"#utility.yul\":5791:5898   */\n            tag_60:\n                /* \"#utility.yul\":5835:5843   */\n              0x00\n                /* \"#utility.yul\":5885:5890   */\n              dup3\n                /* \"#utility.yul\":5879:5883   */\n              dup3\n                /* \"#utility.yul\":5875:5891   */\n              shl\n                /* \"#utility.yul\":5854:5891   */\n              swap1\n              pop\n                /* \"#utility.yul\":5791:5898   */\n              swap3\n              swap2\n              pop\n              pop\n              jump\t// out\n                /* \"#utility.yul\":5904:6297   */\n            tag_61:\n                /* \"#utility.yul\":5973:5979   */\n              0x00\n                /* \"#utility.yul\":6023:6024   */\n              0x08\n                /* \"#utility.yul\":6011:6021   */\n              dup4\n                /* \"#utility.yul\":6007:6025   */\n              mul\n                /* \"#utility.yul\":6046:6143   */\n              tag_142\n                /* \"#utility.yul\":6076:6142   */\n              0xffffffffffffffffffffffffffffffffffffffffffffffffffffffffffffffff\n                /* \"#utility.yul\":6065:6074   */\n              dup3\n                /* \"#utility.yul\":6046:6143   */\n              tag_60\n              jump\t// in\n            tag_142:\n                /* \"#utility.yul\":6164:6203   */\n              tag_143\n                /* \"#utility.yul\":6194:6202   */\n              dup7\n                /* \"#utility.yul\":6183:6192   */\n              dup4\n                /* \"#utility.yul\":6164:6203   */\n              tag_60\n              jump\t// in\n            tag_143:\n                /* \"#utility.yul\":6152:6203   */\n              swap6\n              pop\n                /* \"#utility.yul\":6236:6240   */\n              dup1\n                /* \"#utility.yul\":6232:6241   */\n              not\n                /* \"#utility.yul\":6225:6230   */\n              dup5\n                /* \"#utility.yul\":6221:6242   */\n              and\n                /* \"#utility.yul\":6212:6242   */\n              swap4\n              pop\n                /* \"#utility.yul\":6285:6289   */\n              dup1\n                /* \"#utility.yul\":6275:6283   */\n              dup7\n                /* \"#utility.yul\":6271:6290   */\n              and\n                /* \"#utility.yul\":6264:6269   */\n              dup5\n                /* \"#utility.yul\":6261:6291   */\n              or\n                /* \"#utility.yul\":6251:6291   */\n              swap3\n              pop\n                /* \"#utility.yul\":5980:6297   */\n              pop\n              pop\n                /* \"#utility.yul\":5904:6297   */\n              swap4\n              swap3\n              pop\n              pop\n              pop\n              jump\t// out\n                /* \"#utility.yul\":6303:6363   */\n            tag_62:\n                /* \"#utility.yul\":6331:6334   */\n              0x00\n                /* \"#utility.yul\":6352:6357   */\n              dup2\n                /* \"#utility.yul\":6345:6357   */\n              swap1\n              pop\n                /* \"#utility.yul\":6303:6363   */\n              swap2\n              swap1\n              pop\n              jump\t// out\n                /* \"#utility.yul\":6369:6511   */\n            tag_63:\n                /* \"#utility.yul\":6419:6428   */\n              0x00\n                /* \"#utility.yul\":6452:6505   */\n              tag_146\n                /* \"#utility.yul\":6470:6504   */\n              tag_147\n                /* \"#utility.yul\":6479:6503   */\n              tag_148\n                /* \"#utility.yul\":6497:6502   */\n              dup5\n                /* \"#utility.yul\":6479:6503   */\n              tag_40\n              jump\t// in\n            tag_148:\n                /* \"#utility.yul\":6470:6504   */\n              tag_62\n              jump\t// in\n            tag_147:\n                /* \"#utility.yul\":6452:6505   */\n              tag_40\n              jump\t// in\n            tag_146:\n                /* \"#utility.yul\":6439:6505   */\n              swap1\n              pop\n                /* \"#utility.yul\":6369:6511   */\n              swap2\n              swap1\n              pop\n              jump\t// out\n                /* \"#utility.yul\":6517:6592   */\n            tag_64:\n                /* \"#utility.yul\":6560:6563   */\n              0x00\n                /* \"#utility.yul\":6581:6586   */\n              dup2\n                /* \"#utility.yul\":6574:6586   */\n              swap1\n              pop\n                /* \"#utility.yul\":6517:6592   */\n              swap2\n              swap1\n              pop\n              jump\t// out\n                /* \"#utility.yul\":6598:6867   */\n            tag_65:\n                /* \"#utility.yul\":6708:6747   */\n              tag_151\n                /* \"#utility.yul\":6739:6746   */\n              dup4\n                /* \"#utility.yul\":6708:6747   */\n              tag_63\n              jump\t// in\n            tag_151:\n                /* \"#utility.yul\":6769:6860   */\n              tag_152\n                /* \"#utility.yul\":6818:6859   */\n              tag_153\n                /* \"#utility.yul\":6842:6858   */\n              dup3\n                /* \"#utility.yul\":6818:6859   */\n              tag_64\n              jump\t// in\n            tag_153:\n                /* \"#utility.yul\":6810:6816   */\n              dup5\n                /* \"#utility.yul\":6803:6807   */\n              dup5\n                /* \"#utility.yul\":6797:6808   */\n              sload\n                /* \"#utility.yul\":6769:6860   */\n              tag_61\n              jump\t// in\n            tag_152:\n                /* \"#utility.yul\":6763:6767   */\n              dup3\n                /* \"#utility.yul\":6756:6861   */\n              sstore\n                /* \"#utility.yul\":6674:6867   */\n              pop\n                /* \"#utility.yul\":6598:6867   */\n              pop\n              pop\n              pop\n              jump\t// out\n                /* \"#utility.yul\":6873:6946   */\n            tag_66:\n                /* \"#utility.yul\":6918:6921   */\n              0x00\n                /* \"#utility.yul\":6939:6940   */\n              0x00\n                /* \"#utility.yul\":6932:6940   */\n              swap1\n              pop\n                /* \"#utility.yul\":6873:6946   */\n              swap1\n              jump\t// out\n                /* \"#utility.yul\":6952:7141   */\n            tag_67:\n                /* \"#utility.yul\":7029:7061   */\n              tag_156\n              tag_66\n              jump\t// in\n            tag_156:\n                /* \"#utility.yul\":7070:7135   */\n              tag_157\n                /* \"#utility.yul\":7128:7134   */\n              dup2\n                /* \"#utility.yul\":7120:7126   */\n              dup5\n                /* \"#utility.yul\":7114:7118   */\n              dup5\n                /* \"#utility.yul\":7070:7135   */\n              tag_65\n              jump\t// in\n            tag_157:\n                /* \"#utility.yul\":7005:7141   */\n              pop\n                /* \"#utility.yul\":6952:7141   */\n              pop\n              pop\n              jump\t// out\n                /* \"#utility.yul\":7147:7333   */\n            tag_68:\n                /* \"#utility.yul\":7207:7327   */\n            tag_159:\n                /* \"#utility.yul\":7224:7227   */\n              dup2\n                /* \"#utility.yul\":7217:7222   */\n              dup2\n                /* \"#utility.yul\":7214:7228   */\n              lt\n                /* \"#utility.yul\":7207:7327   */\n              iszero\n              tag_161\n              jumpi\n                /* \"#utility.yul\":7278:7317   */\n              tag_162\n                /* \"#utility.yul\":7315:7316   */\n              0x00\n                /* \"#utility.yul\":7308:7313   */\n              dup3\n                /* \"#utility.yul\":7278:7317   */\n              tag_67\n              jump\t// in\n            tag_162:\n                /* \"#utility.yul\":7251:7252   */\n              0x01\n                /* \"#utility.yul\":7244:7249   */\n              dup2\n                /* \"#utility.yul\":7240:7253   */\n              add\n                /* \"#utility.yul\":7231:7253   */\n              swap1\n              pop\n                /* \"#utility.yul\":7207:7327   */\n              jump(tag_159)\n            tag_161:\n                /* \"#utility.yul\":7147:7333   */\n              pop\n              pop\n              jump\t// out\n                /* \"#utility.yul\":7339:7882   */\n            tag_69:\n                /* \"#utility.yul\":7440:7442   */\n              0x1f\n                /* \"#utility.yul\":7435:7438   */\n              dup3\n                /* \"#utility.yul\":7432:7443   */\n              gt\n                /* \"#utility.yul\":7429:7875   */\n              iszero\n              tag_164\n              jumpi\n                /* \"#utility.yul\":7474:7512   */\n              tag_165\n                /* \"#utility.yul\":7506:7511   */\n              dup2\n                /* \"#utility.yul\":7474:7512   */\n              tag_58\n              jump\t// in\n            tag_165:\n                /* \"#utility.yul\":7558:7587   */\n              tag_166\n                /* \"#utility.yul\":7576:7586   */\n              dup5\n                /* \"#utility.yul\":7558:7587   */\n              tag_59\n              jump\t// in\n            tag_166:\n                /* \"#utility.yul\":7548:7556   */\n              dup2\n                /* \"#utility.yul\":7544:7588   */\n              add\n                /* \"#utility.yul\":7741:7743   */\n              0x20\n                /* \"#utility.yul\":7729:7739   */\n              dup6\n                /* \"#utility.yul\":7726:7744   */\n              lt\n                /* \"#utility.yul\":7723:7772   */\n              iszero\n              tag_167\n              jumpi\n                /* \"#utility.yul\":7762:7770   */\n              dup2\n                /* \"#utility.yul\":7747:7770   */\n              swap1\n              pop\n                /* \"#utility.yul\":7723:7772   */\n            tag_167:\n                /* \"#utility.yul\":7785:7865   */\n              tag_168\n                /* \"#utility.yul\":7841:7863   */\n              tag_169\n                /* \"#utility.yul\":7859:7862   */\n              dup6\n                /* \"#utility.yul\":7841:7863   */\n              tag_59\n              jump\t// in\n            tag_169:\n                /* \"#utility.yul\":7831:7839   */\n              dup4\n                /* \"#utility.yul\":7827:7864   */\n              add\n                /* \"#utility.yul\":7814:7825   */\n              dup3\n                /* \"#utility.yul\":7785:7865   */\n              tag_68\n              jump\t// in\n            tag_168:\n                /* \"#utility.yul\":7444:7875   */\n              pop\n              pop\n                /* \"#utility.yul\":7429:7875   */\n            tag_164:\n                /* \"#utility.yul\":7339:7882   */\n              pop\n              pop\n              pop\n              jump\t// out\n                /* \"#utility.yul\":7888:8005   */\n            tag_70:\n                /* \"#utility.yul\":7942:7950   */\n              0x00\n                /* \"#utility.yul\":7992:7997   */\n              dup3\n                /* \"#utility.yul\":7986:7990   */\n              dup3\n                /* \"#utility.yul\":7982:7998   */\n              shr\n                /* \"#utility.yul\":7961:7998   */\n              swap1\n              pop\n                /* \"#utility.yul\":7888:8005   */\n              swap3\n              swap2\n              pop\n              pop\n              jump\t// out\n                /* \"#utility.yul\":8011:8180   */\n            tag_71:\n                /* \"#utility.yul\":8055:8061   */\n              0x00\n                /* \"#utility.yul\":8088:8139   */\n              tag_172\n                /* \"#utility.yul\":8136:8137   */\n              0x00\n                /* \"#utility.yul\":8132:8138   */\n              not\n                /* \"#utility.yul\":8124:8129   */\n              dup5\n                /* \"#utility.yul\":8121:8122   */\n              0x08\n                /* \"#utility.yul\":8117:8130   */\n              mul\n                /* \"#utility.yul\":8088:8139   */\n              tag_70\n              jump\t// in\n            tag_172:\n                /* \"#utility.yul\":8084:8140   */\n              not\n                /* \"#utility.yul\":8169:8173   */\n              dup1\n                /* \"#utility.yul\":8163:8167   */\n              dup4\n                /* \"#utility.yul\":8159:8174   */\n              and\n                /* \"#utility.yul\":8149:8174   */\n              swap2\n              pop\n                /* \"#utility.yul\":8062:8180   */\n              pop\n                /* \"#utility.yul\":8011:8180   */\n              swap3\n              swap2\n              pop\n              pop\n              jump\t// out\n                /* \"#utility.yul\":8185:8480   */\n            tag_72:\n                /* \"#utility.yul\":8261:8265   */\n              0x00\n                /* \"#utility.yul\":8407:8436   */\n              tag_174\n                /* \"#utility.yul\":8432:8435   */\n              dup4\n                /* \"#utility.yul\":8426:8430   */\n              dup4\n                /* \"#utility.yul\":8407:8436   */\n              tag_71\n              jump\t// in\n            tag_174:\n                /* \"#utility.yul\":8399:8436   */\n              swap2\n              pop\n                /* \"#utility.yul\":8469:8472   */\n              dup3\n                /* \"#utility.yul\":8466:8467   */\n              0x02\n                /* \"#utility.yul\":8462:8473   */\n              mul\n                /* \"#utility.yul\":8456:8460   */\n              dup3\n                /* \"#utility.yul\":8453:8474   */\n              or\n                /* \"#utility.yul\":8445:8474   */\n              swap1\n              pop\n                /* \"#utility.yul\":8185:8480   */\n              swap3\n              swap2\n              pop\n              pop\n              jump\t// out\n                /* \"#utility.yul\":8485:9880   */\n            tag_33:\n                /* \"#utility.yul\":8602:8639   */\n              tag_176\n                /* \"#utility.yul\":8635:8638   */\n              dup3\n                /* \"#utility.yul\":8602:8639   */\n              tag_43\n              jump\t// in\n            tag_176:\n                /* \"#utility.yul\":8704:8722   */\n              0xffffffffffffffff\n                /* \"#utility.yul\":8696:8702   */\n              dup2\n                /* \"#utility.yul\":8693:8723   */\n              gt\n                /* \"#utility.yul\":8690:8746   */\n              iszero\n              tag_177\n              jumpi\n                /* \"#utility.yul\":8726:8744   */\n              tag_178\n              tag_50\n              jump\t// in\n            tag_178:\n                /* \"#utility.yul\":8690:8746   */\n            tag_177:\n                /* \"#utility.yul\":8770:8808   */\n              tag_179\n                /* \"#utility.yul\":8802:8806   */\n              dup3\n                /* \"#utility.yul\":8796:8807   */\n              sload\n                /* \"#utility.yul\":8770:8808   */\n              tag_19\n              jump\t// in\n            tag_179:\n                /* \"#utility.yul\":8855:8922   */\n              tag_180\n                /* \"#utility.yul\":8915:8921   */\n              dup3\n                /* \"#utility.yul\":8907:8913   */\n              dup3\n                /* \"#utility.yul\":8901:8905   */\n              dup6\n                /* \"#utility.yul\":8855:8922   */\n              tag_69\n              jump\t// in\n            tag_180:\n                /* \"#utility.yul\":8949:8950   */\n              0x00\n                /* \"#utility.yul\":8973:8977   */\n              0x20\n                /* \"#utility.yul\":8960:8977   */\n              swap1\n              pop\n                /* \"#utility.yul\":9005:9007   */\n              0x1f\n                /* \"#utility.yul\":8997:9003   */\n              dup4\n                /* \"#utility.yul\":8994:9008   */\n              gt\n                /* \"#utility.yul\":9022:9023   */\n              0x01\n                /* \"#utility.yul\":9017:9635   */\n              dup2\n              eq\n              tag_182\n              jumpi\n                /* \"#utility.yul\":9679:9680   */\n              0x00\n                /* \"#utility.yul\":9696:9702   */\n              dup5\n                /* \"#utility.yul\":9693:9770   */\n              iszero\n              tag_183\n              jumpi\n                /* \"#utility.yul\":9745:9754   */\n              dup3\n                /* \"#utility.yul\":9740:9743   */\n              dup8\n                /* \"#utility.yul\":9736:9755   */\n              add\n                /* \"#utility.yul\":9730:9756   */\n              mload\n                /* \"#utility.yul\":9721:9756   */\n              swap1\n              pop\n                /* \"#utility.yul\":9693:9770   */\n            tag_183:\n                /* \"#utility.yul\":9796:9863   */\n              tag_184\n                /* \"#utility.yul\":9856:9862   */\n              dup6\n                /* \"#utility.yul\":9849:9854   */\n              dup3\n                /* \"#utility.yul\":9796:9863   */\n              tag_72\n              jump\t// in\n            tag_184:\n                /* \"#utility.yul\":9790:9794   */\n              dup7\n                /* \"#utility.yul\":9783:9864   */\n              sstore\n                /* \"#utility.yul\":9652:9874   */\n              pop\n                /* \"#utility.yul\":8987:9874   */\n              jump(tag_181)\n                /* \"#utility.yul\":9017:9635   */\n            tag_182:\n                /* \"#utility.yul\":9069:9073   */\n              0x1f\n                /* \"#utility.yul\":9065:9074   */\n              not\n                /* \"#utility.yul\":9057:9063   */\n              dup5\n                /* \"#utility.yul\":9053:9075   */\n              and\n                /* \"#utility.yul\":9103:9140   */\n              tag_185\n                /* \"#utility.yul\":9135:9139   */\n              dup7\n                /* \"#utility.yul\":9103:9140   */\n              tag_58\n              jump\t// in\n            tag_185:\n                /* \"#utility.yul\":9162:9163   */\n              0x00\n                /* \"#utility.yul\":9176:9384   */\n            tag_186:\n                /* \"#utility.yul\":9190:9197   */\n              dup3\n                /* \"#utility.yul\":9187:9188   */\n              dup2\n                /* \"#utility.yul\":9184:9198   */\n              lt\n                /* \"#utility.yul\":9176:9384   */\n              iszero\n              tag_188\n              jumpi\n                /* \"#utility.yul\":9269:9278   */\n              dup5\n                /* \"#utility.yul\":9264:9267   */\n              dup10\n                /* \"#utility.yul\":9260:9279   */\n              add\n                /* \"#utility.yul\":9254:9280   */\n              mload\n                /* \"#utility.yul\":9246:9252   */\n              dup3\n                /* \"#utility.yul\":9239:9281   */\n              sstore\n                /* \"#utility.yul\":9320:9321   */\n              0x01\n                /* \"#utility.yul\":9312:9318   */\n              dup3\n                /* \"#utility.yul\":9308:9322   */\n              add\n                /* \"#utility.yul\":9298:9322   */\n              swap2\n              pop\n                /* \"#utility.yul\":9367:9369   */\n              0x20\n                /* \"#utility.yul\":9356:9365   */\n              dup6\n                /* \"#utility.yul\":9352:9370   */\n              add\n                /* \"#utility.yul\":9339:9370   */\n              swap5\n              pop\n                /* \"#utility.yul\":9213:9217   */\n              0x20\n                /* \"#utility.yul\":9210:9211   */\n              dup2\n                /* \"#utility.yul\":9206:9218   */\n              add\n                /* \"#utility.yul\":9201:9218   */\n              swap1\n              pop\n                /* \"#utility.yul\":9176:9384   */\n              jump(tag_186)\n            tag_188:\n                /* \"#utility.yul\":9412:9418   */\n              dup7\n                /* \"#utility.yul\":9403:9410   */\n              dup4\n                /* \"#utility.yul\":9400:9419   */\n              lt\n                /* \"#utility.yul\":9397:9576   */\n              iszero\n              tag_189\n              jumpi\n                /* \"#utility.yul\":9470:9479   */\n              dup5\n                /* \"#utility.yul\":9465:9468   */\n              dup10\n                /* \"#utility.yul\":9461:9480   */\n              add\n                /* \"#utility.yul\":9455:9481   */\n              mload\n                /* \"#utility.yul\":9513:9561   */\n              tag_190\n                /* \"#utility.yul\":9555:9559   */\n              0x1f\n                /* \"#utility.yul\":9547:9553   */\n              dup10\n                /* \"#utility.yul\":9543:9560   */\n              and\n                /* \"#utility.yul\":9532:9541   */\n              dup3\n                /* \"#utility.yul\":9513:9561   */\n              tag_71\n              jump\t// in\n            tag_190:\n                /* \"#utility.yul\":9505:9511   */\n              dup4\n                /* \"#utility.yul\":9498:9562   */\n              sstore\n                /* \"#utility.yul\":9420:9576   */\n              pop\n                /* \"#utility.yul\":9397:9576   */\n            tag_189:\n                /* \"#utility.yul\":9622:9623   */\n              0x01\n                /* \"#utility.yul\":9618:9619   */\n              0x02\n                /* \"#utility.yul\":9610:9616   */\n              dup9\n                /* \"#utility.yul\":9606:9620   */\n              mul\n                /* \"#utility.yul\":9602:9624   */\n              add\n                /* \"#utility.yul\":9596:9600   */\n              dup9\n                /* \"#utility.yul\":9589:9625   */\n              sstore\n                /* \"#utility.yul\":9024:9635   */\n              pop\n              pop\n              pop\n                /* \"#utility.yul\":8987:9874   */\n            tag_181:\n              pop\n                /* \"#utility.yul\":8577:9880   */\n              pop\n              pop\n              pop\n                /* \"#utility.yul\":8485:9880   */\n              pop\n              pop\n              jump\t// out\n                /* \"#utility.yul\":9886:10034   */\n            tag_73:\n                /* \"#utility.yul\":9988:9999   */\n              0x00\n                /* \"#utility.yul\":10025:10028   */\n              dup2\n                /* \"#utility.yul\":10010:10028   */\n              swap1\n              pop\n                /* \"#utility.yul\":9886:10034   */\n              swap3\n              swap2\n              pop\n              pop\n              jump\t// out\n                /* \"#utility.yul\":10040:10430   */\n            tag_74:\n                /* \"#utility.yul\":10146:10149   */\n              0x00\n                /* \"#utility.yul\":10174:10213   */\n              tag_193\n                /* \"#utility.yul\":10207:10212   */\n              dup3\n                /* \"#utility.yul\":10174:10213   */\n              tag_43\n              jump\t// in\n            tag_193:\n                /* \"#utility.yul\":10229:10318   */\n              tag_194\n                /* \"#utility.yul\":10311:10317   */\n              dup2\n                /* \"#utility.yul\":10306:10309   */\n              dup6\n                /* \"#utility.yul\":10229:10318   */\n              tag_73\n              jump\t// in\n            tag_194:\n                /* \"#utility.yul\":10222:10318   */\n              swap4\n              pop\n                /* \"#utility.yul\":10327:10392   */\n              tag_195\n                /* \"#utility.yul\":10385:10391   */\n              dup2\n                /* \"#utility.yul\":10380:10383   */\n              dup6\n                /* \"#utility.yul\":10373:10377   */\n              0x20\n                /* \"#utility.yul\":10366:10371   */\n              dup7\n                /* \"#utility.yul\":10362:10378   */\n              add\n                /* \"#utility.yul\":10327:10392   */\n              tag_45\n              jump\t// in\n            tag_195:\n                /* \"#utility.yul\":10417:10423   */\n              dup1\n                /* \"#utility.yul\":10412:10415   */\n              dup5\n                /* \"#utility.yul\":10408:10424   */\n              add\n                /* \"#utility.yul\":10401:10424   */\n              swap2\n              pop\n                /* \"#utility.yul\":10150:10430   */\n              pop\n                /* \"#utility.yul\":10040:10430   */\n              swap3\n              swap2\n              pop\n              pop\n              jump\t// out\n                /* \"#utility.yul\":10436:10643   */\n            tag_75:\n                /* \"#utility.yul\":10605:10636   */\n              0x2066726f6d206a61636b79277320736d61727420636f6e747261637421000000\n                /* \"#utility.yul\":10600:10603   */\n              dup2\n                /* \"#utility.yul\":10593:10637   */\n              mstore\n                /* \"#utility.yul\":10436:10643   */\n              pop\n              jump\t// out\n                /* \"#utility.yul\":10649:11191   */\n            tag_36:\n                /* \"#utility.yul\":10872:10875   */\n              0x00\n                /* \"#utility.yul\":10894:10989   */\n              tag_198\n                /* \"#utility.yul\":10985:10988   */\n              dup3\n                /* \"#utility.yul\":10976:10982   */\n              dup5\n                /* \"#utility.yul\":10894:10989   */\n              tag_74\n              jump\t// in\n            tag_198:\n                /* \"#utility.yul\":10887:10989   */\n              swap2\n              pop\n                /* \"#utility.yul\":10999:11137   */\n              tag_199\n                /* \"#utility.yul\":11133:11136   */\n              dup3\n                /* \"#utility.yul\":10999:11137   */\n              tag_75\n              jump\t// in\n            tag_199:\n                /* \"#utility.yul\":11162:11164   */\n              0x1d\n                /* \"#utility.yul\":11157:11160   */\n              dup3\n                /* \"#utility.yul\":11153:11165   */\n              add\n                /* \"#utility.yul\":11146:11165   */\n              swap2\n              pop\n                /* \"#utility.yul\":11182:11185   */\n              dup2\n                /* \"#utility.yul\":11175:11185   */\n              swap1\n              pop\n                /* \"#utility.yul\":10649:11191   */\n              swap3\n              swap2\n              pop\n              pop\n              jump\t// out\n\n            auxdata: 0xa2646970667358221220d1e4c26ec8eae5b99f945ad5b6904e46f63dc467c68951adf4c2dabfb3c33fd764736f6c634300081e0033\n        }\n    }\n\n    auxdata: 0xa26469706673582212205485529f4f4d5be4e16a5b986e3b46d3ce147c5e8f7a903a999386c0d76bf79864736f6c634300081e0033\n}\n",
				"bytecode": {
					"linkReferences": {},
					"object": "6080604052348015600e575f5ffd5b506114cf8061001c5f395ff3fe608060405234801561000f575f5ffd5b506004361061004a575f3560e01c80635e0a94cb1461004e578063728d5c0514610058578063b4cbaee614610088578063d6612711146100b8575b5f5ffd5b6100566100d4565b005b610072600480360381019061006d91906103b7565b6101ba565b60405161007f919061045c565b60405180910390f35b6100a2600480360381019061009d9190610475565b6101fe565b6040516100af9190610523565b60405180910390f35b6100d260048036038101906100cd919061066f565b6102be565b005b6040516100e090610366565b604051809103905ff0801580156100f9573d5f5f3e3d5ffd5b505f5f6101000a81548173ffffffffffffffffffffffffffffffffffffffff021916908373ffffffffffffffffffffffffffffffffffffffff16021790555060015f5f9054906101000a900473ffffffffffffffffffffffffffffffffffffffff16908060018154018082558091505060019003905f5260205f20015f9091909190916101000a81548173ffffffffffffffffffffffffffffffffffffffff021916908373ffffffffffffffffffffffffffffffffffffffff160217905550565b5f600182815481106101cf576101ce6106db565b5b905f5260205f20015f9054906101000a900473ffffffffffffffffffffffffffffffffffffffff169050919050565b606060018381548110610214576102136106db565b5b905f5260205f20015f9054906101000a900473ffffffffffffffffffffffffffffffffffffffff1673ffffffffffffffffffffffffffffffffffffffff166342257b31836040518263ffffffff1660e01b81526004016102749190610717565b5f60405180830381865afa15801561028e573d5f5f3e3d5ffd5b505050506040513d5f823e3d601f19601f820116820180604052508101906102b6919061079e565b905092915050565b600183815481106102d2576102d16106db565b5b905f5260205f20015f9054906101000a900473ffffffffffffffffffffffffffffffffffffffff1673ffffffffffffffffffffffffffffffffffffffff16635d641b8983836040518363ffffffff1660e01b81526004016103349291906107e5565b5f604051808303815f87803b15801561034b575f5ffd5b505af115801561035d573d5f5f3e3d5ffd5b50505050505050565b610c868061081483390190565b5f604051905090565b5f5ffd5b5f5ffd5b5f819050919050565b61039681610384565b81146103a0575f5ffd5b50565b5f813590506103b18161038d565b92915050565b5f602082840312156103cc576103cb61037c565b5b5f6103d9848285016103a3565b91505092915050565b5f73ffffffffffffffffffffffffffffffffffffffff82169050919050565b5f819050919050565b5f61042461041f61041a846103e2565b610401565b6103e2565b9050919050565b5f6104358261040a565b9050919050565b5f6104468261042b565b9050919050565b6104568161043c565b82525050565b5f60208201905061046f5f83018461044d565b92915050565b5f5f6040838503121561048b5761048a61037c565b5b5f610498858286016103a3565b92505060206104a9858286016103a3565b9150509250929050565b5f81519050919050565b5f82825260208201905092915050565b8281835e5f83830152505050565b5f601f19601f8301169050919050565b5f6104f5826104b3565b6104ff81856104bd565b935061050f8185602086016104cd565b610518816104db565b840191505092915050565b5f6020820190508181035f83015261053b81846104eb565b905092915050565b5f5ffd5b5f5ffd5b7f4e487b71000000000000000000000000000000000000000000000000000000005f52604160045260245ffd5b610581826104db565b810181811067ffffffffffffffff821117156105a05761059f61054b565b5b80604052505050565b5f6105b2610373565b90506105be8282610578565b919050565b5f67ffffffffffffffff8211156105dd576105dc61054b565b5b6105e6826104db565b9050602081019050919050565b828183375f83830152505050565b5f61061361060e846105c3565b6105a9565b90508281526020810184848401111561062f5761062e610547565b5b61063a8482856105f3565b509392505050565b5f82601f83011261065657610655610543565b5b8135610666848260208601610601565b91505092915050565b5f5f5f606084860312156106865761068561037c565b5b5f610693868287016103a3565b935050602084013567ffffffffffffffff8111156106b4576106b3610380565b5b6106c086828701610642565b92505060406106d1868287016103a3565b9150509250925092565b7f4e487b71000000000000000000000000000000000000000000000000000000005f52603260045260245ffd5b61071181610384565b82525050565b5f60208201905061072a5f830184610708565b92915050565b5f61074261073d846105c3565b6105a9565b90508281526020810184848401111561075e5761075d610547565b5b6107698482856104cd565b509392505050565b5f82601f83011261078557610784610543565b5b8151610795848260208601610730565b91505092915050565b5f602082840312156107b3576107b261037c565b5b5f82015167ffffffffffffffff8111156107d0576107cf610380565b5b6107dc84828501610771565b91505092915050565b5f6040820190508181035f8301526107fd81856104eb565b905061080c6020830184610708565b939250505056fe60806040526040518060400160405280600b81526020017f68656c6c6f20776f726c640000000000000000000000000000000000000000008152505f90816100479190610296565b50348015610053575f5ffd5b50610365565b5f81519050919050565b7f4e487b71000000000000000000000000000000000000000000000000000000005f52604160045260245ffd5b7f4e487b71000000000000000000000000000000000000000000000000000000005f52602260045260245ffd5b5f60028204905060018216806100d457607f821691505b6020821081036100e7576100e6610090565b5b50919050565b5f819050815f5260205f209050919050565b5f6020601f8301049050919050565b5f82821b905092915050565b5f600883026101497fffffffffffffffffffffffffffffffffffffffffffffffffffffffffffffffff8261010e565b610153868361010e565b95508019841693508086168417925050509392505050565b5f819050919050565b5f819050919050565b5f61019761019261018d8461016b565b610174565b61016b565b9050919050565b5f819050919050565b6101b08361017d565b6101c46101bc8261019e565b84845461011a565b825550505050565b5f5f905090565b6101db6101cc565b6101e68184846101a7565b505050565b5b81811015610209576101fe5f826101d3565b6001810190506101ec565b5050565b601f82111561024e5761021f816100ed565b610228846100ff565b81016020851015610237578190505b61024b610243856100ff565b8301826101eb565b50505b505050565b5f82821c905092915050565b5f61026e5f1984600802610253565b1980831691505092915050565b5f610286838361025f565b9150826002028217905092915050565b61029f82610059565b67ffffffffffffffff8111156102b8576102b7610063565b5b6102c282546100bd565b6102cd82828561020d565b5f60209050601f8311600181146102fe575f84156102ec578287015190505b6102f6858261027b565b86555061035d565b601f19841661030c866100ed565b5f5b828110156103335784890151825560018201915060208501945060208101905061030e565b86831015610350578489015161034c601f89168261025f565b8355505b6001600288020188555050505b505050505050565b610914806103725f395ff3fe608060405234801561000f575f5ffd5b5060043610610034575f3560e01c806342257b31146100385780635d641b8914610068575b5f5ffd5b610052600480360381019061004d919061034c565b610084565b60405161005f91906103e7565b60405180910390f35b610082600480360381019061007d9190610533565b61022d565b005b60605f73ffffffffffffffffffffffffffffffffffffffff1660015f8481526020019081526020015f206002015f9054906101000a900473ffffffffffffffffffffffffffffffffffffffff1673ffffffffffffffffffffffffffffffffffffffff16036101835761017c5f80546100fb906105ba565b80601f0160208091040260200160405190810160405280929190818152602001828054610127906105ba565b80156101725780601f1061014957610100808354040283529160200191610172565b820191905f5260205f20905b81548152906001019060200180831161015557829003601f168201915b50505050506102df565b9050610228565b61022560015f8481526020019081526020015f205f0180546101a4906105ba565b80601f01602080910402602001604051908101604052809291908181526020018280546101d0906105ba565b801561021b5780601f106101f25761010080835404028352916020019161021b565b820191905f5260205f20905b8154815290600101906020018083116101fe57829003601f168201915b50505050506102df565b90505b919050565b5f60405180606001604052808481526020018381526020013373ffffffffffffffffffffffffffffffffffffffff1681525090508060015f8481526020019081526020015f205f820151815f019081610286919061078a565b50602082015181600101556040820151816002015f6101000a81548173ffffffffffffffffffffffffffffffffffffffff021916908373ffffffffffffffffffffffffffffffffffffffff160217905550905050505050565b6060816040516020016102f291906108b9565b6040516020818303038152906040529050919050565b5f604051905090565b5f5ffd5b5f5ffd5b5f819050919050565b61032b81610319565b8114610335575f5ffd5b50565b5f8135905061034681610322565b92915050565b5f6020828403121561036157610360610311565b5b5f61036e84828501610338565b91505092915050565b5f81519050919050565b5f82825260208201905092915050565b8281835e5f83830152505050565b5f601f19601f8301169050919050565b5f6103b982610377565b6103c38185610381565b93506103d3818560208601610391565b6103dc8161039f565b840191505092915050565b5f6020820190508181035f8301526103ff81846103af565b905092915050565b5f5ffd5b5f5ffd5b7f4e487b71000000000000000000000000000000000000000000000000000000005f52604160045260245ffd5b6104458261039f565b810181811067ffffffffffffffff821117156104645761046361040f565b5b80604052505050565b5f610476610308565b9050610482828261043c565b919050565b5f67ffffffffffffffff8211156104a1576104a061040f565b5b6104aa8261039f565b9050602081019050919050565b828183375f83830152505050565b5f6104d76104d284610487565b61046d565b9050828152602081018484840111156104f3576104f261040b565b5b6104fe8482856104b7565b509392505050565b5f82601f83011261051a57610519610407565b5b813561052a8482602086016104c5565b91505092915050565b5f5f6040838503121561054957610548610311565b5b5f83013567ffffffffffffffff81111561056657610565610315565b5b61057285828601610506565b925050602061058385828601610338565b9150509250929050565b7f4e487b71000000000000000000000000000000000000000000000000000000005f52602260045260245ffd5b5f60028204905060018216806105d157607f821691505b6020821081036105e4576105e361058d565b5b50919050565b5f819050815f5260205f209050919050565b5f6020601f8301049050919050565b5f82821b905092915050565b5f600883026106467fffffffffffffffffffffffffffffffffffffffffffffffffffffffffffffffff8261060b565b610650868361060b565b95508019841693508086168417925050509392505050565b5f819050919050565b5f61068b61068661068184610319565b610668565b610319565b9050919050565b5f819050919050565b6106a483610671565b6106b86106b082610692565b848454610617565b825550505050565b5f5f905090565b6106cf6106c0565b6106da81848461069b565b505050565b5b818110156106fd576106f25f826106c7565b6001810190506106e0565b5050565b601f82111561074257610713816105ea565b61071c846105fc565b8101602085101561072b578190505b61073f610737856105fc565b8301826106df565b50505b505050565b5f82821c905092915050565b5f6107625f1984600802610747565b1980831691505092915050565b5f61077a8383610753565b9150826002028217905092915050565b61079382610377565b67ffffffffffffffff8111156107ac576107ab61040f565b5b6107b682546105ba565b6107c1828285610701565b5f60209050601f8311600181146107f2575f84156107e0578287015190505b6107ea858261076f565b865550610851565b601f198416610800866105ea565b5f5b8281101561082757848901518255600182019150602085019450602081019050610802565b868310156108445784890151610840601f891682610753565b8355505b6001600288020188555050505b505050505050565b5f81905092915050565b5f61086d82610377565b6108778185610859565b9350610887818560208601610391565b80840191505092915050565b7f2066726f6d206a61636b79277320736d61727420636f6e747261637421000000815250565b5f6108c48284610863565b91506108cf82610893565b601d820191508190509291505056fea2646970667358221220d1e4c26ec8eae5b99f945ad5b6904e46f63dc467c68951adf4c2dabfb3c33fd764736f6c634300081e0033a26469706673582212205485529f4f4d5be4e16a5b986e3b46d3ce147c5e8f7a903a999386c0d76bf79864736f6c634300081e0033",
					"opcodes": "PUSH1 0x80 PUSH1 0x40 MSTORE CALLVALUE DUP1 ISZERO PUSH1 0xE JUMPI PUSH0 PUSH0 REVERT JUMPDEST POP PUSH2 0x14CF DUP1 PUSH2 0x1C PUSH0 CODECOPY PUSH0 RETURN INVALID PUSH1 0x80 PUSH1 0x40 MSTORE CALLVALUE DUP1 ISZERO PUSH2 0xF JUMPI PUSH0 PUSH0 REVERT JUMPDEST POP PUSH1 0x4 CALLDATASIZE LT PUSH2 0x4A JUMPI PUSH0 CALLDATALOAD PUSH1 0xE0 SHR DUP1 PUSH4 0x5E0A94CB EQ PUSH2 0x4E JUMPI DUP1 PUSH4 0x728D5C05 EQ PUSH2 0x58 JUMPI DUP1 PUSH4 0xB4CBAEE6 EQ PUSH2 0x88 JUMPI DUP1 PUSH4 0xD6612711 EQ PUSH2 0xB8 JUMPI JUMPDEST PUSH0 PUSH0 REVERT JUMPDEST PUSH2 0x56 PUSH2 0xD4 JUMP JUMPDEST STOP JUMPDEST PUSH2 0x72 PUSH1 0x4 DUP1 CALLDATASIZE SUB DUP2 ADD SWAP1 PUSH2 0x6D SWAP2 SWAP1 PUSH2 0x3B7 JUMP JUMPDEST PUSH2 0x1BA JUMP JUMPDEST PUSH1 0x40 MLOAD PUSH2 0x7F SWAP2 SWAP1 PUSH2 0x45C JUMP JUMPDEST PUSH1 0x40 MLOAD DUP1 SWAP2 SUB SWAP1 RETURN JUMPDEST PUSH2 0xA2 PUSH1 0x4 DUP1 CALLDATASIZE SUB DUP2 ADD SWAP1 PUSH2 0x9D SWAP2 SWAP1 PUSH2 0x475 JUMP JUMPDEST PUSH2 0x1FE JUMP JUMPDEST PUSH1 0x40 MLOAD PUSH2 0xAF SWAP2 SWAP1 PUSH2 0x523 JUMP JUMPDEST PUSH1 0x40 MLOAD DUP1 SWAP2 SUB SWAP1 RETURN JUMPDEST PUSH2 0xD2 PUSH1 0x4 DUP1 CALLDATASIZE SUB DUP2 ADD SWAP1 PUSH2 0xCD SWAP2 SWAP1 PUSH2 0x66F JUMP JUMPDEST PUSH2 0x2BE JUMP JUMPDEST STOP JUMPDEST PUSH1 0x40 MLOAD PUSH2 0xE0 SWAP1 PUSH2 0x366 JUMP JUMPDEST PUSH1 0x40 MLOAD DUP1 SWAP2 SUB SWAP1 PUSH0 CREATE DUP1 ISZERO DUP1 ISZERO PUSH2 0xF9 JUMPI RETURNDATASIZE PUSH0 PUSH0 RETURNDATACOPY RETURNDATASIZE PUSH0 REVERT JUMPDEST POP PUSH0 PUSH0 PUSH2 0x100 EXP DUP2 SLOAD DUP2 PUSH20 0xFFFFFFFFFFFFFFFFFFFFFFFFFFFFFFFFFFFFFFFF MUL NOT AND SWAP1 DUP4 PUSH20 0xFFFFFFFFFFFFFFFFFFFFFFFFFFFFFFFFFFFFFFFF AND MUL OR SWAP1 SSTORE POP PUSH1 0x1 PUSH0 PUSH0 SWAP1 SLOAD SWAP1 PUSH2 0x100 EXP SWAP1 DIV PUSH20 0xFFFFFFFFFFFFFFFFFFFFFFFFFFFFFFFFFFFFFFFF AND SWAP1 DUP1 PUSH1 0x1 DUP2 SLOAD ADD DUP1 DUP3 SSTORE DUP1 SWAP2 POP POP PUSH1 0x1 SWAP1 SUB SWAP1 PUSH0 MSTORE PUSH1 0x20 PUSH0 KECCAK256 ADD PUSH0 SWAP1 SWAP2 SWAP1 SWAP2 SWAP1 SWAP2 PUSH2 0x100 EXP DUP2 SLOAD DUP2 PUSH20 0xFFFFFFFFFFFFFFFFFFFFFFFFFFFFFFFFFFFFFFFF MUL NOT AND SWAP1 DUP4 PUSH20 0xFFFFFFFFFFFFFFFFFFFFFFFFFFFFFFFFFFFFFFFF AND MUL OR SWAP1 SSTORE POP JUMP JUMPDEST PUSH0 PUSH1 0x1 DUP3 DUP2 SLOAD DUP2 LT PUSH2 0x1CF JUMPI PUSH2 0x1CE PUSH2 0x6DB JUMP JUMPDEST JUMPDEST SWAP1 PUSH0 MSTORE PUSH1 0x20 PUSH0 KECCAK256 ADD PUSH0 SWAP1 SLOAD SWAP1 PUSH2 0x100 EXP SWAP1 DIV PUSH20 0xFFFFFFFFFFFFFFFFFFFFFFFFFFFFFFFFFFFFFFFF AND SWAP1 POP SWAP2 SWAP1 POP JUMP JUMPDEST PUSH1 0x60 PUSH1 0x1 DUP4 DUP2 SLOAD DUP2 LT PUSH2 0x214 JUMPI PUSH2 0x213 PUSH2 0x6DB JUMP JUMPDEST JUMPDEST SWAP1 PUSH0 MSTORE PUSH1 0x20 PUSH0 KECCAK256 ADD PUSH0 SWAP1 SLOAD SWAP1 PUSH2 0x100 EXP SWAP1 DIV PUSH20 0xFFFFFFFFFFFFFFFFFFFFFFFFFFFFFFFFFFFFFFFF AND PUSH20 0xFFFFFFFFFFFFFFFFFFFFFFFFFFFFFFFFFFFFFFFF AND PUSH4 0x42257B31 DUP4 PUSH1 0x40 MLOAD DUP3 PUSH4 0xFFFFFFFF AND PUSH1 0xE0 SHL DUP2 MSTORE PUSH1 0x4 ADD PUSH2 0x274 SWAP2 SWAP1 PUSH2 0x717 JUMP JUMPDEST PUSH0 PUSH1 0x40 MLOAD DUP1 DUP4 SUB DUP2 DUP7 GAS STATICCALL ISZERO DUP1 ISZERO PUSH2 0x28E JUMPI RETURNDATASIZE PUSH0 PUSH0 RETURNDATACOPY RETURNDATASIZE PUSH0 REVERT JUMPDEST POP POP POP POP PUSH1 0x40 MLOAD RETURNDATASIZE PUSH0 DUP3 RETURNDATACOPY RETURNDATASIZE PUSH1 0x1F NOT PUSH1 0x1F DUP3 ADD AND DUP3 ADD DUP1 PUSH1 0x40 MSTORE POP DUP2 ADD SWAP1 PUSH2 0x2B6 SWAP2 SWAP1 PUSH2 0x79E JUMP JUMPDEST SWAP1 POP SWAP3 SWAP2 POP POP JUMP JUMPDEST PUSH1 0x1 DUP4 DUP2 SLOAD DUP2 LT PUSH2 0x2D2 JUMPI PUSH2 0x2D1 PUSH2 0x6DB JUMP JUMPDEST JUMPDEST SWAP1 PUSH0 MSTORE PUSH1 0x20 PUSH0 KECCAK256 ADD PUSH0 SWAP1 SLOAD SWAP1 PUSH2 0x100 EXP SWAP1 DIV PUSH20 0xFFFFFFFFFFFFFFFFFFFFFFFFFFFFFFFFFFFFFFFF AND PUSH20 0xFFFFFFFFFFFFFFFFFFFFFFFFFFFFFFFFFFFFFFFF AND PUSH4 0x5D641B89 DUP4 DUP4 PUSH1 0x40 MLOAD DUP4 PUSH4 0xFFFFFFFF AND PUSH1 0xE0 SHL DUP2 MSTORE PUSH1 0x4 ADD PUSH2 0x334 SWAP3 SWAP2 SWAP1 PUSH2 0x7E5 JUMP JUMPDEST PUSH0 PUSH1 0x40 MLOAD DUP1 DUP4 SUB DUP2 PUSH0 DUP8 DUP1 EXTCODESIZE ISZERO DUP1 ISZERO PUSH2 0x34B JUMPI PUSH0 PUSH0 REVERT JUMPDEST POP GAS CALL ISZERO DUP1 ISZERO PUSH2 0x35D JUMPI RETURNDATASIZE PUSH0 PUSH0 RETURNDATACOPY RETURNDATASIZE PUSH0 REVERT JUMPDEST POP POP POP POP POP POP POP JUMP JUMPDEST PUSH2 0xC86 DUP1 PUSH2 0x814 DUP4 CODECOPY ADD SWAP1 JUMP JUMPDEST PUSH0 PUSH1 0x40 MLOAD SWAP1 POP SWAP1 JUMP JUMPDEST PUSH0 PUSH0 REVERT JUMPDEST PUSH0 PUSH0 REVERT JUMPDEST PUSH0 DUP2 SWAP1 POP SWAP2 SWAP1 POP JUMP JUMPDEST PUSH2 0x396 DUP2 PUSH2 0x384 JUMP JUMPDEST DUP2 EQ PUSH2 0x3A0 JUMPI PUSH0 PUSH0 REVERT JUMPDEST POP JUMP JUMPDEST PUSH0 DUP2 CALLDATALOAD SWAP1 POP PUSH2 0x3B1 DUP2 PUSH2 0x38D JUMP JUMPDEST SWAP3 SWAP2 POP POP JUMP JUMPDEST PUSH0 PUSH1 0x20 DUP3 DUP5 SUB SLT ISZERO PUSH2 0x3CC JUMPI PUSH2 0x3CB PUSH2 0x37C JUMP JUMPDEST JUMPDEST PUSH0 PUSH2 0x3D9 DUP5 DUP3 DUP6 ADD PUSH2 0x3A3 JUMP JUMPDEST SWAP2 POP POP SWAP3 SWAP2 POP POP JUMP JUMPDEST PUSH0 PUSH20 0xFFFFFFFFFFFFFFFFFFFFFFFFFFFFFFFFFFFFFFFF DUP3 AND SWAP1 POP SWAP2 SWAP1 POP JUMP JUMPDEST PUSH0 DUP2 SWAP1 POP SWAP2 SWAP1 POP JUMP JUMPDEST PUSH0 PUSH2 0x424 PUSH2 0x41F PUSH2 0x41A DUP5 PUSH2 0x3E2 JUMP JUMPDEST PUSH2 0x401 JUMP JUMPDEST PUSH2 0x3E2 JUMP JUMPDEST SWAP1 POP SWAP2 SWAP1 POP JUMP JUMPDEST PUSH0 PUSH2 0x435 DUP3 PUSH2 0x40A JUMP JUMPDEST SWAP1 POP SWAP2 SWAP1 POP JUMP JUMPDEST PUSH0 PUSH2 0x446 DUP3 PUSH2 0x42B JUMP JUMPDEST SWAP1 POP SWAP2 SWAP1 POP JUMP JUMPDEST PUSH2 0x456 DUP2 PUSH2 0x43C JUMP JUMPDEST DUP3 MSTORE POP POP JUMP JUMPDEST PUSH0 PUSH1 0x20 DUP3 ADD SWAP1 POP PUSH2 0x46F PUSH0 DUP4 ADD DUP5 PUSH2 0x44D JUMP JUMPDEST SWAP3 SWAP2 POP POP JUMP JUMPDEST PUSH0 PUSH0 PUSH1 0x40 DUP4 DUP6 SUB SLT ISZERO PUSH2 0x48B JUMPI PUSH2 0x48A PUSH2 0x37C JUMP JUMPDEST JUMPDEST PUSH0 PUSH2 0x498 DUP6 DUP3 DUP7 ADD PUSH2 0x3A3 JUMP JUMPDEST SWAP3 POP POP PUSH1 0x20 PUSH2 0x4A9 DUP6 DUP3 DUP7 ADD PUSH2 0x3A3 JUMP JUMPDEST SWAP2 POP POP SWAP3 POP SWAP3 SWAP1 POP JUMP JUMPDEST PUSH0 DUP2 MLOAD SWAP1 POP SWAP2 SWAP1 POP JUMP JUMPDEST PUSH0 DUP3 DUP3 MSTORE PUSH1 0x20 DUP3 ADD SWAP1 POP SWAP3 SWAP2 POP POP JUMP JUMPDEST DUP3 DUP2 DUP4 MCOPY PUSH0 DUP4 DUP4 ADD MSTORE POP POP POP JUMP JUMPDEST PUSH0 PUSH1 0x1F NOT PUSH1 0x1F DUP4 ADD AND SWAP1 POP SWAP2 SWAP1 POP JUMP JUMPDEST PUSH0 PUSH2 0x4F5 DUP3 PUSH2 0x4B3 JUMP JUMPDEST PUSH2 0x4FF DUP2 DUP6 PUSH2 0x4BD JUMP JUMPDEST SWAP4 POP PUSH2 0x50F DUP2 DUP6 PUSH1 0x20 DUP7 ADD PUSH2 0x4CD JUMP JUMPDEST PUSH2 0x518 DUP2 PUSH2 0x4DB JUMP JUMPDEST DUP5 ADD SWAP2 POP POP SWAP3 SWAP2 POP POP JUMP JUMPDEST PUSH0 PUSH1 0x20 DUP3 ADD SWAP1 POP DUP2 DUP2 SUB PUSH0 DUP4 ADD MSTORE PUSH2 0x53B DUP2 DUP5 PUSH2 0x4EB JUMP JUMPDEST SWAP1 POP SWAP3 SWAP2 POP POP JUMP JUMPDEST PUSH0 PUSH0 REVERT JUMPDEST PUSH0 PUSH0 REVERT JUMPDEST PUSH32 0x4E487B7100000000000000000000000000000000000000000000000000000000 PUSH0 MSTORE PUSH1 0x41 PUSH1 0x4 MSTORE PUSH1 0x24 PUSH0 REVERT JUMPDEST PUSH2 0x581 DUP3 PUSH2 0x4DB JUMP JUMPDEST DUP2 ADD DUP2 DUP2 LT PUSH8 0xFFFFFFFFFFFFFFFF DUP3 GT OR ISZERO PUSH2 0x5A0 JUMPI PUSH2 0x59F PUSH2 0x54B JUMP JUMPDEST JUMPDEST DUP1 PUSH1 0x40 MSTORE POP POP POP JUMP JUMPDEST PUSH0 PUSH2 0x5B2 PUSH2 0x373 JUMP JUMPDEST SWAP1 POP PUSH2 0x5BE DUP3 DUP3 PUSH2 0x578 JUMP JUMPDEST SWAP2 SWAP1 POP JUMP JUMPDEST PUSH0 PUSH8 0xFFFFFFFFFFFFFFFF DUP3 GT ISZERO PUSH2 0x5DD JUMPI PUSH2 0x5DC PUSH2 0x54B JUMP JUMPDEST JUMPDEST PUSH2 0x5E6 DUP3 PUSH2 0x4DB JUMP JUMPDEST SWAP1 POP PUSH1 0x20 DUP2 ADD SWAP1 POP SWAP2 SWAP1 POP JUMP JUMPDEST DUP3 DUP2 DUP4 CALLDATACOPY PUSH0 DUP4 DUP4 ADD MSTORE POP POP POP JUMP JUMPDEST PUSH0 PUSH2 0x613 PUSH2 0x60E DUP5 PUSH2 0x5C3 JUMP JUMPDEST PUSH2 0x5A9 JUMP JUMPDEST SWAP1 POP DUP3 DUP2 MSTORE PUSH1 0x20 DUP2 ADD DUP5 DUP5 DUP5 ADD GT ISZERO PUSH2 0x62F JUMPI PUSH2 0x62E PUSH2 0x547 JUMP JUMPDEST JUMPDEST PUSH2 0x63A DUP5 DUP3 DUP6 PUSH2 0x5F3 JUMP JUMPDEST POP SWAP4 SWAP3 POP POP POP JUMP JUMPDEST PUSH0 DUP3 PUSH1 0x1F DUP4 ADD SLT PUSH2 0x656 JUMPI PUSH2 0x655 PUSH2 0x543 JUMP JUMPDEST JUMPDEST DUP2 CALLDATALOAD PUSH2 0x666 DUP5 DUP3 PUSH1 0x20 DUP7 ADD PUSH2 0x601 JUMP JUMPDEST SWAP2 POP POP SWAP3 SWAP2 POP POP JUMP JUMPDEST PUSH0 PUSH0 PUSH0 PUSH1 0x60 DUP5 DUP7 SUB SLT ISZERO PUSH2 0x686 JUMPI PUSH2 0x685 PUSH2 0x37C JUMP JUMPDEST JUMPDEST PUSH0 PUSH2 0x693 DUP7 DUP3 DUP8 ADD PUSH2 0x3A3 JUMP JUMPDEST SWAP4 POP POP PUSH1 0x20 DUP5 ADD CALLDATALOAD PUSH8 0xFFFFFFFFFFFFFFFF DUP2 GT ISZERO PUSH2 0x6B4 JUMPI PUSH2 0x6B3 PUSH2 0x380 JUMP JUMPDEST JUMPDEST PUSH2 0x6C0 DUP7 DUP3 DUP8 ADD PUSH2 0x642 JUMP JUMPDEST SWAP3 POP POP PUSH1 0x40 PUSH2 0x6D1 DUP7 DUP3 DUP8 ADD PUSH2 0x3A3 JUMP JUMPDEST SWAP2 POP POP SWAP3 POP SWAP3 POP SWAP3 JUMP JUMPDEST PUSH32 0x4E487B7100000000000000000000000000000000000000000000000000000000 PUSH0 MSTORE PUSH1 0x32 PUSH1 0x4 MSTORE PUSH1 0x24 PUSH0 REVERT JUMPDEST PUSH2 0x711 DUP2 PUSH2 0x384 JUMP JUMPDEST DUP3 MSTORE POP POP JUMP JUMPDEST PUSH0 PUSH1 0x20 DUP3 ADD SWAP1 POP PUSH2 0x72A PUSH0 DUP4 ADD DUP5 PUSH2 0x708 JUMP JUMPDEST SWAP3 SWAP2 POP POP JUMP JUMPDEST PUSH0 PUSH2 0x742 PUSH2 0x73D DUP5 PUSH2 0x5C3 JUMP JUMPDEST PUSH2 0x5A9 JUMP JUMPDEST SWAP1 POP DUP3 DUP2 MSTORE PUSH1 0x20 DUP2 ADD DUP5 DUP5 DUP5 ADD GT ISZERO PUSH2 0x75E JUMPI PUSH2 0x75D PUSH2 0x547 JUMP JUMPDEST JUMPDEST PUSH2 0x769 DUP5 DUP3 DUP6 PUSH2 0x4CD JUMP JUMPDEST POP SWAP4 SWAP3 POP POP POP JUMP JUMPDEST PUSH0 DUP3 PUSH1 0x1F DUP4 ADD SLT PUSH2 0x785 JUMPI PUSH2 0x784 PUSH2 0x543 JUMP JUMPDEST JUMPDEST DUP2 MLOAD PUSH2 0x795 DUP5 DUP3 PUSH1 0x20 DUP7 ADD PUSH2 0x730 JUMP JUMPDEST SWAP2 POP POP SWAP3 SWAP2 POP POP JUMP JUMPDEST PUSH0 PUSH1 0x20 DUP3 DUP5 SUB SLT ISZERO PUSH2 0x7B3 JUMPI PUSH2 0x7B2 PUSH2 0x37C JUMP JUMPDEST JUMPDEST PUSH0 DUP3 ADD MLOAD PUSH8 0xFFFFFFFFFFFFFFFF DUP2 GT ISZERO PUSH2 0x7D0 JUMPI PUSH2 0x7CF PUSH2 0x380 JUMP JUMPDEST JUMPDEST PUSH2 0x7DC DUP5 DUP3 DUP6 ADD PUSH2 0x771 JUMP JUMPDEST SWAP2 POP POP SWAP3 SWAP2 POP POP JUMP JUMPDEST PUSH0 PUSH1 0x40 DUP3 ADD SWAP1 POP DUP2 DUP2 SUB PUSH0 DUP4 ADD MSTORE PUSH2 0x7FD DUP2 DUP6 PUSH2 0x4EB JUMP JUMPDEST SWAP1 POP PUSH2 0x80C PUSH1 0x20 DUP4 ADD DUP5 PUSH2 0x708 JUMP JUMPDEST SWAP4 SWAP3 POP POP POP JUMP INVALID PUSH1 0x80 PUSH1 0x40 MSTORE PUSH1 0x40 MLOAD DUP1 PUSH1 0x40 ADD PUSH1 0x40 MSTORE DUP1 PUSH1 0xB DUP2 MSTORE PUSH1 0x20 ADD PUSH32 0x68656C6C6F20776F726C64000000000000000000000000000000000000000000 DUP2 MSTORE POP PUSH0 SWAP1 DUP2 PUSH2 0x47 SWAP2 SWAP1 PUSH2 0x296 JUMP JUMPDEST POP CALLVALUE DUP1 ISZERO PUSH2 0x53 JUMPI PUSH0 PUSH0 REVERT JUMPDEST POP PUSH2 0x365 JUMP JUMPDEST PUSH0 DUP2 MLOAD SWAP1 POP SWAP2 SWAP1 POP JUMP JUMPDEST PUSH32 0x4E487B7100000000000000000000000000000000000000000000000000000000 PUSH0 MSTORE PUSH1 0x41 PUSH1 0x4 MSTORE PUSH1 0x24 PUSH0 REVERT JUMPDEST PUSH32 0x4E487B7100000000000000000000000000000000000000000000000000000000 PUSH0 MSTORE PUSH1 0x22 PUSH1 0x4 MSTORE PUSH1 0x24 PUSH0 REVERT JUMPDEST PUSH0 PUSH1 0x2 DUP3 DIV SWAP1 POP PUSH1 0x1 DUP3 AND DUP1 PUSH2 0xD4 JUMPI PUSH1 0x7F DUP3 AND SWAP2 POP JUMPDEST PUSH1 0x20 DUP3 LT DUP2 SUB PUSH2 0xE7 JUMPI PUSH2 0xE6 PUSH2 0x90 JUMP JUMPDEST JUMPDEST POP SWAP2 SWAP1 POP JUMP JUMPDEST PUSH0 DUP2 SWAP1 POP DUP2 PUSH0 MSTORE PUSH1 0x20 PUSH0 KECCAK256 SWAP1 POP SWAP2 SWAP1 POP JUMP JUMPDEST PUSH0 PUSH1 0x20 PUSH1 0x1F DUP4 ADD DIV SWAP1 POP SWAP2 SWAP1 POP JUMP JUMPDEST PUSH0 DUP3 DUP3 SHL SWAP1 POP SWAP3 SWAP2 POP POP JUMP JUMPDEST PUSH0 PUSH1 0x8 DUP4 MUL PUSH2 0x149 PUSH32 0xFFFFFFFFFFFFFFFFFFFFFFFFFFFFFFFFFFFFFFFFFFFFFFFFFFFFFFFFFFFFFFFF DUP3 PUSH2 0x10E JUMP JUMPDEST PUSH2 0x153 DUP7 DUP4 PUSH2 0x10E JUMP JUMPDEST SWAP6 POP DUP1 NOT DUP5 AND SWAP4 POP DUP1 DUP7 AND DUP5 OR SWAP3 POP POP POP SWAP4 SWAP3 POP POP POP JUMP JUMPDEST PUSH0 DUP2 SWAP1 POP SWAP2 SWAP1 POP JUMP JUMPDEST PUSH0 DUP2 SWAP1 POP SWAP2 SWAP1 POP JUMP JUMPDEST PUSH0 PUSH2 0x197 PUSH2 0x192 PUSH2 0x18D DUP5 PUSH2 0x16B JUMP JUMPDEST PUSH2 0x174 JUMP JUMPDEST PUSH2 0x16B JUMP JUMPDEST SWAP1 POP SWAP2 SWAP1 POP JUMP JUMPDEST PUSH0 DUP2 SWAP1 POP SWAP2 SWAP1 POP JUMP JUMPDEST PUSH2 0x1B0 DUP4 PUSH2 0x17D JUMP JUMPDEST PUSH2 0x1C4 PUSH2 0x1BC DUP3 PUSH2 0x19E JUMP JUMPDEST DUP5 DUP5 SLOAD PUSH2 0x11A JUMP JUMPDEST DUP3 SSTORE POP POP POP POP JUMP JUMPDEST PUSH0 PUSH0 SWAP1 POP SWAP1 JUMP JUMPDEST PUSH2 0x1DB PUSH2 0x1CC JUMP JUMPDEST PUSH2 0x1E6 DUP2 DUP5 DUP5 PUSH2 0x1A7 JUMP JUMPDEST POP POP POP JUMP JUMPDEST JUMPDEST DUP2 DUP2 LT ISZERO PUSH2 0x209 JUMPI PUSH2 0x1FE PUSH0 DUP3 PUSH2 0x1D3 JUMP JUMPDEST PUSH1 0x1 DUP2 ADD SWAP1 POP PUSH2 0x1EC JUMP JUMPDEST POP POP JUMP JUMPDEST PUSH1 0x1F DUP3 GT ISZERO PUSH2 0x24E JUMPI PUSH2 0x21F DUP2 PUSH2 0xED JUMP JUMPDEST PUSH2 0x228 DUP5 PUSH2 0xFF JUMP JUMPDEST DUP2 ADD PUSH1 0x20 DUP6 LT ISZERO PUSH2 0x237 JUMPI DUP2 SWAP1 POP JUMPDEST PUSH2 0x24B PUSH2 0x243 DUP6 PUSH2 0xFF JUMP JUMPDEST DUP4 ADD DUP3 PUSH2 0x1EB JUMP JUMPDEST POP POP JUMPDEST POP POP POP JUMP JUMPDEST PUSH0 DUP3 DUP3 SHR SWAP1 POP SWAP3 SWAP2 POP POP JUMP JUMPDEST PUSH0 PUSH2 0x26E PUSH0 NOT DUP5 PUSH1 0x8 MUL PUSH2 0x253 JUMP JUMPDEST NOT DUP1 DUP4 AND SWAP2 POP POP SWAP3 SWAP2 POP POP JUMP JUMPDEST PUSH0 PUSH2 0x286 DUP4 DUP4 PUSH2 0x25F JUMP JUMPDEST SWAP2 POP DUP3 PUSH1 0x2 MUL DUP3 OR SWAP1 POP SWAP3 SWAP2 POP POP JUMP JUMPDEST PUSH2 0x29F DUP3 PUSH2 0x59 JUMP JUMPDEST PUSH8 0xFFFFFFFFFFFFFFFF DUP2 GT ISZERO PUSH2 0x2B8 JUMPI PUSH2 0x2B7 PUSH2 0x63 JUMP JUMPDEST JUMPDEST PUSH2 0x2C2 DUP3 SLOAD PUSH2 0xBD JUMP JUMPDEST PUSH2 0x2CD DUP3 DUP3 DUP6 PUSH2 0x20D JUMP JUMPDEST PUSH0 PUSH1 0x20 SWAP1 POP PUSH1 0x1F DUP4 GT PUSH1 0x1 DUP2 EQ PUSH2 0x2FE JUMPI PUSH0 DUP5 ISZERO PUSH2 0x2EC JUMPI DUP3 DUP8 ADD MLOAD SWAP1 POP JUMPDEST PUSH2 0x2F6 DUP6 DUP3 PUSH2 0x27B JUMP JUMPDEST DUP7 SSTORE POP PUSH2 0x35D JUMP JUMPDEST PUSH1 0x1F NOT DUP5 AND PUSH2 0x30C DUP7 PUSH2 0xED JUMP JUMPDEST PUSH0 JUMPDEST DUP3 DUP2 LT ISZERO PUSH2 0x333 JUMPI DUP5 DUP10 ADD MLOAD DUP3 SSTORE PUSH1 0x1 DUP3 ADD SWAP2 POP PUSH1 0x20 DUP6 ADD SWAP5 POP PUSH1 0x20 DUP2 ADD SWAP1 POP PUSH2 0x30E JUMP JUMPDEST DUP7 DUP4 LT ISZERO PUSH2 0x350 JUMPI DUP5 DUP10 ADD MLOAD PUSH2 0x34C PUSH1 0x1F DUP10 AND DUP3 PUSH2 0x25F JUMP JUMPDEST DUP4 SSTORE POP JUMPDEST PUSH1 0x1 PUSH1 0x2 DUP9 MUL ADD DUP9 SSTORE POP POP POP JUMPDEST POP POP POP POP POP POP JUMP JUMPDEST PUSH2 0x914 DUP1 PUSH2 0x372 PUSH0 CODECOPY PUSH0 RETURN INVALID PUSH1 0x80 PUSH1 0x40 MSTORE CALLVALUE DUP1 ISZERO PUSH2 0xF JUMPI PUSH0 PUSH0 REVERT JUMPDEST POP PUSH1 0x4 CALLDATASIZE LT PUSH2 0x34 JUMPI PUSH0 CALLDATALOAD PUSH1 0xE0 SHR DUP1 PUSH4 0x42257B31 EQ PUSH2 0x38 JUMPI DUP1 PUSH4 0x5D641B89 EQ PUSH2 0x68 JUMPI JUMPDEST PUSH0 PUSH0 REVERT JUMPDEST PUSH2 0x52 PUSH1 0x4 DUP1 CALLDATASIZE SUB DUP2 ADD SWAP1 PUSH2 0x4D SWAP2 SWAP1 PUSH2 0x34C JUMP JUMPDEST PUSH2 0x84 JUMP JUMPDEST PUSH1 0x40 MLOAD PUSH2 0x5F SWAP2 SWAP1 PUSH2 0x3E7 JUMP JUMPDEST PUSH1 0x40 MLOAD DUP1 SWAP2 SUB SWAP1 RETURN JUMPDEST PUSH2 0x82 PUSH1 0x4 DUP1 CALLDATASIZE SUB DUP2 ADD SWAP1 PUSH2 0x7D SWAP2 SWAP1 PUSH2 0x533 JUMP JUMPDEST PUSH2 0x22D JUMP JUMPDEST STOP JUMPDEST PUSH1 0x60 PUSH0 PUSH20 0xFFFFFFFFFFFFFFFFFFFFFFFFFFFFFFFFFFFFFFFF AND PUSH1 0x1 PUSH0 DUP5 DUP2 MSTORE PUSH1 0x20 ADD SWAP1 DUP2 MSTORE PUSH1 0x20 ADD PUSH0 KECCAK256 PUSH1 0x2 ADD PUSH0 SWAP1 SLOAD SWAP1 PUSH2 0x100 EXP SWAP1 DIV PUSH20 0xFFFFFFFFFFFFFFFFFFFFFFFFFFFFFFFFFFFFFFFF AND PUSH20 0xFFFFFFFFFFFFFFFFFFFFFFFFFFFFFFFFFFFFFFFF AND SUB PUSH2 0x183 JUMPI PUSH2 0x17C PUSH0 DUP1 SLOAD PUSH2 0xFB SWAP1 PUSH2 0x5BA JUMP JUMPDEST DUP1 PUSH1 0x1F ADD PUSH1 0x20 DUP1 SWAP2 DIV MUL PUSH1 0x20 ADD PUSH1 0x40 MLOAD SWAP1 DUP2 ADD PUSH1 0x40 MSTORE DUP1 SWAP3 SWAP2 SWAP1 DUP2 DUP2 MSTORE PUSH1 0x20 ADD DUP3 DUP1 SLOAD PUSH2 0x127 SWAP1 PUSH2 0x5BA JUMP JUMPDEST DUP1 ISZERO PUSH2 0x172 JUMPI DUP1 PUSH1 0x1F LT PUSH2 0x149 JUMPI PUSH2 0x100 DUP1 DUP4 SLOAD DIV MUL DUP4 MSTORE SWAP2 PUSH1 0x20 ADD SWAP2 PUSH2 0x172 JUMP JUMPDEST DUP3 ADD SWAP2 SWAP1 PUSH0 MSTORE PUSH1 0x20 PUSH0 KECCAK256 SWAP1 JUMPDEST DUP2 SLOAD DUP2 MSTORE SWAP1 PUSH1 0x1 ADD SWAP1 PUSH1 0x20 ADD DUP1 DUP4 GT PUSH2 0x155 JUMPI DUP3 SWAP1 SUB PUSH1 0x1F AND DUP3 ADD SWAP2 JUMPDEST POP POP POP POP POP PUSH2 0x2DF JUMP JUMPDEST SWAP1 POP PUSH2 0x228 JUMP JUMPDEST PUSH2 0x225 PUSH1 0x1 PUSH0 DUP5 DUP2 MSTORE PUSH1 0x20 ADD SWAP1 DUP2 MSTORE PUSH1 0x20 ADD PUSH0 KECCAK256 PUSH0 ADD DUP1 SLOAD PUSH2 0x1A4 SWAP1 PUSH2 0x5BA JUMP JUMPDEST DUP1 PUSH1 0x1F ADD PUSH1 0x20 DUP1 SWAP2 DIV MUL PUSH1 0x20 ADD PUSH1 0x40 MLOAD SWAP1 DUP2 ADD PUSH1 0x40 MSTORE DUP1 SWAP3 SWAP2 SWAP1 DUP2 DUP2 MSTORE PUSH1 0x20 ADD DUP3 DUP1 SLOAD PUSH2 0x1D0 SWAP1 PUSH2 0x5BA JUMP JUMPDEST DUP1 ISZERO PUSH2 0x21B JUMPI DUP1 PUSH1 0x1F LT PUSH2 0x1F2 JUMPI PUSH2 0x100 DUP1 DUP4 SLOAD DIV MUL DUP4 MSTORE SWAP2 PUSH1 0x20 ADD SWAP2 PUSH2 0x21B JUMP JUMPDEST DUP3 ADD SWAP2 SWAP1 PUSH0 MSTORE PUSH1 0x20 PUSH0 KECCAK256 SWAP1 JUMPDEST DUP2 SLOAD DUP2 MSTORE SWAP1 PUSH1 0x1 ADD SWAP1 PUSH1 0x20 ADD DUP1 DUP4 GT PUSH2 0x1FE JUMPI DUP3 SWAP1 SUB PUSH1 0x1F AND DUP3 ADD SWAP2 JUMPDEST POP POP POP POP POP PUSH2 0x2DF JUMP JUMPDEST SWAP1 POP JUMPDEST SWAP2 SWAP1 POP JUMP JUMPDEST PUSH0 PUSH1 0x40 MLOAD DUP1 PUSH1 0x60 ADD PUSH1 0x40 MSTORE DUP1 DUP5 DUP2 MSTORE PUSH1 0x20 ADD DUP4 DUP2 MSTORE PUSH1 0x20 ADD CALLER PUSH20 0xFFFFFFFFFFFFFFFFFFFFFFFFFFFFFFFFFFFFFFFF AND DUP2 MSTORE POP SWAP1 POP DUP1 PUSH1 0x1 PUSH0 DUP5 DUP2 MSTORE PUSH1 0x20 ADD SWAP1 DUP2 MSTORE PUSH1 0x20 ADD PUSH0 KECCAK256 PUSH0 DUP3 ADD MLOAD DUP2 PUSH0 ADD SWAP1 DUP2 PUSH2 0x286 SWAP2 SWAP1 PUSH2 0x78A JUMP JUMPDEST POP PUSH1 0x20 DUP3 ADD MLOAD DUP2 PUSH1 0x1 ADD SSTORE PUSH1 0x40 DUP3 ADD MLOAD DUP2 PUSH1 0x2 ADD PUSH0 PUSH2 0x100 EXP DUP2 SLOAD DUP2 PUSH20 0xFFFFFFFFFFFFFFFFFFFFFFFFFFFFFFFFFFFFFFFF MUL NOT AND SWAP1 DUP4 PUSH20 0xFFFFFFFFFFFFFFFFFFFFFFFFFFFFFFFFFFFFFFFF AND MUL OR SWAP1 SSTORE POP SWAP1 POP POP POP POP POP JUMP JUMPDEST PUSH1 0x60 DUP2 PUSH1 0x40 MLOAD PUSH1 0x20 ADD PUSH2 0x2F2 SWAP2 SWAP1 PUSH2 0x8B9 JUMP JUMPDEST PUSH1 0x40 MLOAD PUSH1 0x20 DUP2 DUP4 SUB SUB DUP2 MSTORE SWAP1 PUSH1 0x40 MSTORE SWAP1 POP SWAP2 SWAP1 POP JUMP JUMPDEST PUSH0 PUSH1 0x40 MLOAD SWAP1 POP SWAP1 JUMP JUMPDEST PUSH0 PUSH0 REVERT JUMPDEST PUSH0 PUSH0 REVERT JUMPDEST PUSH0 DUP2 SWAP1 POP SWAP2 SWAP1 POP JUMP JUMPDEST PUSH2 0x32B DUP2 PUSH2 0x319 JUMP JUMPDEST DUP2 EQ PUSH2 0x335 JUMPI PUSH0 PUSH0 REVERT JUMPDEST POP JUMP JUMPDEST PUSH0 DUP2 CALLDATALOAD SWAP1 POP PUSH2 0x346 DUP2 PUSH2 0x322 JUMP JUMPDEST SWAP3 SWAP2 POP POP JUMP JUMPDEST PUSH0 PUSH1 0x20 DUP3 DUP5 SUB SLT ISZERO PUSH2 0x361 JUMPI PUSH2 0x360 PUSH2 0x311 JUMP JUMPDEST JUMPDEST PUSH0 PUSH2 0x36E DUP5 DUP3 DUP6 ADD PUSH2 0x338 JUMP JUMPDEST SWAP2 POP POP SWAP3 SWAP2 POP POP JUMP JUMPDEST PUSH0 DUP2 MLOAD SWAP1 POP SWAP2 SWAP1 POP JUMP JUMPDEST PUSH0 DUP3 DUP3 MSTORE PUSH1 0x20 DUP3 ADD SWAP1 POP SWAP3 SWAP2 POP POP JUMP JUMPDEST DUP3 DUP2 DUP4 MCOPY PUSH0 DUP4 DUP4 ADD MSTORE POP POP POP JUMP JUMPDEST PUSH0 PUSH1 0x1F NOT PUSH1 0x1F DUP4 ADD AND SWAP1 POP SWAP2 SWAP1 POP JUMP JUMPDEST PUSH0 PUSH2 0x3B9 DUP3 PUSH2 0x377 JUMP JUMPDEST PUSH2 0x3C3 DUP2 DUP6 PUSH2 0x381 JUMP JUMPDEST SWAP4 POP PUSH2 0x3D3 DUP2 DUP6 PUSH1 0x20 DUP7 ADD PUSH2 0x391 JUMP JUMPDEST PUSH2 0x3DC DUP2 PUSH2 0x39F JUMP JUMPDEST DUP5 ADD SWAP2 POP POP SWAP3 SWAP2 POP POP JUMP JUMPDEST PUSH0 PUSH1 0x20 DUP3 ADD SWAP1 POP DUP2 DUP2 SUB PUSH0 DUP4 ADD MSTORE PUSH2 0x3FF DUP2 DUP5 PUSH2 0x3AF JUMP JUMPDEST SWAP1 POP SWAP3 SWAP2 POP POP JUMP JUMPDEST PUSH0 PUSH0 REVERT JUMPDEST PUSH0 PUSH0 REVERT JUMPDEST PUSH32 0x4E487B7100000000000000000000000000000000000000000000000000000000 PUSH0 MSTORE PUSH1 0x41 PUSH1 0x4 MSTORE PUSH1 0x24 PUSH0 REVERT JUMPDEST PUSH2 0x445 DUP3 PUSH2 0x39F JUMP JUMPDEST DUP2 ADD DUP2 DUP2 LT PUSH8 0xFFFFFFFFFFFFFFFF DUP3 GT OR ISZERO PUSH2 0x464 JUMPI PUSH2 0x463 PUSH2 0x40F JUMP JUMPDEST JUMPDEST DUP1 PUSH1 0x40 MSTORE POP POP POP JUMP JUMPDEST PUSH0 PUSH2 0x476 PUSH2 0x308 JUMP JUMPDEST SWAP1 POP PUSH2 0x482 DUP3 DUP3 PUSH2 0x43C JUMP JUMPDEST SWAP2 SWAP1 POP JUMP JUMPDEST PUSH0 PUSH8 0xFFFFFFFFFFFFFFFF DUP3 GT ISZERO PUSH2 0x4A1 JUMPI PUSH2 0x4A0 PUSH2 0x40F JUMP JUMPDEST JUMPDEST PUSH2 0x4AA DUP3 PUSH2 0x39F JUMP JUMPDEST SWAP1 POP PUSH1 0x20 DUP2 ADD SWAP1 POP SWAP2 SWAP1 POP JUMP JUMPDEST DUP3 DUP2 DUP4 CALLDATACOPY PUSH0 DUP4 DUP4 ADD MSTORE POP POP POP JUMP JUMPDEST PUSH0 PUSH2 0x4D7 PUSH2 0x4D2 DUP5 PUSH2 0x487 JUMP JUMPDEST PUSH2 0x46D JUMP JUMPDEST SWAP1 POP DUP3 DUP2 MSTORE PUSH1 0x20 DUP2 ADD DUP5 DUP5 DUP5 ADD GT ISZERO PUSH2 0x4F3 JUMPI PUSH2 0x4F2 PUSH2 0x40B JUMP JUMPDEST JUMPDEST PUSH2 0x4FE DUP5 DUP3 DUP6 PUSH2 0x4B7 JUMP JUMPDEST POP SWAP4 SWAP3 POP POP POP JUMP JUMPDEST PUSH0 DUP3 PUSH1 0x1F DUP4 ADD SLT PUSH2 0x51A JUMPI PUSH2 0x519 PUSH2 0x407 JUMP JUMPDEST JUMPDEST DUP2 CALLDATALOAD PUSH2 0x52A DUP5 DUP3 PUSH1 0x20 DUP7 ADD PUSH2 0x4C5 JUMP JUMPDEST SWAP2 POP POP SWAP3 SWAP2 POP POP JUMP JUMPDEST PUSH0 PUSH0 PUSH1 0x40 DUP4 DUP6 SUB SLT ISZERO PUSH2 0x549 JUMPI PUSH2 0x548 PUSH2 0x311 JUMP JUMPDEST JUMPDEST PUSH0 DUP4 ADD CALLDATALOAD PUSH8 0xFFFFFFFFFFFFFFFF DUP2 GT ISZERO PUSH2 0x566 JUMPI PUSH2 0x565 PUSH2 0x315 JUMP JUMPDEST JUMPDEST PUSH2 0x572 DUP6 DUP3 DUP7 ADD PUSH2 0x506 JUMP JUMPDEST SWAP3 POP POP PUSH1 0x20 PUSH2 0x583 DUP6 DUP3 DUP7 ADD PUSH2 0x338 JUMP JUMPDEST SWAP2 POP POP SWAP3 POP SWAP3 SWAP1 POP JUMP JUMPDEST PUSH32 0x4E487B7100000000000000000000000000000000000000000000000000000000 PUSH0 MSTORE PUSH1 0x22 PUSH1 0x4 MSTORE PUSH1 0x24 PUSH0 REVERT JUMPDEST PUSH0 PUSH1 0x2 DUP3 DIV SWAP1 POP PUSH1 0x1 DUP3 AND DUP1 PUSH2 0x5D1 JUMPI PUSH1 0x7F DUP3 AND SWAP2 POP JUMPDEST PUSH1 0x20 DUP3 LT DUP2 SUB PUSH2 0x5E4 JUMPI PUSH2 0x5E3 PUSH2 0x58D JUMP JUMPDEST JUMPDEST POP SWAP2 SWAP1 POP JUMP JUMPDEST PUSH0 DUP2 SWAP1 POP DUP2 PUSH0 MSTORE PUSH1 0x20 PUSH0 KECCAK256 SWAP1 POP SWAP2 SWAP1 POP JUMP JUMPDEST PUSH0 PUSH1 0x20 PUSH1 0x1F DUP4 ADD DIV SWAP1 POP SWAP2 SWAP1 POP JUMP JUMPDEST PUSH0 DUP3 DUP3 SHL SWAP1 POP SWAP3 SWAP2 POP POP JUMP JUMPDEST PUSH0 PUSH1 0x8 DUP4 MUL PUSH2 0x646 PUSH32 0xFFFFFFFFFFFFFFFFFFFFFFFFFFFFFFFFFFFFFFFFFFFFFFFFFFFFFFFFFFFFFFFF DUP3 PUSH2 0x60B JUMP JUMPDEST PUSH2 0x650 DUP7 DUP4 PUSH2 0x60B JUMP JUMPDEST SWAP6 POP DUP1 NOT DUP5 AND SWAP4 POP DUP1 DUP7 AND DUP5 OR SWAP3 POP POP POP SWAP4 SWAP3 POP POP POP JUMP JUMPDEST PUSH0 DUP2 SWAP1 POP SWAP2 SWAP1 POP JUMP JUMPDEST PUSH0 PUSH2 0x68B PUSH2 0x686 PUSH2 0x681 DUP5 PUSH2 0x319 JUMP JUMPDEST PUSH2 0x668 JUMP JUMPDEST PUSH2 0x319 JUMP JUMPDEST SWAP1 POP SWAP2 SWAP1 POP JUMP JUMPDEST PUSH0 DUP2 SWAP1 POP SWAP2 SWAP1 POP JUMP JUMPDEST PUSH2 0x6A4 DUP4 PUSH2 0x671 JUMP JUMPDEST PUSH2 0x6B8 PUSH2 0x6B0 DUP3 PUSH2 0x692 JUMP JUMPDEST DUP5 DUP5 SLOAD PUSH2 0x617 JUMP JUMPDEST DUP3 SSTORE POP POP POP POP JUMP JUMPDEST PUSH0 PUSH0 SWAP1 POP SWAP1 JUMP JUMPDEST PUSH2 0x6CF PUSH2 0x6C0 JUMP JUMPDEST PUSH2 0x6DA DUP2 DUP5 DUP5 PUSH2 0x69B JUMP JUMPDEST POP POP POP JUMP JUMPDEST JUMPDEST DUP2 DUP2 LT ISZERO PUSH2 0x6FD JUMPI PUSH2 0x6F2 PUSH0 DUP3 PUSH2 0x6C7 JUMP JUMPDEST PUSH1 0x1 DUP2 ADD SWAP1 POP PUSH2 0x6E0 JUMP JUMPDEST POP POP JUMP JUMPDEST PUSH1 0x1F DUP3 GT ISZERO PUSH2 0x742 JUMPI PUSH2 0x713 DUP2 PUSH2 0x5EA JUMP JUMPDEST PUSH2 0x71C DUP5 PUSH2 0x5FC JUMP JUMPDEST DUP2 ADD PUSH1 0x20 DUP6 LT ISZERO PUSH2 0x72B JUMPI DUP2 SWAP1 POP JUMPDEST PUSH2 0x73F PUSH2 0x737 DUP6 PUSH2 0x5FC JUMP JUMPDEST DUP4 ADD DUP3 PUSH2 0x6DF JUMP JUMPDEST POP POP JUMPDEST POP POP POP JUMP JUMPDEST PUSH0 DUP3 DUP3 SHR SWAP1 POP SWAP3 SWAP2 POP POP JUMP JUMPDEST PUSH0 PUSH2 0x762 PUSH0 NOT DUP5 PUSH1 0x8 MUL PUSH2 0x747 JUMP JUMPDEST NOT DUP1 DUP4 AND SWAP2 POP POP SWAP3 SWAP2 POP POP JUMP JUMPDEST PUSH0 PUSH2 0x77A DUP4 DUP4 PUSH2 0x753 JUMP JUMPDEST SWAP2 POP DUP3 PUSH1 0x2 MUL DUP3 OR SWAP1 POP SWAP3 SWAP2 POP POP JUMP JUMPDEST PUSH2 0x793 DUP3 PUSH2 0x377 JUMP JUMPDEST PUSH8 0xFFFFFFFFFFFFFFFF DUP2 GT ISZERO PUSH2 0x7AC JUMPI PUSH2 0x7AB PUSH2 0x40F JUMP JUMPDEST JUMPDEST PUSH2 0x7B6 DUP3 SLOAD PUSH2 0x5BA JUMP JUMPDEST PUSH2 0x7C1 DUP3 DUP3 DUP6 PUSH2 0x701 JUMP JUMPDEST PUSH0 PUSH1 0x20 SWAP1 POP PUSH1 0x1F DUP4 GT PUSH1 0x1 DUP2 EQ PUSH2 0x7F2 JUMPI PUSH0 DUP5 ISZERO PUSH2 0x7E0 JUMPI DUP3 DUP8 ADD MLOAD SWAP1 POP JUMPDEST PUSH2 0x7EA DUP6 DUP3 PUSH2 0x76F JUMP JUMPDEST DUP7 SSTORE POP PUSH2 0x851 JUMP JUMPDEST PUSH1 0x1F NOT DUP5 AND PUSH2 0x800 DUP7 PUSH2 0x5EA JUMP JUMPDEST PUSH0 JUMPDEST DUP3 DUP2 LT ISZERO PUSH2 0x827 JUMPI DUP5 DUP10 ADD MLOAD DUP3 SSTORE PUSH1 0x1 DUP3 ADD SWAP2 POP PUSH1 0x20 DUP6 ADD SWAP5 POP PUSH1 0x20 DUP2 ADD SWAP1 POP PUSH2 0x802 JUMP JUMPDEST DUP7 DUP4 LT ISZERO PUSH2 0x844 JUMPI DUP5 DUP10 ADD MLOAD PUSH2 0x840 PUSH1 0x1F DUP10 AND DUP3 PUSH2 0x753 JUMP JUMPDEST DUP4 SSTORE POP JUMPDEST PUSH1 0x1 PUSH1 0x2 DUP9 MUL ADD DUP9 SSTORE POP POP POP JUMPDEST POP POP POP POP POP POP JUMP JUMPDEST PUSH0 DUP2 SWAP1 POP SWAP3 SWAP2 POP POP JUMP JUMPDEST PUSH0 PUSH2 0x86D DUP3 PUSH2 0x377 JUMP JUMPDEST PUSH2 0x877 DUP2 DUP6 PUSH2 0x859 JUMP JUMPDEST SWAP4 POP PUSH2 0x887 DUP2 DUP6 PUSH1 0x20 DUP7 ADD PUSH2 0x391 JUMP JUMPDEST DUP1 DUP5 ADD SWAP2 POP POP SWAP3 SWAP2 POP POP JUMP JUMPDEST PUSH32 0x2066726F6D206A61636B79277320736D61727420636F6E747261637421000000 DUP2 MSTORE POP JUMP JUMPDEST PUSH0 PUSH2 0x8C4 DUP3 DUP5 PUSH2 0x863 JUMP JUMPDEST SWAP2 POP PUSH2 0x8CF DUP3 PUSH2 0x893 JUMP JUMPDEST PUSH1 0x1D DUP3 ADD SWAP2 POP DUP2 SWAP1 POP SWAP3 SWAP2 POP POP JUMP INVALID LOG2 PUSH5 0x6970667358 0x22 SLT KECCAK256 DATALOADN 0xE4C2 PUSH15 0xC8EAE5B99F945AD5B6904E46F63DC4 PUSH8 0xC68951ADF4C2DABF 0xB3 0xC3 EXTCODEHASH 0xD7 PUSH5 0x736F6C6343 STOP ADDMOD 0x1E STOP CALLER LOG2 PUSH5 0x6970667358 0x22 SLT KECCAK256 SLOAD DUP6 MSTORE SWAP16 0x4F 0x4D JUMPDEST RETF RJUMPI 0x6A5B SWAP9 PUSH15 0x3B46D3CE147C5E8F7A903A999386C0 0xD7 PUSH12 0xF79864736F6C634300081E00 CALLER "
				},
				"gasEstimates": {
					"creation": {
						"codeDepositCost": "1065400",
						"executionCost": "1105",
						"totalCost": "1066505"
					},
					"external": {
						"callSayHelloWorldFromFactory(uint256,uint256)": "infinite",
						"createHelloWorld()": "infinite",
						"getHelloWorldByIngex(uint256)": "infinite",
						"setSayHelloWorldFromFactory(uint256,string,uint256)": "infinite"
					}
				},
				"methodIdentifiers": {
					"callSayHelloWorldFromFactory(uint256,uint256)": "b4cbaee6",
					"createHelloWorld()": "5e0a94cb",
					"getHelloWorldByIngex(uint256)": "728d5c05",
					"setSayHelloWorldFromFactory(uint256,string,uint256)": "d6612711"
				}
			},
			"storageLayout": {
				"storage": [
					{
						"astId": 6,
						"contract": "test/HelloWorldFactory.sol:HelloWorldFactory",
						"label": "hw",
						"offset": 0,
						"slot": "0",
						"type": "t_contract(HelloWorld)163"
					},
					{
						"astId": 10,
						"contract": "test/HelloWorldFactory.sol:HelloWorldFactory",
						"label": "hws",
						"offset": 0,
						"slot": "1",
						"type": "t_array(t_contract(HelloWorld)163)dyn_storage"
					}
				],
				"types": {
					"t_array(t_contract(HelloWorld)163)dyn_storage": {
						"base": "t_contract(HelloWorld)163",
						"encoding": "dynamic_array",
						"label": "contract HelloWorld[]",
						"numberOfBytes": "32"
					},
					"t_contract(HelloWorld)163": {
						"encoding": "inplace",
						"label": "contract HelloWorld",
						"numberOfBytes": "20"
					}
				}
			},
			"userdoc": {
				"kind": "user",
				"methods": {},
				"version": 1
			}
		}
	}
}