{
	"data": {
		"bytecode": {
			"linkReferences": {},
			"object": "60806040526064600155348015610014575f5ffd5b5060405161116938038061116983398181016040528101906100369190610115565b73694aa1769357215de4fac081bf1f309adc32530660055f6101000a81548173ffffffffffffffffffffffffffffffffffffffff021916908373ffffffffffffffffffffffffffffffffffffffff1602179055503360025f6101000a81548173ffffffffffffffffffffffffffffffffffffffff021916908373ffffffffffffffffffffffffffffffffffffffff160217905550426003819055508060048190555050610140565b5f5ffd5b5f819050919050565b6100f4816100e2565b81146100fe575f5ffd5b50565b5f8151905061010f816100eb565b92915050565b5f6020828403121561012a576101296100de565b5b5f61013784828501610101565b91505092915050565b61101c8061014d5f395ff3fe608060405260043610610054575f3560e01c806301fa9ffb146100585780630ff0a4df146100945780638da5cb5b146100aa5780638edd6eb6146100d4578063b60d4288146100ea578063f2fde38b146100f4575b5f5ffd5b348015610063575f5ffd5b5061007e60048036038101906100799190610932565b61011c565b60405161008b9190610975565b60405180910390f35b34801561009f575f5ffd5b506100a8610130565b005b3480156100b5575f5ffd5b506100be610376565b6040516100cb919061099d565b60405180910390f35b3480156100df575f5ffd5b506100e861039b565b005b6100f26105b7565b005b3480156100ff575f5ffd5b5061011a60048036038101906101159190610932565b610707565b005b5f602052805f5260405f205f915090505481565b60045460035461014091906109e3565b421015610182576040517f08c379a000000000000000000000000000000000000000000000000000000000815260040161017990610a70565b60405180910390fd5b6103e861018e476107d9565b106101ce576040517f08c379a00000000000000000000000000000000000000000000000000000000081526004016101c590610ad8565b60405180910390fd5b5f5f5f3373ffffffffffffffffffffffffffffffffffffffff1673ffffffffffffffffffffffffffffffffffffffff1681526020019081526020015f20540361024c576040517f08c379a000000000000000000000000000000000000000000000000000000000815260040161024390610b40565b60405180910390fd5b5f3373ffffffffffffffffffffffffffffffffffffffff165f5f3373ffffffffffffffffffffffffffffffffffffffff1673ffffffffffffffffffffffffffffffffffffffff1681526020019081526020015f20546040516102ad90610b8b565b5f6040518083038185875af1925050503d805f81146102e7576040519150601f19603f3d011682016040523d82523d5f602084013e6102ec565b606091505b50508091505080610332576040517f08c379a000000000000000000000000000000000000000000000000000000000815260040161032990610be9565b60405180910390fd5b5f5f5f3373ffffffffffffffffffffffffffffffffffffffff1673ffffffffffffffffffffffffffffffffffffffff1681526020019081526020015f208190555050565b60025f9054906101000a900473ffffffffffffffffffffffffffffffffffffffff1681565b6004546003546103ab91906109e3565b4210156103ed576040517f08c379a00000000000000000000000000000000000000000000000000000000081526004016103e490610a70565b60405180910390fd5b3373ffffffffffffffffffffffffffffffffffffffff1660025f9054906101000a900473ffffffffffffffffffffffffffffffffffffffff1673ffffffffffffffffffffffffffffffffffffffff161461047c576040517f08c379a000000000000000000000000000000000000000000000000000000000815260040161047390610c77565b60405180910390fd5b6103e8610488476107d9565b10156104c9576040517f08c379a00000000000000000000000000000000000000000000000000000000081526004016104c090610cdf565b60405180910390fd5b5f3373ffffffffffffffffffffffffffffffffffffffff16476040516104ee90610b8b565b5f6040518083038185875af1925050503d805f8114610528576040519150601f19603f3d011682016040523d82523d5f602084013e61052d565b606091505b50508091505080610573576040517f08c379a000000000000000000000000000000000000000000000000000000000815260040161056a90610be9565b60405180910390fd5b5f5f5f3373ffffffffffffffffffffffffffffffffffffffff1673ffffffffffffffffffffffffffffffffffffffff1681526020019081526020015f208190555050565b6001546105c3346107d9565b1015610604576040517f08c379a00000000000000000000000000000000000000000000000000000000081526004016105fb90610d47565b60405180910390fd5b60045460035461061491906109e3565b4210610655576040517f08c379a000000000000000000000000000000000000000000000000000000000815260040161064c90610daf565b60405180910390fd5b5f3390505f309050345f5f3373ffffffffffffffffffffffffffffffffffffffff1673ffffffffffffffffffffffffffffffffffffffff1681526020019081526020015f20819055508073ffffffffffffffffffffffffffffffffffffffff168273ffffffffffffffffffffffffffffffffffffffff167f596ac4ac3e6e3c7ae3f425b3491c50d0c744004d8ab426337f2c10d0cb234746346040516106fb9190610975565b60405180910390a35050565b3373ffffffffffffffffffffffffffffffffffffffff1660025f9054906101000a900473ffffffffffffffffffffffffffffffffffffffff1673ffffffffffffffffffffffffffffffffffffffff1614610796576040517f08c379a000000000000000000000000000000000000000000000000000000000815260040161078d90610c77565b60405180910390fd5b8060025f6101000a81548173ffffffffffffffffffffffffffffffffffffffff021916908373ffffffffffffffffffffffffffffffffffffffff16021790555050565b5f5f60055f9054906101000a900473ffffffffffffffffffffffffffffffffffffffff1673ffffffffffffffffffffffffffffffffffffffff1663feaf968c6040518163ffffffff1660e01b815260040160a060405180830381865afa158015610845573d5f5f3e3d5ffd5b505050506040513d601f19601f820116820180604052508101906108699190610e69565b5050509150505f81136108b1576040517f08c379a00000000000000000000000000000000000000000000000000000000081526004016108a890610f2a565b60405180910390fd5b6305f5e10081846108c29190610f48565b6108cc9190610fb6565b915050919050565b5f5ffd5b5f73ffffffffffffffffffffffffffffffffffffffff82169050919050565b5f610901826108d8565b9050919050565b610911816108f7565b811461091b575f5ffd5b50565b5f8135905061092c81610908565b92915050565b5f60208284031215610947576109466108d4565b5b5f6109548482850161091e565b91505092915050565b5f819050919050565b61096f8161095d565b82525050565b5f6020820190506109885f830184610966565b92915050565b610997816108f7565b82525050565b5f6020820190506109b05f83018461098e565b92915050565b7f4e487b71000000000000000000000000000000000000000000000000000000005f52601160045260245ffd5b5f6109ed8261095d565b91506109f88361095d565b9250828201905080821115610a1057610a0f6109b6565b5b92915050565b5f82825260208201905092915050565b7f66756e642077696e646f77206973206e6f7420636c6f736564210000000000005f82015250565b5f610a5a601a83610a16565b9150610a6582610a26565b602082019050919050565b5f6020820190508181035f830152610a8781610a4e565b9050919050565b7f74617267657420697320726561636865642100000000000000000000000000005f82015250565b5f610ac2601283610a16565b9150610acd82610a8e565b602082019050919050565b5f6020820190508181035f830152610aef81610ab6565b9050919050565b7f6e6f2066756e642066726f6d20796f75210000000000000000000000000000005f82015250565b5f610b2a601183610a16565b9150610b3582610af6565b602082019050919050565b5f6020820190508181035f830152610b5781610b1e565b9050919050565b5f81905092915050565b50565b5f610b765f83610b5e565b9150610b8182610b68565b5f82019050919050565b5f610b9582610b6b565b9150819050919050565b7f7472616e73616374696f6e206973206661696c656421000000000000000000005f82015250565b5f610bd3601683610a16565b9150610bde82610b9f565b602082019050919050565b5f6020820190508181035f830152610c0081610bc7565b9050919050565b7f746869732066756e6374696f6e20697320206f6e6c792063616c6c65642062795f8201527f206f776e65722100000000000000000000000000000000000000000000000000602082015250565b5f610c61602783610a16565b9150610c6c82610c07565b604082019050919050565b5f6020820190508181035f830152610c8e81610c55565b9050919050565b7f746172676574206973206e6f74207265616368656421000000000000000000005f82015250565b5f610cc9601683610a16565b9150610cd482610c95565b602082019050919050565b5f6020820190508181035f830152610cf681610cbd565b9050919050565b7f73656e64206d6f726520657468000000000000000000000000000000000000005f82015250565b5f610d31600d83610a16565b9150610d3c82610cfd565b602082019050919050565b5f6020820190508181035f830152610d5e81610d25565b9050919050565b7f66756e642077696e646f7720697320636c6f73656421000000000000000000005f82015250565b5f610d99601683610a16565b9150610da482610d65565b602082019050919050565b5f6020820190508181035f830152610dc681610d8d565b9050919050565b5f69ffffffffffffffffffff82169050919050565b610deb81610dcd565b8114610df5575f5ffd5b50565b5f81519050610e0681610de2565b92915050565b5f819050919050565b610e1e81610e0c565b8114610e28575f5ffd5b50565b5f81519050610e3981610e15565b92915050565b610e488161095d565b8114610e52575f5ffd5b50565b5f81519050610e6381610e3f565b92915050565b5f5f5f5f5f60a08688031215610e8257610e816108d4565b5b5f610e8f88828901610df8565b9550506020610ea088828901610e2b565b9450506040610eb188828901610e55565b9350506060610ec288828901610e55565b9250506080610ed388828901610df8565b9150509295509295909350565b7f436861696e6c696e6b207072696365203c3d20300000000000000000000000005f82015250565b5f610f14601483610a16565b9150610f1f82610ee0565b602082019050919050565b5f6020820190508181035f830152610f4181610f08565b9050919050565b5f610f528261095d565b9150610f5d8361095d565b9250828202610f6b8161095d565b91508282048414831517610f8257610f816109b6565b5b5092915050565b7f4e487b71000000000000000000000000000000000000000000000000000000005f52601260045260245ffd5b5f610fc08261095d565b9150610fcb8361095d565b925082610fdb57610fda610f89565b5b82820490509291505056fea2646970667358221220c0a49777d124a899d39acb7eb7a3bafe93f401168f5e37729bb0eebc5d7e3bc864736f6c634300081e0033",
			"opcodes": "PUSH1 0x80 PUSH1 0x40 MSTORE PUSH1 0x64 PUSH1 0x1 SSTORE CALLVALUE DUP1 ISZERO PUSH2 0x14 JUMPI PUSH0 PUSH0 REVERT JUMPDEST POP PUSH1 0x40 MLOAD PUSH2 0x1169 CODESIZE SUB DUP1 PUSH2 0x1169 DUP4 CODECOPY DUP2 DUP2 ADD PUSH1 0x40 MSTORE DUP2 ADD SWAP1 PUSH2 0x36 SWAP2 SWAP1 PUSH2 0x115 JUMP JUMPDEST PUSH20 0x694AA1769357215DE4FAC081BF1F309ADC325306 PUSH1 0x5 PUSH0 PUSH2 0x100 EXP DUP2 SLOAD DUP2 PUSH20 0xFFFFFFFFFFFFFFFFFFFFFFFFFFFFFFFFFFFFFFFF MUL NOT AND SWAP1 DUP4 PUSH20 0xFFFFFFFFFFFFFFFFFFFFFFFFFFFFFFFFFFFFFFFF AND MUL OR SWAP1 SSTORE POP CALLER PUSH1 0x2 PUSH0 PUSH2 0x100 EXP DUP2 SLOAD DUP2 PUSH20 0xFFFFFFFFFFFFFFFFFFFFFFFFFFFFFFFFFFFFFFFF MUL NOT AND SWAP1 DUP4 PUSH20 0xFFFFFFFFFFFFFFFFFFFFFFFFFFFFFFFFFFFFFFFF AND MUL OR SWAP1 SSTORE POP TIMESTAMP PUSH1 0x3 DUP2 SWAP1 SSTORE POP DUP1 PUSH1 0x4 DUP2 SWAP1 SSTORE POP POP PUSH2 0x140 JUMP JUMPDEST PUSH0 PUSH0 REVERT JUMPDEST PUSH0 DUP2 SWAP1 POP SWAP2 SWAP1 POP JUMP JUMPDEST PUSH2 0xF4 DUP2 PUSH2 0xE2 JUMP JUMPDEST DUP2 EQ PUSH2 0xFE JUMPI PUSH0 PUSH0 REVERT JUMPDEST POP JUMP JUMPDEST PUSH0 DUP2 MLOAD SWAP1 POP PUSH2 0x10F DUP2 PUSH2 0xEB JUMP JUMPDEST SWAP3 SWAP2 POP POP JUMP JUMPDEST PUSH0 PUSH1 0x20 DUP3 DUP5 SUB SLT ISZERO PUSH2 0x12A JUMPI PUSH2 0x129 PUSH2 0xDE JUMP JUMPDEST JUMPDEST PUSH0 PUSH2 0x137 DUP5 DUP3 DUP6 ADD PUSH2 0x101 JUMP JUMPDEST SWAP2 POP POP SWAP3 SWAP2 POP POP JUMP JUMPDEST PUSH2 0x101C DUP1 PUSH2 0x14D PUSH0 CODECOPY PUSH0 RETURN INVALID PUSH1 0x80 PUSH1 0x40 MSTORE PUSH1 0x4 CALLDATASIZE LT PUSH2 0x54 JUMPI PUSH0 CALLDATALOAD PUSH1 0xE0 SHR DUP1 PUSH4 0x1FA9FFB EQ PUSH2 0x58 JUMPI DUP1 PUSH4 0xFF0A4DF EQ PUSH2 0x94 JUMPI DUP1 PUSH4 0x8DA5CB5B EQ PUSH2 0xAA JUMPI DUP1 PUSH4 0x8EDD6EB6 EQ PUSH2 0xD4 JUMPI DUP1 PUSH4 0xB60D4288 EQ PUSH2 0xEA JUMPI DUP1 PUSH4 0xF2FDE38B EQ PUSH2 0xF4 JUMPI JUMPDEST PUSH0 PUSH0 REVERT JUMPDEST CALLVALUE DUP1 ISZERO PUSH2 0x63 JUMPI PUSH0 PUSH0 REVERT JUMPDEST POP PUSH2 0x7E PUSH1 0x4 DUP1 CALLDATASIZE SUB DUP2 ADD SWAP1 PUSH2 0x79 SWAP2 SWAP1 PUSH2 0x932 JUMP JUMPDEST PUSH2 0x11C JUMP JUMPDEST PUSH1 0x40 MLOAD PUSH2 0x8B SWAP2 SWAP1 PUSH2 0x975 JUMP JUMPDEST PUSH1 0x40 MLOAD DUP1 SWAP2 SUB SWAP1 RETURN JUMPDEST CALLVALUE DUP1 ISZERO PUSH2 0x9F JUMPI PUSH0 PUSH0 REVERT JUMPDEST POP PUSH2 0xA8 PUSH2 0x130 JUMP JUMPDEST STOP JUMPDEST CALLVALUE DUP1 ISZERO PUSH2 0xB5 JUMPI PUSH0 PUSH0 REVERT JUMPDEST POP PUSH2 0xBE PUSH2 0x376 JUMP JUMPDEST PUSH1 0x40 MLOAD PUSH2 0xCB SWAP2 SWAP1 PUSH2 0x99D JUMP JUMPDEST PUSH1 0x40 MLOAD DUP1 SWAP2 SUB SWAP1 RETURN JUMPDEST CALLVALUE DUP1 ISZERO PUSH2 0xDF JUMPI PUSH0 PUSH0 REVERT JUMPDEST POP PUSH2 0xE8 PUSH2 0x39B JUMP JUMPDEST STOP JUMPDEST PUSH2 0xF2 PUSH2 0x5B7 JUMP JUMPDEST STOP JUMPDEST CALLVALUE DUP1 ISZERO PUSH2 0xFF JUMPI PUSH0 PUSH0 REVERT JUMPDEST POP PUSH2 0x11A PUSH1 0x4 DUP1 CALLDATASIZE SUB DUP2 ADD SWAP1 PUSH2 0x115 SWAP2 SWAP1 PUSH2 0x932 JUMP JUMPDEST PUSH2 0x707 JUMP JUMPDEST STOP JUMPDEST PUSH0 PUSH1 0x20 MSTORE DUP1 PUSH0 MSTORE PUSH1 0x40 PUSH0 KECCAK256 PUSH0 SWAP2 POP SWAP1 POP SLOAD DUP2 JUMP JUMPDEST PUSH1 0x4 SLOAD PUSH1 0x3 SLOAD PUSH2 0x140 SWAP2 SWAP1 PUSH2 0x9E3 JUMP JUMPDEST TIMESTAMP LT ISZERO PUSH2 0x182 JUMPI PUSH1 0x40 MLOAD PUSH32 0x8C379A000000000000000000000000000000000000000000000000000000000 DUP2 MSTORE PUSH1 0x4 ADD PUSH2 0x179 SWAP1 PUSH2 0xA70 JUMP JUMPDEST PUSH1 0x40 MLOAD DUP1 SWAP2 SUB SWAP1 REVERT JUMPDEST PUSH2 0x3E8 PUSH2 0x18E SELFBALANCE PUSH2 0x7D9 JUMP JUMPDEST LT PUSH2 0x1CE JUMPI PUSH1 0x40 MLOAD PUSH32 0x8C379A000000000000000000000000000000000000000000000000000000000 DUP2 MSTORE PUSH1 0x4 ADD PUSH2 0x1C5 SWAP1 PUSH2 0xAD8 JUMP JUMPDEST PUSH1 0x40 MLOAD DUP1 SWAP2 SUB SWAP1 REVERT JUMPDEST PUSH0 PUSH0 PUSH0 CALLER PUSH20 0xFFFFFFFFFFFFFFFFFFFFFFFFFFFFFFFFFFFFFFFF AND PUSH20 0xFFFFFFFFFFFFFFFFFFFFFFFFFFFFFFFFFFFFFFFF AND DUP2 MSTORE PUSH1 0x20 ADD SWAP1 DUP2 MSTORE PUSH1 0x20 ADD PUSH0 KECCAK256 SLOAD SUB PUSH2 0x24C JUMPI PUSH1 0x40 MLOAD PUSH32 0x8C379A000000000000000000000000000000000000000000000000000000000 DUP2 MSTORE PUSH1 0x4 ADD PUSH2 0x243 SWAP1 PUSH2 0xB40 JUMP JUMPDEST PUSH1 0x40 MLOAD DUP1 SWAP2 SUB SWAP1 REVERT JUMPDEST PUSH0 CALLER PUSH20 0xFFFFFFFFFFFFFFFFFFFFFFFFFFFFFFFFFFFFFFFF AND PUSH0 PUSH0 CALLER PUSH20 0xFFFFFFFFFFFFFFFFFFFFFFFFFFFFFFFFFFFFFFFF AND PUSH20 0xFFFFFFFFFFFFFFFFFFFFFFFFFFFFFFFFFFFFFFFF AND DUP2 MSTORE PUSH1 0x20 ADD SWAP1 DUP2 MSTORE PUSH1 0x20 ADD PUSH0 KECCAK256 SLOAD PUSH1 0x40 MLOAD PUSH2 0x2AD SWAP1 PUSH2 0xB8B JUMP JUMPDEST PUSH0 PUSH1 0x40 MLOAD DUP1 DUP4 SUB DUP2 DUP6 DUP8 GAS CALL SWAP3 POP POP POP RETURNDATASIZE DUP1 PUSH0 DUP2 EQ PUSH2 0x2E7 JUMPI PUSH1 0x40 MLOAD SWAP2 POP PUSH1 0x1F NOT PUSH1 0x3F RETURNDATASIZE ADD AND DUP3 ADD PUSH1 0x40 MSTORE RETURNDATASIZE DUP3 MSTORE RETURNDATASIZE PUSH0 PUSH1 0x20 DUP5 ADD RETURNDATACOPY PUSH2 0x2EC JUMP JUMPDEST PUSH1 0x60 SWAP2 POP JUMPDEST POP POP DUP1 SWAP2 POP POP DUP1 PUSH2 0x332 JUMPI PUSH1 0x40 MLOAD PUSH32 0x8C379A000000000000000000000000000000000000000000000000000000000 DUP2 MSTORE PUSH1 0x4 ADD PUSH2 0x329 SWAP1 PUSH2 0xBE9 JUMP JUMPDEST PUSH1 0x40 MLOAD DUP1 SWAP2 SUB SWAP1 REVERT JUMPDEST PUSH0 PUSH0 PUSH0 CALLER PUSH20 0xFFFFFFFFFFFFFFFFFFFFFFFFFFFFFFFFFFFFFFFF AND PUSH20 0xFFFFFFFFFFFFFFFFFFFFFFFFFFFFFFFFFFFFFFFF AND DUP2 MSTORE PUSH1 0x20 ADD SWAP1 DUP2 MSTORE PUSH1 0x20 ADD PUSH0 KECCAK256 DUP2 SWAP1 SSTORE POP POP JUMP JUMPDEST PUSH1 0x2 PUSH0 SWAP1 SLOAD SWAP1 PUSH2 0x100 EXP SWAP1 DIV PUSH20 0xFFFFFFFFFFFFFFFFFFFFFFFFFFFFFFFFFFFFFFFF AND DUP2 JUMP JUMPDEST PUSH1 0x4 SLOAD PUSH1 0x3 SLOAD PUSH2 0x3AB SWAP2 SWAP1 PUSH2 0x9E3 JUMP JUMPDEST TIMESTAMP LT ISZERO PUSH2 0x3ED JUMPI PUSH1 0x40 MLOAD PUSH32 0x8C379A000000000000000000000000000000000000000000000000000000000 DUP2 MSTORE PUSH1 0x4 ADD PUSH2 0x3E4 SWAP1 PUSH2 0xA70 JUMP JUMPDEST PUSH1 0x40 MLOAD DUP1 SWAP2 SUB SWAP1 REVERT JUMPDEST CALLER PUSH20 0xFFFFFFFFFFFFFFFFFFFFFFFFFFFFFFFFFFFFFFFF AND PUSH1 0x2 PUSH0 SWAP1 SLOAD SWAP1 PUSH2 0x100 EXP SWAP1 DIV PUSH20 0xFFFFFFFFFFFFFFFFFFFFFFFFFFFFFFFFFFFFFFFF AND PUSH20 0xFFFFFFFFFFFFFFFFFFFFFFFFFFFFFFFFFFFFFFFF AND EQ PUSH2 0x47C JUMPI PUSH1 0x40 MLOAD PUSH32 0x8C379A000000000000000000000000000000000000000000000000000000000 DUP2 MSTORE PUSH1 0x4 ADD PUSH2 0x473 SWAP1 PUSH2 0xC77 JUMP JUMPDEST PUSH1 0x40 MLOAD DUP1 SWAP2 SUB SWAP1 REVERT JUMPDEST PUSH2 0x3E8 PUSH2 0x488 SELFBALANCE PUSH2 0x7D9 JUMP JUMPDEST LT ISZERO PUSH2 0x4C9 JUMPI PUSH1 0x40 MLOAD PUSH32 0x8C379A000000000000000000000000000000000000000000000000000000000 DUP2 MSTORE PUSH1 0x4 ADD PUSH2 0x4C0 SWAP1 PUSH2 0xCDF JUMP JUMPDEST PUSH1 0x40 MLOAD DUP1 SWAP2 SUB SWAP1 REVERT JUMPDEST PUSH0 CALLER PUSH20 0xFFFFFFFFFFFFFFFFFFFFFFFFFFFFFFFFFFFFFFFF AND SELFBALANCE PUSH1 0x40 MLOAD PUSH2 0x4EE SWAP1 PUSH2 0xB8B JUMP JUMPDEST PUSH0 PUSH1 0x40 MLOAD DUP1 DUP4 SUB DUP2 DUP6 DUP8 GAS CALL SWAP3 POP POP POP RETURNDATASIZE DUP1 PUSH0 DUP2 EQ PUSH2 0x528 JUMPI PUSH1 0x40 MLOAD SWAP2 POP PUSH1 0x1F NOT PUSH1 0x3F RETURNDATASIZE ADD AND DUP3 ADD PUSH1 0x40 MSTORE RETURNDATASIZE DUP3 MSTORE RETURNDATASIZE PUSH0 PUSH1 0x20 DUP5 ADD RETURNDATACOPY PUSH2 0x52D JUMP JUMPDEST PUSH1 0x60 SWAP2 POP JUMPDEST POP POP DUP1 SWAP2 POP POP DUP1 PUSH2 0x573 JUMPI PUSH1 0x40 MLOAD PUSH32 0x8C379A000000000000000000000000000000000000000000000000000000000 DUP2 MSTORE PUSH1 0x4 ADD PUSH2 0x56A SWAP1 PUSH2 0xBE9 JUMP JUMPDEST PUSH1 0x40 MLOAD DUP1 SWAP2 SUB SWAP1 REVERT JUMPDEST PUSH0 PUSH0 PUSH0 CALLER PUSH20 0xFFFFFFFFFFFFFFFFFFFFFFFFFFFFFFFFFFFFFFFF AND PUSH20 0xFFFFFFFFFFFFFFFFFFFFFFFFFFFFFFFFFFFFFFFF AND DUP2 MSTORE PUSH1 0x20 ADD SWAP1 DUP2 MSTORE PUSH1 0x20 ADD PUSH0 KECCAK256 DUP2 SWAP1 SSTORE POP POP JUMP JUMPDEST PUSH1 0x1 SLOAD PUSH2 0x5C3 CALLVALUE PUSH2 0x7D9 JUMP JUMPDEST LT ISZERO PUSH2 0x604 JUMPI PUSH1 0x40 MLOAD PUSH32 0x8C379A000000000000000000000000000000000000000000000000000000000 DUP2 MSTORE PUSH1 0x4 ADD PUSH2 0x5FB SWAP1 PUSH2 0xD47 JUMP JUMPDEST PUSH1 0x40 MLOAD DUP1 SWAP2 SUB SWAP1 REVERT JUMPDEST PUSH1 0x4 SLOAD PUSH1 0x3 SLOAD PUSH2 0x614 SWAP2 SWAP1 PUSH2 0x9E3 JUMP JUMPDEST TIMESTAMP LT PUSH2 0x655 JUMPI PUSH1 0x40 MLOAD PUSH32 0x8C379A000000000000000000000000000000000000000000000000000000000 DUP2 MSTORE PUSH1 0x4 ADD PUSH2 0x64C SWAP1 PUSH2 0xDAF JUMP JUMPDEST PUSH1 0x40 MLOAD DUP1 SWAP2 SUB SWAP1 REVERT JUMPDEST PUSH0 CALLER SWAP1 POP PUSH0 ADDRESS SWAP1 POP CALLVALUE PUSH0 PUSH0 CALLER PUSH20 0xFFFFFFFFFFFFFFFFFFFFFFFFFFFFFFFFFFFFFFFF AND PUSH20 0xFFFFFFFFFFFFFFFFFFFFFFFFFFFFFFFFFFFFFFFF AND DUP2 MSTORE PUSH1 0x20 ADD SWAP1 DUP2 MSTORE PUSH1 0x20 ADD PUSH0 KECCAK256 DUP2 SWAP1 SSTORE POP DUP1 PUSH20 0xFFFFFFFFFFFFFFFFFFFFFFFFFFFFFFFFFFFFFFFF AND DUP3 PUSH20 0xFFFFFFFFFFFFFFFFFFFFFFFFFFFFFFFFFFFFFFFF AND PUSH32 0x596AC4AC3E6E3C7AE3F425B3491C50D0C744004D8AB426337F2C10D0CB234746 CALLVALUE PUSH1 0x40 MLOAD PUSH2 0x6FB SWAP2 SWAP1 PUSH2 0x975 JUMP JUMPDEST PUSH1 0x40 MLOAD DUP1 SWAP2 SUB SWAP1 LOG3 POP POP JUMP JUMPDEST CALLER PUSH20 0xFFFFFFFFFFFFFFFFFFFFFFFFFFFFFFFFFFFFFFFF AND PUSH1 0x2 PUSH0 SWAP1 SLOAD SWAP1 PUSH2 0x100 EXP SWAP1 DIV PUSH20 0xFFFFFFFFFFFFFFFFFFFFFFFFFFFFFFFFFFFFFFFF AND PUSH20 0xFFFFFFFFFFFFFFFFFFFFFFFFFFFFFFFFFFFFFFFF AND EQ PUSH2 0x796 JUMPI PUSH1 0x40 MLOAD PUSH32 0x8C379A000000000000000000000000000000000000000000000000000000000 DUP2 MSTORE PUSH1 0x4 ADD PUSH2 0x78D SWAP1 PUSH2 0xC77 JUMP JUMPDEST PUSH1 0x40 MLOAD DUP1 SWAP2 SUB SWAP1 REVERT JUMPDEST DUP1 PUSH1 0x2 PUSH0 PUSH2 0x100 EXP DUP2 SLOAD DUP2 PUSH20 0xFFFFFFFFFFFFFFFFFFFFFFFFFFFFFFFFFFFFFFFF MUL NOT AND SWAP1 DUP4 PUSH20 0xFFFFFFFFFFFFFFFFFFFFFFFFFFFFFFFFFFFFFFFF AND MUL OR SWAP1 SSTORE POP POP JUMP JUMPDEST PUSH0 PUSH0 PUSH1 0x5 PUSH0 SWAP1 SLOAD SWAP1 PUSH2 0x100 EXP SWAP1 DIV PUSH20 0xFFFFFFFFFFFFFFFFFFFFFFFFFFFFFFFFFFFFFFFF AND PUSH20 0xFFFFFFFFFFFFFFFFFFFFFFFFFFFFFFFFFFFFFFFF AND PUSH4 0xFEAF968C PUSH1 0x40 MLOAD DUP2 PUSH4 0xFFFFFFFF AND PUSH1 0xE0 SHL DUP2 MSTORE PUSH1 0x4 ADD PUSH1 0xA0 PUSH1 0x40 MLOAD DUP1 DUP4 SUB DUP2 DUP7 GAS STATICCALL ISZERO DUP1 ISZERO PUSH2 0x845 JUMPI RETURNDATASIZE PUSH0 PUSH0 RETURNDATACOPY RETURNDATASIZE PUSH0 REVERT JUMPDEST POP POP POP POP PUSH1 0x40 MLOAD RETURNDATASIZE PUSH1 0x1F NOT PUSH1 0x1F DUP3 ADD AND DUP3 ADD DUP1 PUSH1 0x40 MSTORE POP DUP2 ADD SWAP1 PUSH2 0x869 SWAP2 SWAP1 PUSH2 0xE69 JUMP JUMPDEST POP POP POP SWAP2 POP POP PUSH0 DUP2 SGT PUSH2 0x8B1 JUMPI PUSH1 0x40 MLOAD PUSH32 0x8C379A000000000000000000000000000000000000000000000000000000000 DUP2 MSTORE PUSH1 0x4 ADD PUSH2 0x8A8 SWAP1 PUSH2 0xF2A JUMP JUMPDEST PUSH1 0x40 MLOAD DUP1 SWAP2 SUB SWAP1 REVERT JUMPDEST PUSH4 0x5F5E100 DUP2 DUP5 PUSH2 0x8C2 SWAP2 SWAP1 PUSH2 0xF48 JUMP JUMPDEST PUSH2 0x8CC SWAP2 SWAP1 PUSH2 0xFB6 JUMP JUMPDEST SWAP2 POP POP SWAP2 SWAP1 POP JUMP JUMPDEST PUSH0 PUSH0 REVERT JUMPDEST PUSH0 PUSH20 0xFFFFFFFFFFFFFFFFFFFFFFFFFFFFFFFFFFFFFFFF DUP3 AND SWAP1 POP SWAP2 SWAP1 POP JUMP JUMPDEST PUSH0 PUSH2 0x901 DUP3 PUSH2 0x8D8 JUMP JUMPDEST SWAP1 POP SWAP2 SWAP1 POP JUMP JUMPDEST PUSH2 0x911 DUP2 PUSH2 0x8F7 JUMP JUMPDEST DUP2 EQ PUSH2 0x91B JUMPI PUSH0 PUSH0 REVERT JUMPDEST POP JUMP JUMPDEST PUSH0 DUP2 CALLDATALOAD SWAP1 POP PUSH2 0x92C DUP2 PUSH2 0x908 JUMP JUMPDEST SWAP3 SWAP2 POP POP JUMP JUMPDEST PUSH0 PUSH1 0x20 DUP3 DUP5 SUB SLT ISZERO PUSH2 0x947 JUMPI PUSH2 0x946 PUSH2 0x8D4 JUMP JUMPDEST JUMPDEST PUSH0 PUSH2 0x954 DUP5 DUP3 DUP6 ADD PUSH2 0x91E JUMP JUMPDEST SWAP2 POP POP SWAP3 SWAP2 POP POP JUMP JUMPDEST PUSH0 DUP2 SWAP1 POP SWAP2 SWAP1 POP JUMP JUMPDEST PUSH2 0x96F DUP2 PUSH2 0x95D JUMP JUMPDEST DUP3 MSTORE POP POP JUMP JUMPDEST PUSH0 PUSH1 0x20 DUP3 ADD SWAP1 POP PUSH2 0x988 PUSH0 DUP4 ADD DUP5 PUSH2 0x966 JUMP JUMPDEST SWAP3 SWAP2 POP POP JUMP JUMPDEST PUSH2 0x997 DUP2 PUSH2 0x8F7 JUMP JUMPDEST DUP3 MSTORE POP POP JUMP JUMPDEST PUSH0 PUSH1 0x20 DUP3 ADD SWAP1 POP PUSH2 0x9B0 PUSH0 DUP4 ADD DUP5 PUSH2 0x98E JUMP JUMPDEST SWAP3 SWAP2 POP POP JUMP JUMPDEST PUSH32 0x4E487B7100000000000000000000000000000000000000000000000000000000 PUSH0 MSTORE PUSH1 0x11 PUSH1 0x4 MSTORE PUSH1 0x24 PUSH0 REVERT JUMPDEST PUSH0 PUSH2 0x9ED DUP3 PUSH2 0x95D JUMP JUMPDEST SWAP2 POP PUSH2 0x9F8 DUP4 PUSH2 0x95D JUMP JUMPDEST SWAP3 POP DUP3 DUP3 ADD SWAP1 POP DUP1 DUP3 GT ISZERO PUSH2 0xA10 JUMPI PUSH2 0xA0F PUSH2 0x9B6 JUMP JUMPDEST JUMPDEST SWAP3 SWAP2 POP POP JUMP JUMPDEST PUSH0 DUP3 DUP3 MSTORE PUSH1 0x20 DUP3 ADD SWAP1 POP SWAP3 SWAP2 POP POP JUMP JUMPDEST PUSH32 0x66756E642077696E646F77206973206E6F7420636C6F73656421000000000000 PUSH0 DUP3 ADD MSTORE POP JUMP JUMPDEST PUSH0 PUSH2 0xA5A PUSH1 0x1A DUP4 PUSH2 0xA16 JUMP JUMPDEST SWAP2 POP PUSH2 0xA65 DUP3 PUSH2 0xA26 JUMP JUMPDEST PUSH1 0x20 DUP3 ADD SWAP1 POP SWAP2 SWAP1 POP JUMP JUMPDEST PUSH0 PUSH1 0x20 DUP3 ADD SWAP1 POP DUP2 DUP2 SUB PUSH0 DUP4 ADD MSTORE PUSH2 0xA87 DUP2 PUSH2 0xA4E JUMP JUMPDEST SWAP1 POP SWAP2 SWAP1 POP JUMP JUMPDEST PUSH32 0x7461726765742069732072656163686564210000000000000000000000000000 PUSH0 DUP3 ADD MSTORE POP JUMP JUMPDEST PUSH0 PUSH2 0xAC2 PUSH1 0x12 DUP4 PUSH2 0xA16 JUMP JUMPDEST SWAP2 POP PUSH2 0xACD DUP3 PUSH2 0xA8E JUMP JUMPDEST PUSH1 0x20 DUP3 ADD SWAP1 POP SWAP2 SWAP1 POP JUMP JUMPDEST PUSH0 PUSH1 0x20 DUP3 ADD SWAP1 POP DUP2 DUP2 SUB PUSH0 DUP4 ADD MSTORE PUSH2 0xAEF DUP2 PUSH2 0xAB6 JUMP JUMPDEST SWAP1 POP SWAP2 SWAP1 POP JUMP JUMPDEST PUSH32 0x6E6F2066756E642066726F6D20796F7521000000000000000000000000000000 PUSH0 DUP3 ADD MSTORE POP JUMP JUMPDEST PUSH0 PUSH2 0xB2A PUSH1 0x11 DUP4 PUSH2 0xA16 JUMP JUMPDEST SWAP2 POP PUSH2 0xB35 DUP3 PUSH2 0xAF6 JUMP JUMPDEST PUSH1 0x20 DUP3 ADD SWAP1 POP SWAP2 SWAP1 POP JUMP JUMPDEST PUSH0 PUSH1 0x20 DUP3 ADD SWAP1 POP DUP2 DUP2 SUB PUSH0 DUP4 ADD MSTORE PUSH2 0xB57 DUP2 PUSH2 0xB1E JUMP JUMPDEST SWAP1 POP SWAP2 SWAP1 POP JUMP JUMPDEST PUSH0 DUP2 SWAP1 POP SWAP3 SWAP2 POP POP JUMP JUMPDEST POP JUMP JUMPDEST PUSH0 PUSH2 0xB76 PUSH0 DUP4 PUSH2 0xB5E JUMP JUMPDEST SWAP2 POP PUSH2 0xB81 DUP3 PUSH2 0xB68 JUMP JUMPDEST PUSH0 DUP3 ADD SWAP1 POP SWAP2 SWAP1 POP JUMP JUMPDEST PUSH0 PUSH2 0xB95 DUP3 PUSH2 0xB6B JUMP JUMPDEST SWAP2 POP DUP2 SWAP1 POP SWAP2 SWAP1 POP JUMP JUMPDEST PUSH32 0x7472616E73616374696F6E206973206661696C65642100000000000000000000 PUSH0 DUP3 ADD MSTORE POP JUMP JUMPDEST PUSH0 PUSH2 0xBD3 PUSH1 0x16 DUP4 PUSH2 0xA16 JUMP JUMPDEST SWAP2 POP PUSH2 0xBDE DUP3 PUSH2 0xB9F JUMP JUMPDEST PUSH1 0x20 DUP3 ADD SWAP1 POP SWAP2 SWAP1 POP JUMP JUMPDEST PUSH0 PUSH1 0x20 DUP3 ADD SWAP1 POP DUP2 DUP2 SUB PUSH0 DUP4 ADD MSTORE PUSH2 0xC00 DUP2 PUSH2 0xBC7 JUMP JUMPDEST SWAP1 POP SWAP2 SWAP1 POP JUMP JUMPDEST PUSH32 0x746869732066756E6374696F6E20697320206F6E6C792063616C6C6564206279 PUSH0 DUP3 ADD MSTORE PUSH32 0x206F776E65722100000000000000000000000000000000000000000000000000 PUSH1 0x20 DUP3 ADD MSTORE POP JUMP JUMPDEST PUSH0 PUSH2 0xC61 PUSH1 0x27 DUP4 PUSH2 0xA16 JUMP JUMPDEST SWAP2 POP PUSH2 0xC6C DUP3 PUSH2 0xC07 JUMP JUMPDEST PUSH1 0x40 DUP3 ADD SWAP1 POP SWAP2 SWAP1 POP JUMP JUMPDEST PUSH0 PUSH1 0x20 DUP3 ADD SWAP1 POP DUP2 DUP2 SUB PUSH0 DUP4 ADD MSTORE PUSH2 0xC8E DUP2 PUSH2 0xC55 JUMP JUMPDEST SWAP1 POP SWAP2 SWAP1 POP JUMP JUMPDEST PUSH32 0x746172676574206973206E6F7420726561636865642100000000000000000000 PUSH0 DUP3 ADD MSTORE POP JUMP JUMPDEST PUSH0 PUSH2 0xCC9 PUSH1 0x16 DUP4 PUSH2 0xA16 JUMP JUMPDEST SWAP2 POP PUSH2 0xCD4 DUP3 PUSH2 0xC95 JUMP JUMPDEST PUSH1 0x20 DUP3 ADD SWAP1 POP SWAP2 SWAP1 POP JUMP JUMPDEST PUSH0 PUSH1 0x20 DUP3 ADD SWAP1 POP DUP2 DUP2 SUB PUSH0 DUP4 ADD MSTORE PUSH2 0xCF6 DUP2 PUSH2 0xCBD JUMP JUMPDEST SWAP1 POP SWAP2 SWAP1 POP JUMP JUMPDEST PUSH32 0x73656E64206D6F72652065746800000000000000000000000000000000000000 PUSH0 DUP3 ADD MSTORE POP JUMP JUMPDEST PUSH0 PUSH2 0xD31 PUSH1 0xD DUP4 PUSH2 0xA16 JUMP JUMPDEST SWAP2 POP PUSH2 0xD3C DUP3 PUSH2 0xCFD JUMP JUMPDEST PUSH1 0x20 DUP3 ADD SWAP1 POP SWAP2 SWAP1 POP JUMP JUMPDEST PUSH0 PUSH1 0x20 DUP3 ADD SWAP1 POP DUP2 DUP2 SUB PUSH0 DUP4 ADD MSTORE PUSH2 0xD5E DUP2 PUSH2 0xD25 JUMP JUMPDEST SWAP1 POP SWAP2 SWAP1 POP JUMP JUMPDEST PUSH32 0x66756E642077696E646F7720697320636C6F7365642100000000000000000000 PUSH0 DUP3 ADD MSTORE POP JUMP JUMPDEST PUSH0 PUSH2 0xD99 PUSH1 0x16 DUP4 PUSH2 0xA16 JUMP JUMPDEST SWAP2 POP PUSH2 0xDA4 DUP3 PUSH2 0xD65 JUMP JUMPDEST PUSH1 0x20 DUP3 ADD SWAP1 POP SWAP2 SWAP1 POP JUMP JUMPDEST PUSH0 PUSH1 0x20 DUP3 ADD SWAP1 POP DUP2 DUP2 SUB PUSH0 DUP4 ADD MSTORE PUSH2 0xDC6 DUP2 PUSH2 0xD8D JUMP JUMPDEST SWAP1 POP SWAP2 SWAP1 POP JUMP JUMPDEST PUSH0 PUSH10 0xFFFFFFFFFFFFFFFFFFFF DUP3 AND SWAP1 POP SWAP2 SWAP1 POP JUMP JUMPDEST PUSH2 0xDEB DUP2 PUSH2 0xDCD JUMP JUMPDEST DUP2 EQ PUSH2 0xDF5 JUMPI PUSH0 PUSH0 REVERT JUMPDEST POP JUMP JUMPDEST PUSH0 DUP2 MLOAD SWAP1 POP PUSH2 0xE06 DUP2 PUSH2 0xDE2 JUMP JUMPDEST SWAP3 SWAP2 POP POP JUMP JUMPDEST PUSH0 DUP2 SWAP1 POP SWAP2 SWAP1 POP JUMP JUMPDEST PUSH2 0xE1E DUP2 PUSH2 0xE0C JUMP JUMPDEST DUP2 EQ PUSH2 0xE28 JUMPI PUSH0 PUSH0 REVERT JUMPDEST POP JUMP JUMPDEST PUSH0 DUP2 MLOAD SWAP1 POP PUSH2 0xE39 DUP2 PUSH2 0xE15 JUMP JUMPDEST SWAP3 SWAP2 POP POP JUMP JUMPDEST PUSH2 0xE48 DUP2 PUSH2 0x95D JUMP JUMPDEST DUP2 EQ PUSH2 0xE52 JUMPI PUSH0 PUSH0 REVERT JUMPDEST POP JUMP JUMPDEST PUSH0 DUP2 MLOAD SWAP1 POP PUSH2 0xE63 DUP2 PUSH2 0xE3F JUMP JUMPDEST SWAP3 SWAP2 POP POP JUMP JUMPDEST PUSH0 PUSH0 PUSH0 PUSH0 PUSH0 PUSH1 0xA0 DUP7 DUP9 SUB SLT ISZERO PUSH2 0xE82 JUMPI PUSH2 0xE81 PUSH2 0x8D4 JUMP JUMPDEST JUMPDEST PUSH0 PUSH2 0xE8F DUP9 DUP3 DUP10 ADD PUSH2 0xDF8 JUMP JUMPDEST SWAP6 POP POP PUSH1 0x20 PUSH2 0xEA0 DUP9 DUP3 DUP10 ADD PUSH2 0xE2B JUMP JUMPDEST SWAP5 POP POP PUSH1 0x40 PUSH2 0xEB1 DUP9 DUP3 DUP10 ADD PUSH2 0xE55 JUMP JUMPDEST SWAP4 POP POP PUSH1 0x60 PUSH2 0xEC2 DUP9 DUP3 DUP10 ADD PUSH2 0xE55 JUMP JUMPDEST SWAP3 POP POP PUSH1 0x80 PUSH2 0xED3 DUP9 DUP3 DUP10 ADD PUSH2 0xDF8 JUMP JUMPDEST SWAP2 POP POP SWAP3 SWAP6 POP SWAP3 SWAP6 SWAP1 SWAP4 POP JUMP JUMPDEST PUSH32 0x436861696E6C696E6B207072696365203C3D2030000000000000000000000000 PUSH0 DUP3 ADD MSTORE POP JUMP JUMPDEST PUSH0 PUSH2 0xF14 PUSH1 0x14 DUP4 PUSH2 0xA16 JUMP JUMPDEST SWAP2 POP PUSH2 0xF1F DUP3 PUSH2 0xEE0 JUMP JUMPDEST PUSH1 0x20 DUP3 ADD SWAP1 POP SWAP2 SWAP1 POP JUMP JUMPDEST PUSH0 PUSH1 0x20 DUP3 ADD SWAP1 POP DUP2 DUP2 SUB PUSH0 DUP4 ADD MSTORE PUSH2 0xF41 DUP2 PUSH2 0xF08 JUMP JUMPDEST SWAP1 POP SWAP2 SWAP1 POP JUMP JUMPDEST PUSH0 PUSH2 0xF52 DUP3 PUSH2 0x95D JUMP JUMPDEST SWAP2 POP PUSH2 0xF5D DUP4 PUSH2 0x95D JUMP JUMPDEST SWAP3 POP DUP3 DUP3 MUL PUSH2 0xF6B DUP2 PUSH2 0x95D JUMP JUMPDEST SWAP2 POP DUP3 DUP3 DIV DUP5 EQ DUP4 ISZERO OR PUSH2 0xF82 JUMPI PUSH2 0xF81 PUSH2 0x9B6 JUMP JUMPDEST JUMPDEST POP SWAP3 SWAP2 POP POP JUMP JUMPDEST PUSH32 0x4E487B7100000000000000000000000000000000000000000000000000000000 PUSH0 MSTORE PUSH1 0x12 PUSH1 0x4 MSTORE PUSH1 0x24 PUSH0 REVERT JUMPDEST PUSH0 PUSH2 0xFC0 DUP3 PUSH2 0x95D JUMP JUMPDEST SWAP2 POP PUSH2 0xFCB DUP4 PUSH2 0x95D JUMP JUMPDEST SWAP3 POP DUP3 PUSH2 0xFDB JUMPI PUSH2 0xFDA PUSH2 0xF89 JUMP JUMPDEST JUMPDEST DUP3 DUP3 DIV SWAP1 POP SWAP3 SWAP2 POP POP JUMP INVALID LOG2 PUSH5 0x6970667358 0x22 SLT KECCAK256 0xC0 LOG4 SWAP8 PUSH24 0xD124A899D39ACB7EB7A3BAFE93F401168F5E37729BB0EEBC TSTORE PUSH31 0x3BC864736F6C634300081E0033000000000000000000000000000000000000 "
		},
		"gasEstimates": {
			"creation": {
				"codeDepositCost": "824800",
				"executionCost": "infinite",
				"totalCost": "infinite"
			},
			"external": {
				"fund()": "infinite",
				"funders2Amount(address)": "2779",
				"getFund()": "infinite",
				"owner()": "2530",
				"reFund()": "infinite",
				"transferOwnership(address)": "26972"
			},
			"internal": {
				"convertETH2USDT(uint256)": "infinite"
			}
		},
		"methodIdentifiers": {
			"fund()": "b60d4288",
			"funders2Amount(address)": "01fa9ffb",
			"getFund()": "8edd6eb6",
			"owner()": "8da5cb5b",
			"reFund()": "0ff0a4df",
			"transferOwnership(address)": "f2fde38b"
		}
	},
	"abi": [
		{
			"inputs": [
				{
					"internalType": "uint256",
					"name": "_lockTime",
					"type": "uint256"
				}
			],
			"stateMutability": "nonpayable",
			"type": "constructor"
		},
		{
			"anonymous": false,
			"inputs": [
				{
					"indexed": true,
					"internalType": "address",
					"name": "from",
					"type": "address"
				},
				{
					"indexed": true,
					"internalType": "address",
					"name": "to",
					"type": "address"
				},
				{
					"indexed": false,
					"internalType": "uint256",
					"name": "amount",
					"type": "uint256"
				}
			],
			"name": "LogFundTransfer",
			"type": "event"
		},
		{
			"inputs": [],
			"name": "fund",
			"outputs": [],
			"stateMutability": "payable",
			"type": "function"
		},
		{
			"inputs": [
				{
					"internalType": "address",
					"name": "",
					"type": "address"
				}
			],
			"name": "funders2Amount",
			"outputs": [
				{
					"internalType": "uint256",
					"name": "",
					"type": "uint256"
				}
			],
			"stateMutability": "view",
			"type": "function"
		},
		{
			"inputs": [],
			"name": "getFund",
			"outputs": [],
			"stateMutability": "nonpayable",
			"type": "function"
		},
		{
			"inputs": [],
			"name": "owner",
			"outputs": [
				{
					"internalType": "address",
					"name": "",
					"type": "address"
				}
			],
			"stateMutability": "view",
			"type": "function"
		},
		{
			"inputs": [],
			"name": "reFund",
			"outputs": [],
			"stateMutability": "nonpayable",
			"type": "function"
		},
		{
			"inputs": [
				{
					"internalType": "address",
					"name": "newOwner",
					"type": "address"
				}
			],
			"name": "transferOwnership",
			"outputs": [],
			"stateMutability": "nonpayable",
			"type": "function"
		}
	]
}